:100000000C942A000C94470C0C947A0C0C94AD0CB4
:100010000C9447000C9447000C9447000C94470044
:100020000C9447000C9447000C9447000C94470034
:100030000C9447000C9420080C9447000C94D007B3
:100040000C9447000C9447000C9447000C94470014
:100050000C94470011241FBECFE5D8E0DEBFCDBF12
:1000600011E0A0E6B0E0E2E0F1E402C005900D92FC
:10007000AE33B107D9F711E0AEE3B1E001C01D9294
:10008000AE3AB107E1F70E94AB1F0C947F200C94AD
:100090000000EF92FF920F931F937B018C0120E0F1
:1000A00030E040E05FE40E94490388238CF0C801FF
:1000B000B70120E030E040E05FE40E94C1010E940F
:1000C000A9039B01AC01205030404040504806C07D
:1000D000C801B7010E94A9039B01AC01B901CA0183
:1000E0001F910F91FF90EF900895A0E0B0E0EBE733
:1000F000F0E00C944820DC012B01FA019C91923035
:1001000008F439C1EB018881823008F433C194309E
:1001100069F4843009F02FC111969C91119789815F
:10012000981709F428C1A7E2B1E025C1843009F489
:1001300021C18230A9F4923009F01DC19A01AD01AC
:1001400088E0EA010990AE01E90109929E0181501F
:10015000C1F7E201898111969C918923818308C1AD
:10016000923009F407C112962D903C901397EB0141
:100170008A819B811496AD90BD90CD90DC901797AD
:10018000EC80FD800E811F819101281B390BB90184
:1001900037FF04C066277727621B730B6032710537
:1001A0000CF061C0121613066CF537014801062EDB
:1001B00004C096948794779467940A94D2F721E0C8
:1001C00030E040E050E004C0220F331F441F551FB1
:1001D0006A95D2F721503040404050402E213F21B7
:1001E00040235123211531054105510521F021E01E
:1001F00030E040E050E079018A01E628F72808293C
:1002000019293CC0232BD1F1260E371E350146019A
:10021000062E04C096948794779467940A94D2F734
:1002200021E030E040E050E004C0220F331F441FC3
:10023000551F6A95D2F721503040404050402A2146
:100240003B214C215D21211531054105510521F04E
:1002500021E030E040E050E059016A01A628B728CB
:10026000C828D9280BC0821593052CF01C01AA249C
:10027000BB24650103C0EE24FF24870111969C91E5
:10028000D20111968C91981709F445C0992339F041
:10029000A80197012A193B094C095D0906C0A6016E
:1002A00095012E193F09400B510B57FD08C01182D3
:1002B0003382228224833583468357831DC081E0A5
:1002C00081833382228288279927DC01821B930B4A
:1002D000A40BB50B84839583A683B7830DC0220F2F
:1002E000331F441F551F24833583468357838281E0
:1002F000938101979383828324813581468157813D
:10030000DA01C9010197A109B1098F5F9F4FAF4F72
:10031000BF4328F30BC0918333822282EA0CFB1C7B
:100320000C1D1D1DE482F5820683178383E0808304
:10033000248135814681578157FF1AC0C901AA27F8
:1003400097FDA095BA2F81709070A070B0705695EF
:10035000479537952795822B932BA42BB52B848318
:100360009583A683B7838281938101969383828349
:10037000DF0101C0D201CD01CDB7DEB7E2E10C94BF
:100380006420A0E2B0E0E7ECF1E00C945420698333
:100390007A838B839C832D833E834F835887E9E048
:1003A000EE2EF12CEC0EFD1ECE010196B7010E943F
:1003B000D2048E010F5E1F4FCE010596B8010E9438
:1003C000D2048A8991E089278A8BC701B801AE01DE
:1003D000475E5F4F0E9475000E94FD03A096E6E015
:1003E0000C947020A0E2B0E0E8EFF1E00C9454200F
:1003F00069837A838B839C832D833E834F835887C5
:10040000F9E0EF2EF12CEC0EFD1ECE010196B701A6
:100410000E94D2048E010F5E1F4FCE010596B801D7
:100420000E94D204C701B801AE01475E5F4F0E942F
:1004300075000E94FD03A096E6E00C947020A0E2F7
:10044000B0E0E5E2F2E00C94482069837A838B8384
:100450009C832D833E834F835887CE010196BE0136
:10046000675F7F4F0E94D204CE010596BE016F5E8A
:100470007F4F0E94D2049985923088F0898982301A
:10048000C8F0943019F4823051F404C0843029F457
:10049000923081F487E291E0C6C0923049F420E0C6
:1004A0009A858A89981321E02A87CE010996BBC0D4
:1004B000823049F420E09A858A89981321E02A8BBA
:1004C000CE014196B0C02D843E844F8458886D88FB
:1004D0007E888F88988CEE24FF248701AA24BB2471
:1004E000650140E050E060E070E0E0E0F0E0C10174
:1004F00081709070892BE9F0E60CF71C081D191D1E
:100500009A01AB012A0D3B1D4C1D5D1D80E090E062
:10051000A0E0B0E0E614F7040805190520F481E036
:1005200090E0A0E0B0E0BA01A901480F591F6A1F8E
:100530007B1FAA0CBB1CCC1CDD1C97FE08C081E0F5
:1005400090E0A0E0B0E0A82AB92ACA2ADB2A3196B6
:10055000E032F10549F0660C771C881C991C569412
:10056000479437942794C3CFFA85EA892B893C892D
:100570008B859C85280F391F2E5F3F4F17C0CA01FE
:1005800081709070892B61F016950795F794E79428
:1005900080E090E0A0E0B0E8E82AF92A0A2B1B2BC3
:1005A00076956795579547952F5F3F4F77FDE7CF36
:1005B0000CC0440F551F661F771F17FD4160EE0CDE
:1005C000FF1C001F111F21503040403090E05907A0
:1005D00090E0690790E4790760F32B8F3C8FDB0193
:1005E000CA018F779070A070B07080349105A1051A
:1005F000B10561F447FD0AC0E114F10401051105DC
:1006000029F0405C5F4F6F4F7F4F40781A8EFE1786
:1006100011F081E08A8F4D8F5E8F6F8F78A383E01A
:10062000898FCE0149960E94FD03A096E2E10C94C9
:100630006420A8E1B0E0EFE1F3E00C94542069837A
:100640007A838B839C832D833E834F83588789E0F5
:10065000E82EF12CEC0EFD1ECE010196B7010E9492
:10066000D2048E010F5E1F4FCE010596B8010E9485
:10067000D2048985823040F08989823028F0C70110
:10068000B8010E944A0501C08FEF6896E6E00C941D
:100690007020A8E1B0E0EFE4F3E00C94542069830B
:1006A0007A838B839C832D833E834F83588789E095
:1006B000E82EF12CEC0EFD1ECE010196B7010E9432
:1006C000D2048E010F5E1F4FCE010596B8010E9425
:1006D000D2048985823040F08989823028F0C701B0
:1006E000B8010E944A0501C08FEF6896E6E00C94BD
:1006F0007020A8E1B0E0EFE7F3E00C9454206983A8
:100700007A838B839C832D833E834F83588789E034
:10071000E82EF12CEC0EFD1ECE010196B7010E94D1
:10072000D2048E010F5E1F4FCE010596B8010E94C4
:10073000D2048985823040F08989823028F0C7014F
:10074000B8010E944A0501C081E06896E6E00C9479
:100750007020ACE0B0E0EFEAF3E00C94582069833D
:100760007A838B839C83CE010196BE016B5F7F4FA2
:100770000E94D2048D81823061F1823050F1843048
:1007800021F48E81882351F12EC02F81388537FDC9
:1007900020C06E812F3131051CF06623F9F023C093
:1007A0008EE190E0821B930B29853A854B855C8511
:1007B00004C056954795379527958A95D2F76623B5
:1007C000B1F050954095309521953F4F4F4F5F4F79
:1007D0000EC020E030E040E050E009C02FEF3FEFD6
:1007E0004FEF5FE704C020E030E040E050E8B9019F
:1007F000CA012C96E2E00C947420DF92EF92FF92F3
:100800000F931F93FC01E480F58006811781D1804E
:100810008081823048F480E090E0A0E1B0E0E82AF6
:10082000F92A0A2B1B2BA5C0843009F49FC0823003
:1008300021F4EE24FF24870105C0E114F104010531
:10084000110519F4E0E0F0E096C0628173819FEF3A
:10085000623879070CF05BC022E83FEF261B370BAC
:100860002A3131052CF020E030E040E050E02AC091
:10087000B801A701022E04C0769567955795479554
:100880000A94D2F781E090E0A0E0B0E004C0880FC5
:10089000991FAA1FBB1F2A95D2F70197A109B10979
:1008A0008E219F21A023B1230097A105B10521F03E
:1008B00081E090E0A0E0B0E09A01AB01282B392B59
:1008C0004A2B5B2BDA01C9018F779070A070B07052
:1008D00080349105A105B10539F427FF09C0205CDA
:1008E0003F4F4F4F5F4F04C0215C3F4F4F4F5F4F13
:1008F000E0E0F0E02030A0E03A07A0E04A07A0E402
:100900005A0710F0E1E0F0E079018A0127C0603871
:10091000710564F5FB01E158FF4FD801C7018F77DE
:100920009070A070B07080349105A105B10539F4C4
:10093000E7FE0DC080E490E0A0E0B0E004C08FE3EB
:1009400090E0A0E0B0E0E80EF91E0A1F1B1F17FFA1
:1009500005C016950795F794E794319687E01695AC
:100960000795F794E7948A95D1F705C0EE24FF2404
:100970008701EFEFF0E06E2F679566276795902F60
:100980009F77D794DD24D7948E2F8695492F462BB9
:10099000582F5D29B701CA011F910F91FF90EF9069
:1009A000DF900895FC01DB01408151812281622F9B
:1009B0006F7770E0221F2227221F9381892F880FD3
:1009C000822B282F30E0991F9927991F11969C930D
:1009D000119721153105A9F54115510561057105DD
:1009E00011F482E037C082E89FEF13969C938E93B8
:1009F00012979A01AB0167E0220F331F441F551F66
:100A00006A95D1F783E08C930DC0220F331F441FEA
:100A1000551F12968D919C911397019713969C9355
:100A20008E931297203080E0380780E0480780E4FA
:100A3000580758F314962D933D934D935C93179755
:100A400008952F3F310579F4411551056105710570
:100A500019F484E08C93089564FF03C081E08C93C3
:100A600012C01C9210C02F57304013963C932E9307
:100A7000129783E08C9387E0440F551F661F771F02
:100A80008A95D1F7706414964D935D936D937C9322
:100A9000179708951F93DC01FB019C91923008F495
:100AA00047C08081823008F443C0943051F41196DD
:100AB0001C91843099F58181682F70E0611B710968
:100AC0003FC0843021F0923031F48230B9F181811D
:100AD000882389F12DC011961C9111978230F1F075
:100AE00081811817D9F412962D913C911397828128
:100AF00093818217930794F028173907BCF0149656
:100B00008D919D910D90BC91A02D248135814681C0
:100B10005781281739074A075B0718F4112341F05A
:100B20000AC082179307A407B50740F4112319F0F0
:100B300061E070E005C06FEF7FEF02C060E070E041
:100B4000CB011F910895DF93CF9300D00F92CDB7C3
:100B5000DEB79B838A83198219820EC08981282F70
:100B600030E08A819B81FC01E20FF31F80810E94AB
:100B7000060789818F5F89838981282F30E08A81E8
:100B80009B81FC01E20FF31F8081882339F78DE000
:100B90000E9406070F900F900F90CF91DF9108955C
:100BA0000F931F93DF93CF9300D00F92CDB7DEB793
:100BB0009B838A8319828981282F30E08A819B81D7
:100BC0008C01020F131F0E943007F80180830FC0B1
:100BD00089818F5F89838981282F30E08A819B8179
:100BE0008C01020F131F0E943007F8018083898156
:100BF000282F30E08A819B81FC01E20FF31F808166
:100C00008D3031F78981282F30E08A819B81FC016A
:100C1000E20FF31F10820F900F900F90CF91DF9192
:100C20001F910F910895DF93CF9300D000D0CDB7DF
:100C3000DEB769837A838B839C8389810E94060750
:100C400089819A81AB81BC81892F9A2FAB2FBB27D9
:100C50000E94060789819A81AB81BC81CD01AA27B8
:100C6000BB270E94060789819A81AB81BC818B2FAB
:100C70009927AA27BB270E9406070F900F900F9075
:100C80000F90CF91DF910895DF93CF93CDB7DEB76B
:100C900028970FB6F894DEBF0FBECDBF0E94300775
:100CA00088870E9430078F830E9430078E830E94BE
:100CB00030078D838885282F30E040E050E08F8119
:100CC000882F90E0A0E0B0E0BA2FA92F982F8827B6
:100CD000282B392B4A2B5B2B8E81882F90E0A0E0AC
:100CE000B0E0DC0199278827282B392B4A2B5B2B76
:100CF0008D81882F90E0A0E0B0E0B82FAA27992737
:100D00008827822B932BA42BB52B89839A83AB83C3
:100D1000BC8389819A81AB81BC81BC01CD012896BD
:100D20000FB6F894DEBF0FBECDBFCF91DF9108950F
:100D3000DF93CF930F92CDB7DEB781E08983A0E434
:100D4000B0E0E0E4F0E080818F778C93E0E4F0E0C5
:100D50001082E9E2F0E083E38083ABE2B0E0EBE213
:100D6000F0E080818D7F8C93A0E4B0E0E0E4F0E0DF
:100D7000808180688C93A0E4B0E0E0E4F0E08081C2
:100D8000877F8C93A0E4B0E0E0E4F0E080818068AD
:100D90008C93A0E4B0E0E0E4F0E080818F7E8C935F
:100DA000A0E4B0E0E0E4F0E080818F7D8C93A0E4EB
:100DB000B0E0E0E4F0E0808180688C93A0E4B0E0F3
:100DC000E0E4F0E0808182608C93A0E4B0E0E0E4B5
:100DD000F0E0808184608C93AAE2B0E0EAE2F0E087
:100DE00080818B7F8C93AAE2B0E0EAE2F0E0808120
:100DF00080618C93AAE2B0E0EAE2F0E08081886052
:100E00008C9389810F90CF91DF910895DF93CF93D9
:100E10000F92CDB7DEB78983EBE2F0E08081829557
:100E200086958770882F90E0817090700097A1F36D
:100E3000ECE2F0E08981808381E00F90CF91DF9137
:100E40000895DF93CF930F92CDB7DEB78983ECE29D
:100E5000F0E08981808381E00F90CF91DF91089548
:100E6000DF93CF93CDB7DEB7EBE2F0E0808188234C
:100E7000DCF7ECE2F0E08081CF91DF910895DF9321
:100E8000CF93CDB7DEB7ECE2F0E08081CF91DF9178
:100E90000895DF93CF93CDB7DEB7AAE2B0E0EAE2E0
:100EA000F0E0808180648C93AFE5B0E0EFE5F0E0A6
:100EB000808180688C93CF91DF910895DF93CF93E9
:100EC000CDB7DEB7AAE2B0E0EAE2F0E08081806868
:100ED0008C93AFE5B0E0EFE5F0E0808180688C9323
:100EE000CF91DF910895DF93CF93CDB7DEB7AAE21C
:100EF000B0E0EAE2F0E080818F7B8C93AFE5B0E078
:100F0000EFE5F0E080818F778C93CF91DF910895AA
:100F1000DF93CF93CDB7DEB7AAE2B0E0EAE2F0E02C
:100F200080818F778C93AFE5B0E0EFE5F0E08081D2
:100F30008F778C93CF91DF910895DF93CF9300D07B
:100F4000CDB7DEB79A83898380912F01813079F400
:100F5000E981FA8180810E9421070E9449078981E5
:100F60009A8190933F0180933E0110922F010F9040
:100F70000F90CF91DF910895DF93CF9300D0CDB73D
:100F8000DEB79A8389830E945E0789819A81909354
:100F90004101809340010F900F90CF91DF91089510
:100FA0001F920F920FB60F9211242F933F934F93DE
:100FB0005F936F937F938F939F93AF93BF93EF93C1
:100FC000FF93DF93CF93CDB7DEB720913E013091F1
:100FD0003F0180913001882F90E0F901E80FF91F5F
:100FE00080818823A1F020913E0130913F018091C2
:100FF0003001882F90E0F901E80FF91F80810E94ED
:101000002107809130018F5F8093300106C081E01D
:101010008093300181E080932F01CF91DF91FF9188
:10102000EF91BF91AF919F918F917F916F915F9160
:101030004F913F912F910F900FBE0F901F901895D9
:101040001F920F920FB60F9211240F931F932F939D
:101050003F934F935F936F937F938F939F93AF9340
:10106000BF93EF93FF93DF93CF93CDB7DEB720917C
:1010700040013091410180914201882F90E0890127
:10108000080F191F0E943F07F8018083209140013B
:101090003091410180914201882F90E0F901E80FE1
:1010A000F91F80818D3079F4209140013091410108
:1010B00080914201882F90E0F901E80FF91F10821A
:1010C0001092420105C0809142018F5F80934201DE
:1010D00080914201833610F010924201CF91DF914E
:1010E000FF91EF91BF91AF919F918F917F916F9100
:1010F0005F914F913F912F911F910F910F900FBED4
:101100000F901F901895DF93CF93CDB7DEB7A7E36D
:10111000B0E0E7E3F0E0808180618C93A7E3B0E08A
:10112000E7E3F0E0808180628C93A7E3B0E0E7E33F
:10113000F0E080818F7B8C93A7E3B0E0E7E3F0E001
:10114000808180688C93EDE2F0E080E58083CF9130
:10115000DF910895DF93CF93CDB7DEB7A7E3B0E07B
:10116000E7E3F0E080818F7E8C93A7E3B0E0E7E3D4
:10117000F0E080818F7D8C93A7E3B0E0E7E3F0E0BF
:10118000808180648C93A7E3B0E0E7E3F0E08081A6
:101190008F778C93EDE2F0E080E48083CF91DF9154
:1011A0000895DF93CF930F92CDB7DEB78983EFE237
:1011B000F0E089818083EEE2F0E080818823DCF733
:1011C0000F90CF91DF910895DF93CF93CDB7DEB726
:1011D000EEE2F0E080818823DCF7EFE2F0E080814E
:1011E000CF91DF910895DF93CF9300D00F92CDB7C9
:1011F000DEB79B838A8319820EC08981282F30E055
:101200008A819B81FC01E20FF31F80810E94D1083B
:1012100089818F5F89838981282F30E08A819B8132
:10122000FC01E20FF31F8081882339F78981282F81
:1012300030E08A819B81FC01E20FF31F8DE0808307
:101240008981882F90E09C012F5F3F4F8A819B818D
:10125000FC01E20FF31F10820F900F900F90CF91BF
:10126000DF910895DF93CF9300D000D0CDB7DEB7E4
:1012700019821A821B821C8217C089819A81AB81D4
:10128000BC81803C26EC92072DE2A20720E0B20749
:1012900081F089819A81AB81BC810196A11DB11D2C
:1012A00089839A83AB83BC83EEE2F0E0808188235C
:1012B00024F7EFE2F0E080810F900F900F900F90F5
:1012C000CF91DF9108950F931F93DF93CF9300D0B9
:1012D0000F92CDB7DEB79B838A8319828981282F2D
:1012E00030E08A819B818C01020F131F0E94E40869
:1012F000F80180830FC089818F5F89838981282FBE
:1013000030E08A819B818C01020F131F0E94E40848
:10131000F80180838981282F30E08A819B81FC013C
:10132000E20FF31F80818D3031F78981282F30E063
:101330008A819B81FC01E20FF31F10820F900F90B6
:101340000F90CF91DF911F910F910895DF93CF936D
:10135000CDB7DEB7A1E2B0E0E1E2F0E080818E7FC0
:101360008C93A1E2B0E0E1E2F0E080818D7F8C938C
:10137000E0E2F0E080E28083A6E5B0E0E6E5F0E0C0
:10138000808184608C93E2E2F0E087E08083CF91FB
:10139000DF910895DF93CF93CDB7DEB7A6E5B0E038
:1013A000E6E5F0E0808180628C93A6E5B0E0E6E5BA
:1013B000F0E0808180688C93E6E5F0E0808188230E
:1013C000DCF7CF91DF910895DF93CF93CDB7DEB7F0
:1013D000E0E2F0E080E28083E2E2F0E082E080831D
:1013E000A6E5B0E0E6E5F0E0808180648C93A6E5B8
:1013F000B0E0E6E5F0E0808184608C930E946F0AA3
:10140000CF91DF910895DF93CF930F92CDB7DEB7E1
:101410008983E3E2F0E08981880F8083A3E2B0E072
:10142000E3E2F0E080818E7F8C93A6E5B0E0E6E514
:10143000F0E080818F7D8C93A6E5B0E0E6E5F0E0FA
:10144000808180688C93E6E5F0E080818823DCF77A
:101450000F90CF91DF910895DF93CF930F92CDB787
:10146000DEB78983E3E2F0E08981880F8083A3E21D
:10147000B0E0E3E2F0E0808181608C93A6E5B0E02B
:10148000E6E5F0E080818F7D8C93A6E5B0E0E6E5AF
:10149000F0E0808180688C93E6E5F0E0808188232D
:1014A000DCF70F90CF91DF910895DF93CF930F92E8
:1014B000CDB7DEB78983E3E2F0E089818083A6E5DA
:1014C000B0E0E6E5F0E0808180688C93E6E5F0E04E
:1014D00080818823DCF70F90CF91DF910895DF930F
:1014E000CF930F92CDB7DEB7A6E5B0E0E6E5F0E02A
:1014F000808180688C93E6E5F0E080818823DCF7CA
:10150000E3E2F0E08081898389810F90CF91DF91C0
:101510000895DF93CF93CDB7DEB7A6E5B0E0E6E55B
:10152000F0E0808180618C93A6E5B0E0E6E5F0E034
:10153000808184608C93A6E5B0E0E6E5F0E08081F0
:1015400080688C93CF91DF910895DF93CF9300D083
:1015500000D0CDB7DEB78A8319828A81282F30E088
:101560003C832B838B819C8181309105C1F02B8141
:101570003C812230310511F18B819C81009769F506
:10158000ABE5B0E0EBE5F0E0808180648C93AFE503
:10159000B0E0EFE5F0E0808180688C9320C0ABE59F
:1015A000B0E0EBE5F0E0808180688C93AFE5B0E0DF
:1015B000EFE5F0E0808180688C9311C0ABE5B0E08E
:1015C000EBE5F0E0808180628C93AFE5B0E0EFE581
:1015D000F0E0808180688C9302C081E089838981FA
:1015E0000F900F900F900F90CF91DF910895DF93A0
:1015F000CF9300D000D0CDB7DEB78A8319828A811D
:10160000282F30E03C832B838B819C818130910596
:10161000C1F02B813C812230310511F18B819C81FD
:10162000009769F5ABE5B0E0EBE5F0E080818F7BFA
:101630008C93AFE5B0E0EFE5F0E080818F778C939D
:1016400020C0ABE5B0E0EBE5F0E080818F778C93D4
:10165000AFE5B0E0EFE5F0E080818F778C9311C0CB
:10166000ABE5B0E0EBE5F0E080818F7D8C93AFE5FA
:10167000B0E0EFE5F0E080818F778C9302C081E0ED
:10168000898389810F900F900F900F90CF91DF91F8
:101690000895DF93CF93CDB7DEB729970FB6F894AF
:1016A000DEBF0FBECDBF8A836B8319828A81282F4C
:1016B00030E0398728878885998581309105D9F070
:1016C000288539852230310509F473C088859985CC
:1016D000009709F091C0A5E5B0E0E5E5F0E0808174
:1016E0008C7F8C93A5E5B0E0E5E5F0E090818B81FF
:1016F000892B8C9383C08B81282F30E03F832E83EE
:101700008E819F818130910521F12E813F81223090
:1017100031052CF48E819F81009761F047C02E81A6
:101720003F812230310521F18E819F8183309105E7
:1017300071F13CC0A5E5B0E0E5E5F0E080818B7F8C
:101740008C93A5E5B0E0E5E5F0E08081877F8C93A0
:1017500055C0A5E5B0E0E5E5F0E0808184608C93BC
:10176000A5E5B0E0E5E5F0E08081877F8C9346C099
:10177000A5E5B0E0E5E5F0E080818B7F8C93A5E501
:10178000B0E0E5E5F0E0808188608C9337C0A5E5A6
:10179000B0E0E5E5F0E0808184608C93A5E5B0E001
:1017A000E5E5F0E0808188608C9328C081E0898342
:1017B00025C08B81282F30E03D832C838C819D8137
:1017C0008230910531F02C813D812330310549F083
:1017D00010C0A4E5B0E0E4E5F0E080818F7B8C935D
:1017E0000DC0A4E5B0E0E4E5F0E0808180648C9376
:1017F00005C081E0898302C081E0898389812996BF
:101800000FB6F894DEBF0FBECDBFCF91DF91089524
:10181000DF93CF9300D000D000D0CDB7DEB78A835E
:101820007C836B8319828A81282F30E03E832D834D
:101830008D819E818130910581F02D813E81223004
:10184000310591F08D819E810097A9F48B819C8157
:10185000909344018093430110C08B819C819093AD
:1018600046018093450109C08B819C81909348017A
:101870008093470102C081E08983898126960FB653
:10188000F894DEBF0FBECDBFCF91DF9108951F92B8
:101890000F920FB60F9211242F933F934F935F93A4
:1018A0006F937F938F939F93AF93BF93EF93FF9328
:1018B000DF93CF93CDB7DEB7809143019091440180
:1018C000009729F0E0914301F09144010995CF91EF
:1018D000DF91FF91EF91BF91AF919F918F917F9198
:1018E0006F915F914F913F912F910F900FBE0F908D
:1018F0001F9018951F920F920FB60F9211242F93DD
:101900003F934F935F936F937F938F939F93AF9387
:10191000BF93EF93FF93DF93CF93CDB7DEB7809163
:10192000450190914601009729F0E0914501F09121
:1019300046010995CF91DF91FF91EF91BF91AF9152
:101940009F918F917F916F915F914F913F912F91D7
:101950000F900FBE0F901F9018951F920F920FB609
:101960000F9211242F933F934F935F936F937F9325
:101970008F939F93AF93BF93EF93FF93DF93CF9397
:10198000CDB7DEB78091470190914801009729F0CB
:10199000E0914701F09148010995CF91DF91FF91C6
:1019A000EF91BF91AF919F918F917F916F915F91D7
:1019B0004F913F912F910F900FBE0F901F90189550
:1019C000DF93CF93CDB7DEB728970FB6F894DEBF7D
:1019D0000FBECDBF8A836B834C8381E089838C816A
:1019E000882309F076C08A81282F30E038872F833A
:1019F0008F8198858130910559F12F81388522306A
:101A000031052CF48F819885009769F060C02F8193
:101A100038852230310589F18F8198858330910591
:101A200009F440C054C0ABE3B0E0EBE3F0E08081E8
:101A3000482F8B81282F30E081E090E0022E02C0F9
:101A4000880F991F0A94E2F7809584238C93B5C080
:101A5000A8E3B0E0E8E3F0E08081482F8B81282FF5
:101A600030E081E090E0022E02C0880F991F0A94B6
:101A7000E2F7809584238C93A0C0A5E3B0E0E5E372
:101A8000F0E08081482F8B81282F30E081E090E0CA
:101A9000022E02C0880F991F0A94E2F780958423D2
:101AA0008C938BC0A2E3B0E0E2E3F0E08081482FAA
:101AB0008B81282F30E081E090E0022E02C0880F59
:101AC000991F0A94E2F7809584238C9376C019823B
:101AD00074C08C81813009F070C08A81282F30E079
:101AE0003E832D838D819E818130910549F12D8129
:101AF0003E81223031052CF48D819E81009761F06A
:101B00005BC02D813E812230310571F18D819E8136
:101B100083309105E9F150C0ABE3B0E0EBE3F0E0D6
:101B20008081482F8B81282F30E081E090E0022EC9
:101B300002C0880F991F0A94E2F7842B8C933DC052
:101B4000A8E3B0E0E8E3F0E08081482F8B81282F04
:101B500030E081E090E0022E02C0880F991F0A94C5
:101B6000E2F7842B8C9329C0A5E3B0E0E5E3F0E035
:101B70008081482F8B81282F30E081E090E0022E79
:101B800002C0880F991F0A94E2F7842B8C9315C02A
:101B9000A2E3B0E0E2E3F0E08081482F8B81282FC0
:101BA00030E081E090E0022E02C0880F991F0A9475
:101BB000E2F7842B8C9301C01982898128960FB695
:101BC000F894DEBF0FBECDBFCF91DF910895DF93B4
:101BD000CF93CDB7DEB728970FB6F894DEBF0FBE10
:101BE000CDBF8A836B834C8381E089838C8188237A
:101BF00009F076C08A81282F30E038872F838F81C3
:101C000098858130910559F12F8138852230310531
:101C10002CF48F819885009769F060C02F813885FA
:101C20002230310589F18F8198858330910509F43F
:101C300040C054C0AAE3B0E0EAE3F0E08081482F5E
:101C40008B81282F30E081E090E0022E02C0880FC7
:101C5000991F0A94E2F7809584238C93B5C0A7E37B
:101C6000B0E0E7E3F0E08081482F8B81282F30E05F
:101C700081E090E0022E02C0880F991F0A94E2F7DB
:101C8000809584238C93A0C0A4E3B0E0E4E3F0E06B
:101C90008081482F8B81282F30E081E090E0022E58
:101CA00002C0880F991F0A94E2F7809584238C93D1
:101CB0008BC0A1E3B0E0E1E3F0E08081482F8B81AD
:101CC000282F30E081E090E0022E02C0880F991F9B
:101CD0000A94E2F7809584238C9376C0198274C0AD
:101CE0008C81813009F070C08A81282F30E03E83DA
:101CF0002D838D819E818130910549F12D813E8119
:101D0000223031052CF48D819E81009761F05BC0FB
:101D10002D813E812230310571F18D819E8183308C
:101D20009105E9F150C0AAE3B0E0EAE3F0E0808178
:101D3000482F8B81282F30E081E090E0022E02C0F6
:101D4000880F991F0A94E2F7842B8C933DC0A7E378
:101D5000B0E0E7E3F0E08081482F8B81282F30E06E
:101D600081E090E0022E02C0880F991F0A94E2F7EA
:101D7000842B8C9329C0A4E3B0E0E4E3F0E08081FD
:101D8000482F8B81282F30E081E090E0022E02C0A6
:101D9000880F991F0A94E2F7842B8C9315C0A1E356
:101DA000B0E0E1E3F0E08081482F8B81282F30E024
:101DB00081E090E0022E02C0880F991F0A94E2F79A
:101DC000842B8C9301C01982898128960FB6F894D0
:101DD000DEBF0FBECDBFCF91DF910895DF93CF93CC
:101DE00000D000D00F92CDB7DEB78A836B838A8193
:101DF000282F30E03D832C834C815D81413051059B
:101E000041F18C819D818230910534F42C813D819A
:101E10002115310561F052C04C815D814230510580
:101E200051F18C819D8183309105B9F147C0E9E37F
:101E3000F0E08081282F30E08B81882F90E0A9018D
:101E400002C0559547958A95E2F7CA01817089834A
:101E500035C0E6E3F0E08081282F30E08B81882FC9
:101E600090E0A90102C0559547958A95E2F7CA010D
:101E70008170898323C0E3E3F0E08081282F30E084
:101E80008B81882F90E0A90102C0559547958A95CE
:101E9000E2F7CA018170898311C0E0E3F0E080813C
:101EA000282F30E08B81882F90E0A90102C0559542
:101EB00047958A95E2F7CA018170898389810F90DD
:101EC0000F900F900F900F90CF91DF910895DF93B7
:101ED000CF9300D000D00F92CDB7DEB78A836B834B
:101EE00081E089838A81282F30E03D832C838C8197
:101EF0009D818130910549F12C813D812230310550
:101F00002CF48C819D81009761F05BC02C813D8118
:101F10002230310571F18C819D8183309105E9F189
:101F200050C0ABE3B0E0EBE3F0E08081482F8B8161
:101F3000282F30E081E090E0022E02C0880F991F28
:101F40000A94E2F784278C933DC0A8E3B0E0E8E36D
:101F5000F0E08081482F8B81282F30E081E090E0F5
:101F6000022E02C0880F991F0A94E2F784278C93EF
:101F700029C0A5E3B0E0E5E3F0E08081482F8B8144
:101F8000282F30E081E090E0022E02C0880F991FD8
:101F90000A94E2F784278C9315C0A2E3B0E0E2E351
:101FA000F0E08081482F8B81282F30E081E090E0A5
:101FB000022E02C0880F991F0A94E2F784278C939F
:101FC00001C0198289810F900F900F900F900F9090
:101FD000CF91DF910895DF93CF9300D000D00F927F
:101FE000CDB7DEB78A836B8381E089838A81282F0E
:101FF00030E03D832C838C819D8181309105D1F02F
:102000002C813D81223031052CF48C819D810097FB
:1020100061F01FC02C813D812230310581F08C811F
:102020009D818330910581F014C0EBE3F0E08B815A
:10203000808310C0E8E3F0E08B8180830BC0E5E390
:10204000F0E08B81808306C0E2E3F0E08B81808347
:1020500001C0198289810F900F900F900F900F90FF
:10206000CF91DF910895DF93CF9300D000D00F92EE
:10207000CDB7DEB78A836B8381E089838A81282F7D
:1020800030E03D832C838C819D8181309105D1F09E
:102090002C813D81223031052CF48C819D8100976B
:1020A00061F01FC02C813D812230310581F08C818F
:1020B0009D818330910581F014C0EAE3F0E08B81CB
:1020C000808310C0E7E3F0E08B8180830BC0E4E302
:1020D000F0E08B81808306C0E1E3F0E08B818083B8
:1020E00001C0198289810F900F900F900F900F906F
:1020F000CF91DF910895DF93CF9300D000D00F925E
:10210000CDB7DEB78A836B8381E089838A81282FEC
:1021100030E03D832C838C819D818130910509F4D1
:102120003EC02C813D81223031052CF48C819D8173
:10213000009771F0A9C02C813D812230310509F44E
:1021400055C08C819D818330910509F476C09CC077
:10215000AAE3B0E0EAE3F0E08081482F8B81282FEA
:1021600030E081E090E002C0880F991F2A95E2F7E5
:10217000809584238C93ABE3B0E0EBE3F0E08081C7
:10218000482F8B81282F30E081E090E0022E02C0A2
:10219000880F991F0A94E2F7842B8C9376C0A7E3EB
:1021A000B0E0E7E3F0E08081482F8B81282F30E01A
:1021B00081E090E002C0880F991F2A95E2F7809590
:1021C00084238C93A8E3B0E0E8E3F0E08081482F1B
:1021D0008B81282F30E081E090E0022E02C0880F32
:1021E000991F0A94E2F7842B8C934FC0A4E3B0E0CC
:1021F000E4E3F0E08081482F8B81282F30E081E0FC
:1022000090E002C0880F991F2A95E2F780958423F9
:102210008C93A5E3B0E0E5E3F0E08081482F8B816B
:10222000282F30E081E090E0022E02C0880F991F35
:102230000A94E2F7842B8C9328C0A1E3B0E0E1E399
:10224000F0E08081482F8B81282F30E081E090E002
:1022500002C0880F991F2A95E2F7809584238C93FA
:10226000A2E3B0E0E2E3F0E08081482F8B81282FE9
:1022700030E081E090E0022E02C0880F991F0A949E
:10228000E2F7842B8C9301C0198289810F900F9003
:102290000F900F900F90CF91DF910895DF93CF9320
:1022A000CDB7DEB781E060E041E00E94E70D81E05C
:1022B00062E041E00E94E70D81E063E041E00E94BE
:1022C000E70D81E064E041E00E94E70D81E065E018
:1022D00041E00E94E70D81E063E041E00E94E70DEC
:1022E00083E065E041E00E94E70D83E066E041E0C5
:1022F0000E94E70D83E063E041E00E94E70D83E088
:1023000065E041E00E94E00C83E066E040E00E946E
:10231000E00CCF91DF910895DF93CF9300D0CDB73C
:10232000DEB789836A838981813081F481E060E04E
:1023300041E00E94E00C81E062E040E00E94E00C9D
:1023400081E063E041E00E94E00C0DC089818823B8
:1023500051F481E062E040E00E94E00C81E062E044
:1023600040E00E94E00C8A81813081F481E064E0E9
:1023700041E00E94E00C81E065E040E00E94E00C5A
:1023800081E063E041E00E94E00C0DC08A81882377
:1023900051F481E065E040E00E94E00C81E065E0FE
:1023A00040E00E94E00C0F900F90CF91DF910895D4
:1023B000DF93CF9300D0CDB7DEB789836A8389815D
:1023C000813081F481E060E040E00E94E00C81E037
:1023D00062E041E00E94E00C81E063E041E00E94A5
:1023E000E00C0DC08981882351F481E060E040E079
:1023F0000E94E00C81E062E040E00E94E00C8A81F3
:10240000813081F481E064E040E00E94E00C81E0F2
:1024100065E041E00E94E00C81E063E041E00E9461
:10242000E00C0DC08A81882351F481E064E040E033
:102430000E94E00C81E065E040E00E94E00C0F901B
:102440000F90CF91DF910895DF93CF93CDB7DEB793
:1024500081E060E040E00E94E00C81E062E040E06A
:102460000E94E00C81E064E040E00E94E00C81E02A
:1024700065E040E00E94E00C81E063E040E00E9403
:10248000E00CCF91DF9108950F931F93DF93CF93CB
:10249000CDB7DEB7C057D0400FB6F894DEBF0FBE41
:1024A000CDBFFE01E359FF4F80E090E0A0E2B2E42F
:1024B00080839183A283B3838E0107591F4FFE014E
:1024C000E359FF4F608171818281938120E030E088
:1024D0004AEF54E40E941F02DC01CB01F801808323
:1024E0009183A283B383FE01E759FF4F608171811D
:1024F0008281938120E030E040E85FE30E9479032D
:10250000882344F4FE01E959FF4F81E090E0918374
:10251000808364C0FE01E759FF4F60817181828131
:10252000938120E03FEF4FE757E40E94190318160C
:102530000CF043C0FE01E359FF4F6081718182813D
:10254000938120E030E040E251E40E941F02DC0170
:10255000CB018E0109591F4FBC01CD010E944900DA
:10256000DC01CB01F801918380831FC0FE01EB5990
:10257000FF4F88EC90E091838083FE01EB59FF4F81
:10258000808191810197F1F7FE01EB59FF4F918313
:102590008083DE01A959BF4FFE01E959FF4F8081B9
:1025A0009181019711969C938E93FE01E959FF4FFB
:1025B000808191810097D1F627C08E0109591F4F64
:1025C000FE01E759FF4F60817181828193810E94F2
:1025D0004900DC01CB01F80191838083DE01AD5914
:1025E000BF4FFE01E959FF4F808191818D939C93EC
:1025F000FE01ED59FF4F808191810197F1F7FE01B6
:10260000ED59FF4F9183808382E060E041E00E94BA
:10261000E70D82E062E041E00E94E70D82E061E0C8
:1026200041E00E94E70DFE01E15AFF4F80E090E09B
:10263000A0EAB0E480839183A283B3838E01055A1C
:102640001F4FFE01E15AFF4F6081718182819381AA
:1026500020E030E04AEF54E40E941F02DC01CB018D
:10266000F80180839183A283B383FE01E55AFF4F73
:10267000608171818281938120E030E040E85FE3F6
:102680000E947903882344F4FE01E75AFF4F81E05A
:1026900090E09183808364C0FE01E55AFF4F608122
:1026A00071818281938120E03FEF4FE757E40E94E0
:1026B000190318160CF043C0FE01E15AFF4F608168
:1026C00071818281938120E030E040E251E40E94F8
:1026D0001F02DC01CB018E01075A1F4FBC01CD0147
:1026E0000E944900DC01CB01F801918380831FC067
:1026F000FE01E95AFF4F88EC90E091838083FE0150
:10270000E95AFF4F808191810197F1F7FE01E95A63
:10271000FF4F91838083DE01A75ABF4FFE01E75A26
:10272000FF4F80819181019711969C938E93FE01BA
:10273000E75AFF4F808191810097D1F627C08E0123
:10274000075A1F4FFE01E55AFF4F60817181828158
:1027500093810E944900DC01CB01F80191838083C1
:10276000DE01AB5ABF4FFE01E75AFF4F80819181D6
:102770008D939C93FE01EB5AFF4F808191810197CD
:10278000F1F7FE01EB5AFF4F9183808382E06FEFF8
:102790000E94331083E30E94E816FE01EF5AFF4FB8
:1027A00080E090E0A0E0B0E480839183A283B383D3
:1027B0008E01035B1F4FFE01EF5AFF4F6081718155
:1027C0008281938120E030E04AEF54E40E941F02AE
:1027D000DC01CB01F80180839183A283B383FE01E6
:1027E000E35BFF4F608171818281938120E030E063
:1027F00040E85FE30E947903882344F4FE01E55B2F
:10280000FF4F81E090E09183808364C0FE01E35B31
:10281000FF4F608171818281938120E03FEF4FE71C
:1028200057E40E94190318160CF043C0FE01EF5A3A
:10283000FF4F608171818281938120E030E040E22E
:1028400051E40E941F02DC01CB018E01055B1F4F8A
:10285000BC01CD010E944900DC01CB01F80191834C
:1028600080831FC0FE01E75BFF4F88EC90E09183FF
:102870008083FE01E75BFF4F808191810197F1F733
:10288000FE01E75BFF4F91838083DE01A55BBF4FB5
:10289000FE01E55BFF4F80819181019711969C932A
:1028A0008E93FE01E55BFF4F808191810097D1F609
:1028B00027C08E01055B1F4FFE01E35BFF4F608168
:1028C0007181828193810E944900DC01CB01F80172
:1028D00091838083DE01A95BBF4FFE01E55BFF4F63
:1028E000808191818D939C93FE01E95BFF4F8081F4
:1028F00091810197F1F7FE01E95BFF4F918380839E
:1029000082E30E94E816FE01ED5BFF4F80E090E05D
:10291000A0E0B0E480839183A283B3838E01015C45
:102920001F4FFE01ED5BFF4F6081718182819381BA
:1029300020E030E04AEF54E40E941F02DC01CB01AA
:10294000F80180839183A283B383FE01FF966081A7
:1029500071818281938120E030E040E85FE30E9452
:10296000790388232CF481E090E09EAF8DAF46C0C0
:10297000FE01FF96608171818281938120E03FEFAB
:102980004FE757E40E941903181664F5FE01ED5B4A
:10299000FF4F608171818281938120E030E040E2CD
:1029A00051E40E941F02DC01CB01BC01CD010E9459
:1029B0004900DC01CB019EAF8DAF0FC088EC90E0E9
:1029C0009CAF8BAF8BAD9CAD0197F1F79CAF8BAFFC
:1029D0008DAD9EAD01979EAF8DAF8DAD9EAD009735
:1029E00069F716C0FE01FF96608171818281938133
:1029F0000E944900DC01CB019EAF8DAF8DAD9EAD35
:102A00009AAF89AF89AD9AAD0197F1F79AAF89AFC7
:102A100088E20E94E81680E090E0A0E0B0E48DAB90
:102A20009EABAFABB8AF6DA97EA98FA998AD20E0E2
:102A300030E04AEF54E40E941F02DC01CB0189AB75
:102A40009AABABABBCAB69A97AA98BA99CA920E0D6
:102A500030E040E85FE30E94790388232CF481E0B2
:102A600090E098AB8FA73FC069A97AA98BA99CA9D0
:102A700020E03FEF4FE757E40E94190318164CF58A
:102A80006DA97EA98FA998AD20E030E040E251E425
:102A90000E941F02DC01CB01BC01CD010E94490054
:102AA000DC01CB0198AB8FA70FC088EC90E09EA70C
:102AB0008DA78DA59EA50197F1F79EA78DA78FA540
:102AC00098A9019798AB8FA78FA598A9009769F748
:102AD00014C069A97AA98BA99CA90E944900DC01AC
:102AE000CB0198AB8FA78FA598A99CA78BA78BA587
:102AF0009CA50197F1F79CA78BA78CE00E94E81694
:102B000080E090E0A0E0B0E48FA398A7A9A7BAA7BF
:102B10006FA178A589A59AA520E030E04AEF54E49A
:102B20000E941F02DC01CB018BA39CA3ADA3BEA31B
:102B30006BA17CA18DA19EA120E030E040E85FE385
:102B40000E94790388232CF481E090E09AA389A362
:102B50003FC06BA17CA18DA19EA120E03FEF4FE77C
:102B600057E40E94190318164CF56FA178A589A5A2
:102B70009AA520E030E040E251E40E941F02DC010F
:102B8000CB01BC01CD010E944900DC01CB019AA31D
:102B900089A30FC088EC90E098A38F8F8F8D98A1A8
:102BA0000197F1F798A38F8F89A19AA101979AA312
:102BB00089A389A19AA1009769F714C06BA17CA190
:102BC0008DA19EA10E944900DC01CB019AA389A39B
:102BD00089A19AA19E8F8D8F8D8D9E8D0197F1F782
:102BE0009E8F8D8F86E00E94E81680E090E0A0E046
:102BF000B0E4898F9A8FAB8FBC8F698D7A8D8B8D66
:102C00009C8D20E030E04AEF54E40E941F02DC017A
:102C1000CB018D8B9E8BAF8BB88F6D897E898F8911
:102C2000988D20E030E040E85FE30E94790388233C
:102C30002CF481E090E09C8B8B8B3FC06D897E896A
:102C40008F89988D20E03FEF4FE757E40E941903EA
:102C500018164CF5698D7A8D8B8D9C8D20E030E0B7
:102C600040E251E40E941F02DC01CB01BC01CD0116
:102C70000E944900DC01CB019C8B8B8B0FC088EC40
:102C800090E09A8B898B89899A890197F1F79A8BC1
:102C9000898B8B899C8901979C8B8B8B8B899C89D9
:102CA000009769F714C06D897E898F89988D0E947D
:102CB0004900DC01CB019C8B8B8B8B899C89988B89
:102CC0008F878F8598890197F1F7988B8F8781E09F
:102CD0000E94E81680E090E0A0E0B0E48B879C873B
:102CE000AD87BE876B857C858D859E8520E030E035
:102CF0004AEF54E40E941F02DC01CB018F839887C6
:102D0000A987BA876F81788589859A8520E030E028
:102D100040E85FE30E94790388232CF481E090E08F
:102D20009E838D833FC06F81788589859A8520E059
:102D30003FEF4FE757E40E94190318164CF56B85D7
:102D40007C858D859E8520E030E040E251E40E9444
:102D50001F02DC01CB01BC01CD010E944900DC0156
:102D6000CB019E838D830FC088EC90E09C838B8386
:102D70008B819C810197F1F79C838B838D819E8150
:102D800001979E838D838D819E81009769F714C082
:102D90006F81788589859A850E944900DC01CB0185
:102DA0009E838D838D819E819A83898389819A8177
:102DB0000197F1F79A838983C059DF4F0FB6F894D2
:102DC000DEBF0FBECDBFCF91DF911F910F91089550
:102DD0000F931F93DF93CF93CDB7DEB7C754D04087
:102DE0000FB6F894DEBF0FBECDBFFE01E95BFF4F0B
:102DF0008083FE01E95BFF4F8081982F907F82E006
:102E0000692F0E94EB0F82E060E040E00E94E00C3E
:102E100082E061E040E00E94E00C82E062E041E09C
:102E20000E94E00CFE01ED5BFF4F80E090E0A0E02F
:102E3000B0E480839183A283B3838E01015C1F4F32
:102E4000FE01ED5BFF4F608171818281938120E003
:102E500030E04AEF54E40E941F02DC01CB01F8018C
:102E600080839183A283B383FE01FF966081718189
:102E70008281938120E030E040E85FE30E947903A3
:102E800088232CF481E090E09EAF8DAF46C0FE0118
:102E9000FF96608171818281938120E03FEF4FE74F
:102EA00057E40E941903181664F5FE01ED5BFF4F0D
:102EB000608171818281938120E030E040E251E4C1
:102EC0000E941F02DC01CB01BC01CD010E94490020
:102ED000DC01CB019EAF8DAF0FC088EC90E09CAFC2
:102EE0008BAF8BAD9CAD0197F1F79CAF8BAF8DADE8
:102EF0009EAD01979EAF8DAF8DAD9EAD009769F7EA
:102F000016C0FE01FF9660817181828193810E94CB
:102F10004900DC01CB019EAF8DAF8DAD9EAD9AAF68
:102F200089AF89AD9AAD0197F1F79AAF89AF82E089
:102F300062E040E00E94E00C80E090E0A0E0B0E4BD
:102F40008DAB9EABAFABB8AF6DA97EA98FA998AD85
:102F500020E030E04AEF54E40E941F02DC01CB0184
:102F600089AB9AABABABBCAB69A97AA98BA99CA97D
:102F700020E030E040E85FE30E94790388232CF4EE
:102F800081E090E098AB8FA73FC069A97AA98BA98F
:102F90009CA920E03FEF4FE757E40E941903181661
:102FA0004CF56DA97EA98FA998AD20E030E040E2F4
:102FB00051E40E941F02DC01CB01BC01CD010E9443
:102FC0004900DC01CB0198AB8FA70FC088EC90E0E3
:102FD0009EA78DA78DA59EA50197F1F79EA78DA70A
:102FE0008FA598A9019798AB8FA78FA598A900974F
:102FF00069F714C069A97AA98BA99CA90E94490004
:10300000DC01CB0198AB8FA78FA598A99CA78BA7B4
:103010008BA59CA50197F1F79CA78BA7FE01E95B07
:10302000FF4F8081982F9295907F82E0692F0E94B8
:10303000EB0F82E062E041E00E94E00C80E090E073
:10304000A0E0B0E48FA398A7A9A7BAA76FA178A51D
:1030500089A59AA520E030E04AEF54E40E941F02BF
:10306000DC01CB018BA39CA3ADA3BEA36BA17CA170
:103070008DA19EA120E030E040E85FE30E9479034B
:1030800088232CF481E090E09AA389A33FC06BA130
:103090007CA18DA19EA120E03FEF4FE757E40E9465
:1030A000190318164CF56FA178A589A59AA520E0FB
:1030B00030E040E251E40E941F02DC01CB01BC0180
:1030C000CD010E944900DC01CB019AA389A30FC066
:1030D00088EC90E098A38F8F8F8D98A10197F1F7DE
:1030E00098A38F8F89A19AA101979AA389A389A1F7
:1030F0009AA1009769F714C06BA17CA18DA19EA134
:103100000E944900DC01CB019AA389A389A19AA15D
:103110009E8F8D8F8D8D9E8D0197F1F79E8F8D8F58
:1031200082E062E040E00E94E00C80E090E0A0E0FD
:10313000B0E4898F9A8FAB8FBC8F698D7A8D8B8D20
:103140009C8D20E030E04AEF54E40E941F02DC0135
:10315000CB018D8B9E8BAF8BB88F6D897E898F89CC
:10316000988D20E030E040E85FE30E9479038823F7
:103170002CF481E090E09C8B8B8B3FC06D897E8925
:103180008F89988D20E03FEF4FE757E40E941903A5
:1031900018164CF5698D7A8D8B8D9C8D20E030E072
:1031A00040E251E40E941F02DC01CB01BC01CD01D1
:1031B0000E944900DC01CB019C8B8B8B0FC088ECFB
:1031C00090E09A8B898B89899A890197F1F79A8B7C
:1031D000898B8B899C8901979C8B8B8B8B899C8994
:1031E000009769F714C06D897E898F89988D0E9438
:1031F0004900DC01CB019C8B8B8B8B899C89988B44
:103200008F878F8598890197F1F7988B8F8780E05A
:1032100090E0A0EAB0E48B879C87AD87BE876B8582
:103220007C858D859E8520E030E04AEF54E40E9445
:103230001F02DC01CB018F839887A987BA876F8132
:10324000788589859A8520E030E040E85FE30E9438
:10325000790388232CF481E090E09E838D833FC026
:103260006F81788589859A8520E03FEF4FE757E4A5
:103270000E94190318164CF56B857C858D859E85FB
:1032800020E030E040E251E40E941F02DC01CB016B
:10329000BC01CD010E944900DC01CB019E838D83DE
:1032A0000FC088EC90E09C838B838B819C8101977D
:1032B000F1F79C838B838D819E8101979E838D8303
:1032C0008D819E81009769F714C06F81788589850B
:1032D0009A850E944900DC01CB019E838D838D81FC
:1032E0009E819A83898389819A810197F1F79A83D4
:1032F0008983C95BDF4F0FB6F894DEBF0FBECDBF29
:10330000CF91DF911F910F910895DF93CF93CDB7A8
:10331000DEB7E9970FB6F894DEBF0FBECDBF89AF19
:1033200089AD982F907F82E0692F0E94EB0F82E099
:1033300060E041E00E94E00C82E061E040E00E9439
:10334000E00C82E062E041E00E94E00C80E090E06E
:10335000A0E0B0E48DAB9EABAFABB8AF6DA97EA9DA
:103360008FA998AD20E030E04AEF54E40E941F029C
:10337000DC01CB0189AB9AABABABBCAB69A97AA939
:103380008BA99CA920E030E040E85FE30E9479032C
:1033900088232CF481E090E098AB8FA73FC069A907
:1033A0007AA98BA99CA920E03FEF4FE757E40E9440
:1033B000190318164CF56DA97EA98FA998AD20E0C8
:1033C00030E040E251E40E941F02DC01CB01BC016D
:1033D000CD010E944900DC01CB0198AB8FA70FC043
:1033E00088EC90E09EA78DA78DA59EA50197F1F78B
:1033F0009EA78DA78FA598A9019798AB8FA78FA59A
:1034000098A9009769F714C069A97AA98BA99CA902
:103410000E944900DC01CB0198AB8FA78FA598A92A
:103420009CA78BA78BA59CA50197F1F79CA78BA7C1
:1034300082E062E040E00E94E00C80E090E0A0E0EA
:10344000B0E48FA398A7A9A7BAA76FA178A589A56B
:103450009AA520E030E04AEF54E40E941F02DC010C
:10346000CB018BA39CA3ADA3BEA36BA17CA18DA11B
:103470009EA120E030E040E85FE30E9479038823CA
:103480002CF481E090E09AA389A33FC06BA17CA1BA
:103490008DA19EA120E03FEF4FE757E40E94190362
:1034A00018164CF56FA178A589A59AA520E030E003
:1034B00040E251E40E941F02DC01CB01BC01CD01BE
:1034C0000E944900DC01CB019AA389A30FC088ECBC
:1034D00090E098A38F8F8F8D98A10197F1F798A313
:1034E0008F8F89A19AA101979AA389A389A19AA1F3
:1034F000009769F714C06BA17CA18DA19EA10E94C9
:103500004900DC01CB019AA389A389A19AA19E8FCE
:103510008D8F8D8D9E8D0197F1F79E8F8D8F89AD4B
:10352000982F9295907F82E0692F0E94EB0F82E0A6
:1035300060E041E00E94E00C82E062E041E00E9435
:10354000E00C80E090E0A0E0B0E4898F9A8FAB8F30
:10355000BC8F698D7A8D8B8D9C8D20E030E04AEF99
:1035600054E40E941F02DC01CB018D8B9E8BAF8B3C
:10357000B88F6D897E898F89988D20E030E040E892
:103580005FE30E94790388232CF481E090E09C8B18
:103590008B8B3FC06D897E898F89988D20E03FEFAE
:1035A0004FE757E40E94190318164CF5698D7A8D80
:1035B0008B8D9C8D20E030E040E251E40E941F02A0
:1035C000DC01CB01BC01CD010E944900DC01CB0133
:1035D0009C8B8B8B0FC088EC90E09A8B898B8989B0
:1035E0009A890197F1F79A8B898B8B899C8901972E
:1035F0009C8B8B8B8B899C89009769F714C06D8994
:103600007E898F89988D0E944900DC01CB019C8BBB
:103610008B8B8B899C89988B8F878F859889019755
:10362000F1F7988B8F8782E062E040E00E94E00C27
:1036300080E090E0A0E0B0E48B879C87AD87BE87F8
:103640006B857C858D859E8520E030E04AEF54E4D3
:103650000E941F02DC01CB018F839887A987BA875C
:103660006F81788589859A8520E030E040E85FE3C6
:103670000E94790388232CF481E090E09E838D835F
:103680003FC06F81788589859A8520E03FEF4FE7BD
:1036900057E40E94190318164CF56B857C858D85BF
:1036A0009E8520E030E040E251E40E941F02DC01F0
:1036B000CB01BC01CD010E944900DC01CB019E83FE
:1036C0008D830FC088EC90E09C838B838B819C81E1
:1036D0000197F1F79C838B838D819E8101979E8357
:1036E0008D838D819E81009769F714C06F817885E5
:1036F00089859A850E944900DC01CB019E838D83D8
:103700008D819E819A83898389819A810197F1F7BE
:103710009A838983E9960FB6F894DEBF0FBECDBFBA
:10372000CF91DF910895DF93CF9300D00F92CDB763
:10373000DEB79B838A8319820EC08981282F30E0EF
:103740008A819B81FC01E20FF31F80810E94851911
:1037500089818F5F89838981282F30E08A819B81CD
:10376000FC01E20FF31F8081882339F70F900F903F
:103770000F90CF91DF910895DF93CF93CDB7DEB750
:103780002A970FB6F894DEBF0FBECDBF98878F8300
:103790008F819885009719F480E30E94851919821A
:1037A0001FC08981E82FFF27E7FDF0958F8198855D
:1037B0002AE030E0B9010E941220282FCE010296A3
:1037C000E80FF91F20838F8198852AE030E0B90146
:1037D0000E941220CB0198878F8389818F5F898314
:1037E0008F8198850097E9F68981815089837EC011
:1037F0008981282F332727FD3095CE010296FC01C1
:10380000E20FF31F8081282F30E03A8729878985CE
:103810009A858430910509F44FC029853A85253071
:103820003105D4F489859A8581309105C9F12985BE
:103830003A85223031052CF489859A85009761F10B
:1038400052C029853A852230310571F189859A85E2
:103850008330910569F147C029853A8527303105C4
:10386000B9F189859A85883091055CF429853A8576
:103870002530310529F189859A858630910521F118
:1038800032C029853A852830310531F189859A85FC
:103890008930910529F127C080E30E94851923C052
:1038A00081E30E9485191FC082E30E9485191BC015
:1038B00083E30E94851917C084E30E94851913C011
:1038C00085E30E9485190FC086E30E9485190BC00D
:1038D00087E30E94851907C088E30E94851903C009
:1038E00089E30E9485198981815089838981882390
:1038F0000CF07ECF2A960FB6F894DEBF0FBECDBF78
:10390000CF91DF910895DF93CF9300D0CDB7DEB78D
:1039100089836A838981882321F48A8180580E945F
:10392000E8168981813021F48A8180540E94E8164A
:103930000F900F90CF91DF910895DF93CF93CDB784
:10394000DEB72E970FB6F894DEBF0FBECDBF81E075
:103950000E94E81680E090E0A0E0B0E48B879C87AE
:10396000AD87BE876B857C858D859E8520E030E0A8
:103970004AEF54E40E941F02DC01CB018F83988739
:10398000A987BA876F81788589859A8520E030E09C
:1039900040E85FE30E94790388232CF481E090E003
:1039A0009E838D833FC06F81788589859A8520E0CD
:1039B0003FEF4FE757E40E94190318164CF56B854B
:1039C0007C858D859E8520E030E040E251E40E94B8
:1039D0001F02DC01CB01BC01CD010E944900DC01CA
:1039E000CB019E838D830FC088EC90E09C838B83FA
:1039F0008B819C810197F1F79C838B838D819E81C4
:103A000001979E838D838D819E81009769F714C0F5
:103A10006F81788589859A850E944900DC01CB01F8
:103A20009E838D838D819E819A83898389819A81EA
:103A30000197F1F79A8389832E960FB6F894DEBF2B
:103A40000FBECDBFCF91DF910895DF93CF93CDB758
:103A5000DEB780E064E00E947B1080E065E00E94B9
:103A60007B1080E066E00E947B1080E060E041E037
:103A70000E94E70D80E061E041E00E94E70D80E0F8
:103A800062E041E00E94E70D80E063E041E00E94D7
:103A9000E70D80E060E041E00E94E00C80E061E042
:103AA00041E00E94E00C80E062E041E00E94E00C16
:103AB00080E063E041E00E94E00CCF91DF91089547
:103AC000DF93CF9300D00F92CDB7DEB78EE289831C
:103AD0001B8239C080E06B8140E00E94E00C1A82BA
:103AE00027C08A81982F9C5F80E0692F0E94EE0E8C
:103AF0008823D9F48B81282F30E08A81482F50E029
:103B0000C901880F991F820F931F840F951FFC0115
:103B1000EF5CFE4F808189838A81982F9C5F80E0D3
:103B2000692F0E94EE0E8823B9F38A818F5F8A8302
:103B30008A818330B0F280E06B8141E00E94E00C2A
:103B40008B818F5F8B838B81843020F289810F90F2
:103B50000F900F90CF91DF910895DF93CF9300D016
:103B600000D0CDB7DEB79C838B831A820E94CA092E
:103B700080E50E94030A81E00E94550A0EC08A81F6
:103B8000282F30E08B819C81FC01E20FF31F8081A4
:103B90000E94550A8A818F5F8A838A81282F30E0AC
:103BA0008B819C81FC01E20FF31F8081882339F710
:103BB0000E94890A0F900F900F900F90CF91DF9184
:103BC00008950F931F93DF93CF9300D000D0CDB70C
:103BD000DEB79C838B831A820E94CA0980E50E940B
:103BE000030A81E00E94550A16C00E94CA0980E5B6
:103BF0000E942C0A8A81282F30E08B819C818C01C5
:103C0000020F131F0E946F0AF80180830E94890A25
:103C10008A818F5F8A838A81843039F78A81282F4D
:103C200030E08B819C81FC01E20FF31F10820F902A
:103C30000F900F900F90CF91DF911F910F910895EA
:103C4000DF93CF93CDB7DEB72D970FB6F894DEBFD5
:103C50000FBECDBF9D878C87188619861A861B8656
:103C60001C821D821E821F821B8281E08A83198230
:103C700029C088859985AA85BB852AE030E040E087
:103C800050E0BC01CD010E94F31FAB01BC01898152
:103C9000282F30E08C859D85FC01E20FF31F808189
:103CA000882F90E0A0E0B0E0840F951FA61FB71FFB
:103CB000C097A109B10988879987AA87BB8789819D
:103CC0008F5F898389818830A0F246C08885998575
:103CD000AA85BB852AE030E040E050E0BC01CD0180
:103CE0000E942620DC01CB018B8388859985AA85DB
:103CF000BB852AE030E040E050E0BC01CD010E94ED
:103D00002620DA01C90188879987AA87BB878B811A
:103D1000282F30E08A81882F90E0AC01249FC001D9
:103D2000259F900D349F900D11249C01442737FD51
:103D30004095542F8C819D81AE81BF81820F931F4E
:103D4000A41FB51F8C839D83AE83BF838A81882F78
:103D500090E0880F991F8A8388859985AA85BB85FD
:103D60000097A105B10509F0B1CF8C812D960FB652
:103D7000F894DEBF0FBECDBFCF91DF910895DF93E2
:103D8000CF93CDB7DEB70E9498060E94A6090E9485
:103D9000AA0883E062E040E00E94E70DCF91DF9146
:103DA0000895DF93CF9300D00F92CDB7DEB79B83FA
:103DB0008A8380E690E00E94A3058A819B810E940D
:103DC000D00589E790E00E94A3058A819B810E942B
:103DD000D0058A819B810E94AD1D87E890E00E94FA
:103DE000A3058A819B810E94D0058A819B810E94C4
:103DF000AD1D88E990E00E94A3050E9432098983E5
:103E0000EFE2F0E080E3808386EB90E00E94A30580
:103E10000F900F900F90CF91DF910895DF93CF9384
:103E200000D000D000D0CDB7DEB79E838D8385EC67
:103E300090E09C838B831A8219828D819E810E94DF
:103E4000E11D0E945E0789EC90E00E94A3051A82A2
:103E50008AE491E025EC30E0B9010E94631F8823D9
:103E600079F48AE491E00E94A30510924A01269613
:103E70000FB6F894DEBF0FBECDBFCF91DF9108958E
:103E80000E94E40889838981863629F4EFE2F0E014
:103E900081E38083DCCF89818037C9F60FC0AFE230
:103EA000B0E08A81282F30E08D819E81FC01E20FF5
:103EB000F31F80818C938A818F5F8A830E94E4083C
:103EC000803769F3C4CFDF93CF9300D000D000D008
:103ED000CDB7DEB79C838B837E836D831A82198274
:103EE0001AC08A81282F30E08B819C81FC01E20F6F
:103EF000F31F40818A81282F30E08D819E81FC0153
:103F0000E20FF31F8081481719F081E0898319C0FF
:103F10008A818F5F8A838A81282F30E08B819C8100
:103F2000FC01E20FF31F80818823D9F68A81282FB4
:103F300030E08D819E81FC01E20FF31F8081882398
:103F400081F6898126960FB6F894DEBF0FBECDBFED
:103F5000CF91DF910895DF93CF93CDB7DEB7EB9785
:103F60000FB6F894DEBF0FBECDBF82EF90E09C830A
:103F70008B8388EF90E09A8389830E94BF1E8AE436
:103F800091E00E94BC070E9488078DEF90E00E949C
:103F9000A305CE0105960E94D005CE0105962B8182
:103FA0003C81B9010E94631F882339F410924901B2
:103FB000CE0105960E94D11EE6CFCE01059629813D
:103FC0003A81B9010E94631F882341F481E0809304
:103FD0004901CE0105960E940E1FD5CF8BE191E0DD
:103FE0000E94A305D0CF629FD001739FF001829FF2
:103FF000E00DF11D649FE00DF11D929FF00D839F78
:10400000F00D749FF00D659FF00D9927729FB00D14
:10401000E11DF91F639FB00DE11DF91FBD01CF0127
:1040200011240895AA1BBB1B51E107C0AA1FBB1F87
:10403000A617B70710F0A61BB70B881F991F5A9534
:10404000A9F780959095BC01CD010895A1E21A2EA3
:10405000AA1BBB1BFD010DC0AA1FBB1FEE1FFF1F2C
:10406000A217B307E407F50720F0A21BB30BE40B7C
:10407000F50B661F771F881F991F1A9469F76095C3
:104080007095809590959B01AC01BD01CF0108957D
:104090002F923F924F925F926F927F928F929F9258
:1040A000AF92BF92CF92DF92EF92FF920F931F9346
:1040B000CF93DF93CDB7DEB7CA1BDB0B0FB6F894F7
:1040C000DEBF0FBECDBF09942A88398848885F8437
:1040D0006E847D848C849B84AA84B984C884DF80A8
:1040E000EE80FD800C811B81AA81B981CE0FD11D8C
:1040F0000FB6F894DEBF0FBECDBFED010895F89462
:02410000FFCFEF
:10410200456E746572204361726420486F6C646509
:1041120072204E616D653A200043617264204E75D3
:104122006D6265723A2000456E746572205061734B
:104132007377726F643A200066696E697368696E9C
:10414200672073657475702074686520636172649A
:104152002E2E2E2E200073657475702066696E698E
:10416200736865640059455300696620796F75204C
:1041720077616E7420746F206368616E6765207466
:104182006865206D6F646520707265737320594590
:10419200530041444D494E005553455200796F75C5
:1041A2002077616E742075736572206F722061646E
:1041B2006D696E206D6F6465203F0057726F6E6788
:1041C20020456E74657200000000000000000001CE
:0E41D200013132333435363738392A30230084
:00000001FF
