:100000000C942A000C941C0C0C944F0C0C94820C35
:100010000C9447000C9447000C9447000C94470044
:100020000C9447000C9447000C9447000C94470034
:100030000C9447000C9444080C9447000C94F4076B
:100040000C9447000C9447000C9447000C94470014
:100050000C94470011241FBECFE5D8E0DEBFCDBF12
:1000600010E0A0E6B0E0E4E8F0E402C005900D92F4
:10007000AE3CB107D9F710E0AEECB0E001C01D9284
:10008000AA3DB107E1F70E94691F0C9440200C942F
:100090000000EF92FF920F931F937B018C0120E0F1
:1000A00030E040E05FE40E94490388238CF0C801FF
:1000B000B70120E030E040E05FE40E94C1010E940F
:1000C000A9039B01AC01205030404040504806C07D
:1000D000C801B7010E94A9039B01AC01B901CA0183
:1000E0001F910F91FF90EF900895A0E0B0E0EBE733
:1000F000F0E00C940920DC012B01FA019C91923074
:1001000008F439C1EB018881823008F433C194309E
:1001100069F4843009F02FC111969C91119789815F
:10012000981709F428C1A7EBB0E025C1843009F481
:1001300021C18230A9F4923009F01DC19A01AD01AC
:1001400088E0EA010990AE01E90109929E0181501F
:10015000C1F7E201898111969C918923818308C1AD
:10016000923009F407C112962D903C901397EB0141
:100170008A819B811496AD90BD90CD90DC901797AD
:10018000EC80FD800E811F819101281B390BB90184
:1001900037FF04C066277727621B730B6032710537
:1001A0000CF061C0121613066CF537014801062EDB
:1001B00004C096948794779467940A94D2F721E0C8
:1001C00030E040E050E004C0220F331F441F551FB1
:1001D0006A95D2F721503040404050402E213F21B7
:1001E00040235123211531054105510521F021E01E
:1001F00030E040E050E079018A01E628F72808293C
:1002000019293CC0232BD1F1260E371E350146019A
:10021000062E04C096948794779467940A94D2F734
:1002200021E030E040E050E004C0220F331F441FC3
:10023000551F6A95D2F721503040404050402A2146
:100240003B214C215D21211531054105510521F04E
:1002500021E030E040E050E059016A01A628B728CB
:10026000C828D9280BC0821593052CF01C01AA249C
:10027000BB24650103C0EE24FF24870111969C91E5
:10028000D20111968C91981709F445C0992339F041
:10029000A80197012A193B094C095D0906C0A6016E
:1002A00095012E193F09400B510B57FD08C01182D3
:1002B0003382228224833583468357831DC081E0A5
:1002C00081833382228288279927DC01821B930B4A
:1002D000A40BB50B84839583A683B7830DC0220F2F
:1002E000331F441F551F24833583468357838281E0
:1002F000938101979383828324813581468157813D
:10030000DA01C9010197A109B1098F5F9F4FAF4F72
:10031000BF4328F30BC0918333822282EA0CFB1C7B
:100320000C1D1D1DE482F5820683178383E0808304
:10033000248135814681578157FF1AC0C901AA27F8
:1003400097FDA095BA2F81709070A070B0705695EF
:10035000479537952795822B932BA42BB52B848318
:100360009583A683B7838281938101969383828349
:10037000DF0101C0D201CD01CDB7DEB7E2E10C94BF
:100380002520A0E2B0E0E7ECF1E00C9415206983B1
:100390007A838B839C832D833E834F835887E9E048
:1003A000EE2EF12CEC0EFD1ECE010196B7010E943F
:1003B000D2048E010F5E1F4FCE010596B8010E9438
:1003C000D2048A8991E089278A8BC701B801AE01DE
:1003D000475E5F4F0E9475000E94FD03A096E6E015
:1003E0000C943120A0E2B0E0E8EFF1E00C9415208D
:1003F00069837A838B839C832D833E834F835887C5
:10040000F9E0EF2EF12CEC0EFD1ECE010196B701A6
:100410000E94D2048E010F5E1F4FCE010596B801D7
:100420000E94D204C701B801AE01475E5F4F0E942F
:1004300075000E94FD03A096E6E00C943120A0E236
:10044000B0E0E5E2F2E00C94092069837A838B83C3
:100450009C832D833E834F835887CE010196BE0136
:10046000675F7F4F0E94D204CE010596BE016F5E8A
:100470007F4F0E94D2049985923088F0898982301A
:10048000C8F0943019F4823051F404C0843029F457
:10049000923081F487EB90E0C6C0923049F420E0BE
:1004A0009A858A89981321E02A87CE010996BBC0D4
:1004B000823049F420E09A858A89981321E02A8BBA
:1004C000CE014196B0C02D843E844F8458886D88FB
:1004D0007E888F88988CEE24FF248701AA24BB2471
:1004E000650140E050E060E070E0E0E0F0E0C10174
:1004F00081709070892BE9F0E60CF71C081D191D1E
:100500009A01AB012A0D3B1D4C1D5D1D80E090E062
:10051000A0E0B0E0E614F7040805190520F481E036
:1005200090E0A0E0B0E0BA01A901480F591F6A1F8E
:100530007B1FAA0CBB1CCC1CDD1C97FE08C081E0F5
:1005400090E0A0E0B0E0A82AB92ACA2ADB2A3196B6
:10055000E032F10549F0660C771C881C991C569412
:10056000479437942794C3CFFA85EA892B893C892D
:100570008B859C85280F391F2E5F3F4F17C0CA01FE
:1005800081709070892B61F016950795F794E79428
:1005900080E090E0A0E0B0E8E82AF92A0A2B1B2BC3
:1005A00076956795579547952F5F3F4F77FDE7CF36
:1005B0000CC0440F551F661F771F17FD4160EE0CDE
:1005C000FF1C001F111F21503040403090E05907A0
:1005D00090E0690790E4790760F32B8F3C8FDB0193
:1005E000CA018F779070A070B07080349105A1051A
:1005F000B10561F447FD0AC0E114F10401051105DC
:1006000029F0405C5F4F6F4F7F4F40781A8EFE1786
:1006100011F081E08A8F4D8F5E8F6F8F78A383E01A
:10062000898FCE0149960E94FD03A096E2E10C94C9
:100630002520A8E1B0E0EFE1F3E00C9415206983F8
:100640007A838B839C832D833E834F83588789E0F5
:10065000E82EF12CEC0EFD1ECE010196B7010E9492
:10066000D2048E010F5E1F4FCE010596B8010E9485
:10067000D2048985823040F08989823028F0C70110
:10068000B8010E944A0501C08FEF6896E6E00C941D
:100690003120A8E1B0E0EFE4F3E00C941520698389
:1006A0007A838B839C832D833E834F83588789E095
:1006B000E82EF12CEC0EFD1ECE010196B7010E9432
:1006C000D2048E010F5E1F4FCE010596B8010E9425
:1006D000D2048985823040F08989823028F0C701B0
:1006E000B8010E944A0501C08FEF6896E6E00C94BD
:1006F0003120A8E1B0E0EFE7F3E00C941520698326
:100700007A838B839C832D833E834F83588789E034
:10071000E82EF12CEC0EFD1ECE010196B7010E94D1
:10072000D2048E010F5E1F4FCE010596B8010E94C4
:10073000D2048985823040F08989823028F0C7014F
:10074000B8010E944A0501C081E06896E6E00C9479
:100750003120ACE0B0E0EFEAF3E00C9419206983BB
:100760007A838B839C83CE010196BE016B5F7F4FA2
:100770000E94D2048D81823061F1823050F1843048
:1007800021F48E81882351F12EC02F81388537FDC9
:1007900020C06E812F3131051CF06623F9F023C093
:1007A0008EE190E0821B930B29853A854B855C8511
:1007B00004C056954795379527958A95D2F76623B5
:1007C000B1F050954095309521953F4F4F4F5F4F79
:1007D0000EC020E030E040E050E009C02FEF3FEFD6
:1007E0004FEF5FE704C020E030E040E050E8B9019F
:1007F000CA012C96E2E00C943520DF92EF92FF9232
:100800000F931F93FC01E480F58006811781D1804E
:100810008081823048F480E090E0A0E1B0E0E82AF6
:10082000F92A0A2B1B2BA5C0843009F49FC0823003
:1008300021F4EE24FF24870105C0E114F104010531
:10084000110519F4E0E0F0E096C0628173819FEF3A
:10085000623879070CF05BC022E83FEF261B370BAC
:100860002A3131052CF020E030E040E050E02AC091
:10087000B801A701022E04C0769567955795479554
:100880000A94D2F781E090E0A0E0B0E004C0880FC5
:10089000991FAA1FBB1F2A95D2F70197A109B10979
:1008A0008E219F21A023B1230097A105B10521F03E
:1008B00081E090E0A0E0B0E09A01AB01282B392B59
:1008C0004A2B5B2BDA01C9018F779070A070B07052
:1008D00080349105A105B10539F427FF09C0205CDA
:1008E0003F4F4F4F5F4F04C0215C3F4F4F4F5F4F13
:1008F000E0E0F0E02030A0E03A07A0E04A07A0E402
:100900005A0710F0E1E0F0E079018A0127C0603871
:10091000710564F5FB01E158FF4FD801C7018F77DE
:100920009070A070B07080349105A105B10539F4C4
:10093000E7FE0DC080E490E0A0E0B0E004C08FE3EB
:1009400090E0A0E0B0E0E80EF91E0A1F1B1F17FFA1
:1009500005C016950795F794E794319687E01695AC
:100960000795F794E7948A95D1F705C0EE24FF2404
:100970008701EFEFF0E06E2F679566276795902F60
:100980009F77D794DD24D7948E2F8695492F462BB9
:10099000582F5D29B701CA011F910F91FF90EF9069
:1009A000DF900895FC01DB01408151812281622F9B
:1009B0006F7770E0221F2227221F9381892F880FD3
:1009C000822B282F30E0991F9927991F11969C930D
:1009D000119721153105A9F54115510561057105DD
:1009E00011F482E037C082E89FEF13969C938E93B8
:1009F00012979A01AB0167E0220F331F441F551F66
:100A00006A95D1F783E08C930DC0220F331F441FEA
:100A1000551F12968D919C911397019713969C9355
:100A20008E931297203080E0380780E0480780E4FA
:100A3000580758F314962D933D934D935C93179755
:100A400008952F3F310579F4411551056105710570
:100A500019F484E08C93089564FF03C081E08C93C3
:100A600012C01C9210C02F57304013963C932E9307
:100A7000129783E08C9387E0440F551F661F771F02
:100A80008A95D1F7706414964D935D936D937C9322
:100A9000179708951F93DC01FB019C91923008F495
:100AA00047C08081823008F443C0943051F41196DD
:100AB0001C91843099F58181682F70E0611B710968
:100AC0003FC0843021F0923031F48230B9F181811D
:100AD000882389F12DC011961C9111978230F1F075
:100AE00081811817D9F412962D913C911397828128
:100AF00093818217930794F028173907BCF0149656
:100B00008D919D910D90BC91A02D248135814681C0
:100B10005781281739074A075B0718F4112341F05A
:100B20000AC082179307A407B50740F4112319F0F0
:100B300061E070E005C06FEF7FEF02C060E070E041
:100B4000CB011F910895DF93CF9300D00F92CDB7C3
:100B5000DEB79B838A83198219820EC08981282F70
:100B600030E08A819B81FC01E20FF31F80810E94AB
:100B7000410789818F5F89838981282F30E08A81AD
:100B80009B81FC01E20FF31F8081882339F78DE000
:100B90000E9441070F900F900F90CF91DF91089521
:100BA0000F931F93DF93CF9300D00F92CDB7DEB793
:100BB0009B838A8319828981282F30E08A819B81D7
:100BC0008C01020F131F0E946B07F80180830FC076
:100BD00089818F5F89838981282F30E08A819B8179
:100BE0008C01020F131F0E946B07F801808389811B
:100BF000282F30E08A819B81FC01E20FF31F808166
:100C00008D3031F78981282F30E08A819B81FC016A
:100C1000E20FF31F10820F900F900F90CF91DF9192
:100C20001F910F910895DF93CF9300D000D0CDB7DF
:100C3000DEB79C838B8319821A82CE0102960E94B2
:100C40007A078823C1F08981282F30E08B819C812D
:100C5000FC01E20FF31F8A81808389818F5F898382
:100C60008981282F30E08B819C81FC01E20FF31FEA
:100C700080818E3011F78981882F90E09C0121506E
:100C800030408B819C81FC01E20FF31F10820F909A
:100C90000F900F900F90CF91DF910895DF93CF9336
:100CA00000D000D0CDB7DEB769837A838B839C8375
:100CB00089810E94410789819A81AB81BC81892FFA
:100CC0009A2FAB2FBB270E94410789819A81AB8164
:100CD000BC81CD01AA27BB270E94410789819A8147
:100CE000AB81BC818B2F9927AA27BB270E94410784
:100CF0000F900F900F900F90CF91DF910895DF9399
:100D0000CF93CDB7DEB728970FB6F894DEBF0FBEEE
:100D1000CDBF0E946B0788870E946B078F830E945C
:100D20006B078E830E946B078D838885282F30E0A8
:100D300040E050E08F81882F90E0A0E0B0E0BA2F33
:100D4000A92F982F8827282B392B4A2B5B2B8E8194
:100D5000882F90E0A0E0B0E0DC0199278827282BBD
:100D6000392B4A2B5B2B8D81882F90E0A0E0B0E0DF
:100D7000B82FAA2799278827822B932BA42BB52B32
:100D800089839A83AB83BC8389819A81AB81BC813F
:100D9000BC01CD0128960FB6F894DEBF0FBECDBFC3
:100DA000CF91DF910895DF93CF930F92CDB7DEB748
:100DB00081E08983A0E4B0E0E0E4F0E080818F7717
:100DC0008C93E0E4F0E01082E9E2F0E083E38083DA
:100DD000ABE2B0E0EBE2F0E080818D7F8C93A0E4A9
:100DE000B0E0E0E4F0E0808180688C93A0E4B0E0C3
:100DF000E0E4F0E08081877F8C93A0E4B0E0E0E461
:100E0000F0E0808180688C93A0E4B0E0E0E4F0E062
:100E100080818F7E8C93A0E4B0E0E0E4F0E08081FC
:100E20008F7D8C93A0E4B0E0E0E4F0E08081806806
:100E30008C93A0E4B0E0E0E4F0E0808182608C93E9
:100E4000A0E4B0E0E0E4F0E0808184608C93AAE26A
:100E5000B0E0EAE2F0E080818B7F8C93AAE2B0E020
:100E6000EAE2F0E0808180618C93AAE2B0E0EAE2FD
:100E7000F0E0808188608C9389810F90CF91DF9121
:100E80000895DF93CF930F92CDB7DEB78983EBE25E
:100E9000F0E08081829586958770882F90E0817040
:100EA00090700097A1F3ECE2F0E08981808381E00B
:100EB0000F90CF91DF910895DF93CF930F92CDB72D
:100EC000DEB78983ECE2F0E08981808381E00F90D6
:100ED000CF91DF910895DF93CF93CDB7DEB7EBE2EB
:100EE000F0E080818823DCF7ECE2F0E08081CF91B4
:100EF000DF910895DF93CF9300D00F92CDB7DEB787
:100F00009B838A831982EBE2F0E08081882344F49A
:100F1000ECE2F0E08081EA81FB81808381E08983DB
:100F200089810F900F900F90CF91DF910895DF93FB
:100F3000CF93CDB7DEB7AAE2B0E0EAE2F0E080817D
:100F400080648C93AFE5B0E0EFE5F0E080818068ED
:100F50008C93CF91DF910895DF93CF93CDB7DEB718
:100F6000AAE2B0E0EAE2F0E0808180688C93AFE52D
:100F7000B0E0EFE5F0E0808180688C93CF91DF9165
:100F80000895DF93CF9300D0CDB7DEB79A838983DE
:100F90008091BF00813079F4E981FA8180810E94DB
:100FA0005C070E94970789819A819093CF00809374
:100FB000CE001092BF000F900F90CF91DF91089557
:100FC000DF93CF9300D0CDB7DEB79A8389830E9499
:100FD000AC0789819A819093D1008093D0000F90C3
:100FE0000F90CF91DF9108951F920F920FB60F923D
:100FF00011242F933F934F935F936F937F938F931E
:101000009F93AF93BF93EF93FF93DF93CF93CDB7AE
:10101000DEB72091CE003091CF008091C000882FA4
:1010200090E0F901E80FF91F80818823A1F0209159
:10103000CE003091CF008091C000882F90E0F90160
:10104000E80FF91F80810E945C078091C0008F5FCC
:101050008093C00006C081E08093C00081E080934F
:10106000BF00CF91DF91FF91EF91BF91AF919F9121
:101070008F917F916F915F914F913F912F910F9041
:101080000FBE0F901F9018951F920F920FB60F92E0
:1010900011242F933F934F935F936F937F938F937D
:1010A0009F93AF93BF93EF93FF93DF93CF93CDB70E
:1010B000DEB72091D0003091D1008091D200882FEE
:1010C00090E0F901E80FF91F8081882F90E00E94DD
:1010D0007A07882329F08091D2008F5F8093D20015
:1010E0008091D200833610F01092D200CF91DF9120
:1010F000FF91EF91BF91AF919F918F917F916F91F0
:101100005F914F913F912F910F900FBE0F901F90C5
:101110001895DF93CF93CDB7DEB7A7E3B0E0E7E351
:10112000F0E0808180618C93A7E3B0E0E7E3F0E03A
:10113000808180628C93A7E3B0E0E7E3F0E08081F8
:101140008F7B8C93A7E3B0E0E7E3F0E080818068D9
:101150008C93EDE2F0E080E58083CF91DF910895FC
:10116000DF93CF93CDB7DEB7A7E3B0E0E7E3F0E0DE
:1011700080818F7E8C93A7E3B0E0E7E3F0E080818D
:101180008F7D8C93A7E3B0E0E7E3F0E0808180649B
:101190008C93A7E3B0E0E7E3F0E080818F778C9356
:1011A000EDE2F0E080E48083CF91DF910895DF935A
:1011B000CF930F92CDB7DEB78983EFE2F0E089815C
:1011C0008083EEE2F0E080818823DCF70F90CF91FE
:1011D000DF910895DF93CF93CDB7DEB7EEE2F0E075
:1011E00080818823DCF7EFE2F0E08081CF91DF910E
:1011F0000895DF93CF9300D00F92CDB7DEB79B83D6
:101200008A8319820EC08981282F30E08A819B81D0
:10121000FC01E20FF31F80810E94D70889818F5F54
:1012200089838981282F30E08A819B81FC01E20F2C
:10123000F31F8081882339F78981282F30E08A8144
:101240009B81FC01E20FF31F8DE080838981882F51
:1012500090E09C012F5F3F4F8A819B81FC01E20F50
:10126000F31F10820F900F900F90CF91DF91089590
:101270000F931F93DF93CF9300D00F92CDB7DEB7BC
:101280009B838A8319828981282F30E08A819B8100
:101290008C01020F131F0E94EA08F80180830FC01F
:1012A00089818F5F89838981282F30E08A819B81A2
:1012B0008C01020F131F0E94EA08F80180838981C4
:1012C000282F30E08A819B81FC01E20FF31F80818F
:1012D0008D3031F78981282F30E08A819B81FC0194
:1012E000E20FF31F10820F900F900F90CF91DF91BC
:1012F0001F910F910895DF93CF93CDB7DEB7A1E291
:10130000B0E0E1E2F0E080818E7F8C93A1E2B0E07A
:10131000E1E2F0E080818D7F8C93E0E2F0E080E21A
:101320008083A6E5B0E0E6E5F0E0808184608C9300
:10133000E2E2F0E087E08083CF91DF910895DF93D0
:10134000CF93CDB7DEB7A6E5B0E0E6E5F0E080816B
:1013500080628C93A6E5B0E0E6E5F0E080818068ED
:101360008C93E6E5F0E080818823DCF7CF91DF9174
:101370000895DF93CF93CDB7DEB7E0E2F0E080E2EF
:101380008083E2E2F0E082E08083A6E5B0E0E6E57B
:10139000F0E0808180648C93A6E5B0E0E6E5F0E0C3
:1013A000808184608C930E94440ACF91DF910895DC
:1013B000DF93CF930F92CDB7DEB78983E3E2F0E0FE
:1013C0008981880F8083A3E2B0E0E3E2F0E08081CE
:1013D0008E7F8C93A6E5B0E0E6E5F0E080818F7D1E
:1013E0008C93A6E5B0E0E6E5F0E0808180688C9320
:1013F000E6E5F0E080818823DCF70F90CF91DF9164
:101400000895DF93CF930F92CDB7DEB78983E3E2E0
:10141000F0E08981880F8083A3E2B0E0E3E2F0E0AE
:10142000808181608C93A6E5B0E0E6E5F0E0808104
:101430008F7D8C93A6E5B0E0E6E5F0E080818068E2
:101440008C93E6E5F0E080818823DCF70F90CF9164
:10145000DF910895DF93CF930F92CDB7DEB78983E5
:10146000E3E2F0E089818083A6E5B0E0E6E5F0E024
:10147000808180688C93E6E5F0E080818823DCF74A
:101480000F90CF91DF910895DF93CF930F92CDB757
:10149000DEB7A6E5B0E0E6E5F0E0808180688C93F9
:1014A000E6E5F0E080818823DCF7E3E2F0E080818C
:1014B000898389810F90CF91DF910895DF93CF9336
:1014C000CDB7DEB7A6E5B0E0E6E5F0E0808180616B
:1014D0008C93A6E5B0E0E6E5F0E0808184608C9333
:1014E000A6E5B0E0E6E5F0E0808180688C93CF91DE
:1014F000DF910895DF93CF9300D000D0CDB7DEB752
:101500008A8319828A81282F30E03C832B838B8148
:101510009C8181309105C1F02B813C8122303105C5
:1015200011F18B819C81009769F5ABE5B0E0EBE5AB
:10153000F0E0808180648C93AFE5B0E0EFE5F0E00F
:10154000808180688C9320C0ABE5B0E0EBE5F0E0F3
:10155000808180688C93AFE5B0E0EFE5F0E08081BA
:1015600080688C9311C0ABE5B0E0EBE5F0E08081E2
:1015700080628C93AFE5B0E0EFE5F0E080818068B9
:101580008C9302C081E0898389810F900F900F9026
:101590000F90CF91DF910895DF93CF9300D000D0CB
:1015A000CDB7DEB78A8319828A81282F30E03C8349
:1015B0002B838B819C8181309105C1F02B813C81F3
:1015C0002230310511F18B819C81009769F5ABE5E3
:1015D000B0E0EBE5F0E080818F7B8C93AFE5B0E08D
:1015E000EFE5F0E080818F778C9320C0ABE5B0E031
:1015F000EBE5F0E080818F778C93AFE5B0E0EFE52D
:10160000F0E080818F778C9311C0ABE5B0E0EBE523
:10161000F0E080818F7D8C93AFE5B0E0EFE5F0E006
:1016200080818F778C9302C081E0898389810F90BC
:101630000F900F900F90CF91DF910895DF93CF938C
:10164000CDB7DEB729970FB6F894DEBF0FBECDBF7A
:101650008A836B8319828A81282F30E03987288713
:101660008885998581309105D9F028853985223082
:10167000310509F473C088859985009709F091C0F8
:10168000A5E5B0E0E5E5F0E080818C7F8C93A5E5F1
:10169000B0E0E5E5F0E090818B81892B8C9383C0ED
:1016A0008B81282F30E03F832E838E819F81813074
:1016B000910521F12E813F81223031052CF48E815C
:1016C0009F81009761F047C02E813F812230310514
:1016D00021F18E819F818330910571F13CC0A5E598
:1016E000B0E0E5E5F0E080818B7F8C93A5E5B0E08C
:1016F000E5E5F0E08081877F8C9355C0A5E5B0E0FB
:10170000E5E5F0E0808184608C93A5E5B0E0E5E557
:10171000F0E08081877F8C9346C0A5E5B0E0E5E5E9
:10172000F0E080818B7F8C93A5E5B0E0E5E5F0E00B
:10173000808188608C9337C0A5E5B0E0E5E5F0E0F6
:10174000808184608C93A5E5B0E0E5E5F0E08081E0
:1017500088608C9328C081E0898325C08B81282FE5
:1017600030E03D832C838C819D818230910531F066
:101770002C813D812330310549F010C0A4E5B0E053
:10178000E4E5F0E080818F7B8C930DC0A4E5B0E0B0
:10179000E4E5F0E0808180648C9305C081E089837A
:1017A00002C081E08983898129960FB6F894DEBF53
:1017B0000FBECDBFCF91DF910895DF93CF9300D0BF
:1017C00000D000D0CDB7DEB78A837C836B831982CB
:1017D0008A81282F30E03E832D838D819E81813048
:1017E000910581F02D813E812230310591F08D816E
:1017F0009E810097A9F48B819C819093D400809363
:10180000D30010C08B819C819093D6008093D5002B
:1018100009C08B819C819093D8008093D70002C02F
:1018200081E08983898126960FB6F894DEBF0FBECA
:10183000CDBFCF91DF9108951F920F920FB60F92F7
:1018400011242F933F934F935F936F937F938F93C5
:101850009F93AF93BF93EF93FF93DF93CF93CDB756
:10186000DEB78091D3009091D400009729F0E091E9
:10187000D300F091D4000995CF91DF91FF91EF91C2
:10188000BF91AF919F918F917F916F915F914F9198
:101890003F912F910F900FBE0F901F9018951F92A0
:1018A0000F920FB60F9211242F933F934F935F9394
:1018B0006F937F938F939F93AF93BF93EF93FF9318
:1018C000DF93CF93CDB7DEB78091D5009091D6004E
:1018D000009729F0E091D500F091D6000995CF91BD
:1018E000DF91FF91EF91BF91AF919F918F917F9188
:1018F0006F915F914F913F912F910F900FBE0F907D
:101900001F9018951F920F920FB60F9211242F93CC
:101910003F934F935F936F937F938F939F93AF9377
:10192000BF93EF93FF93DF93CF93CDB7DEB7809153
:10193000D7009091D800009729F0E091D700F0915E
:10194000D8000995CF91DF91FF91EF91BF91AF91B1
:101950009F918F917F916F915F914F913F912F91C7
:101960000F900FBE0F901F901895DF93CF93CDB7B8
:10197000DEB728970FB6F894DEBF0FBECDBF8A83BF
:101980006B834C8381E089838C81882309F076C046
:101990008A81282F30E038872F838F819885813086
:1019A000910559F12F813885223031052CF48F8132
:1019B0009885009769F060C02F8138852230310505
:1019C00089F18F8198858330910509F440C054C016
:1019D000ABE3B0E0EBE3F0E08081482F8B81282F70
:1019E00030E081E090E0022E02C0880F991F0A9437
:1019F000E2F7809584238C93B5C0A8E3B0E0E8E3D8
:101A0000F0E08081482F8B81282F30E081E090E04A
:101A1000022E02C0880F991F0A94E2F78095842352
:101A20008C93A0C0A5E3B0E0E5E3F0E08081482F0F
:101A30008B81282F30E081E090E0022E02C0880FD9
:101A4000991F0A94E2F7809584238C938BC0A2E3BC
:101A5000B0E0E2E3F0E08081482F8B81282F30E076
:101A600081E090E0022E02C0880F991F0A94E2F7ED
:101A7000809584238C9376C0198274C08C818130C8
:101A800009F070C08A81282F30E03E832D838D813C
:101A90009E818130910549F12D813E8122303105B1
:101AA0002CF48D819E81009761F05BC02D813E8179
:101AB0002230310571F18D819E8183309105E9F1EC
:101AC00050C0ABE3B0E0EBE3F0E08081482F8B81C6
:101AD000282F30E081E090E0022E02C0880F991F8D
:101AE0000A94E2F7842B8C933DC0A8E3B0E0E8E3CE
:101AF000F0E08081482F8B81282F30E081E090E05A
:101B0000022E02C0880F991F0A94E2F7842B8C934F
:101B100029C0A5E3B0E0E5E3F0E08081482F8B81A8
:101B2000282F30E081E090E0022E02C0880F991F3C
:101B30000A94E2F7842B8C9315C0A2E3B0E0E2E3B1
:101B4000F0E08081482F8B81282F30E081E090E009
:101B5000022E02C0880F991F0A94E2F7842B8C93FF
:101B600001C01982898128960FB6F894DEBF0FBE96
:101B7000CDBFCF91DF910895DF93CF93CDB7DEB77F
:101B800028970FB6F894DEBF0FBECDBF8A836B8354
:101B90004C8381E089838C81882309F076C08A8117
:101BA000282F30E038872F838F81988581309105E9
:101BB00059F12F813885223031052CF48F81988599
:101BC000009769F060C02F8138852230310589F196
:101BD0008F8198858330910509F440C054C0AAE3F1
:101BE000B0E0EAE3F0E08081482F8B81282F30E0DD
:101BF00081E090E0022E02C0880F991F0A94E2F75C
:101C0000809584238C93B5C0A7E3B0E0E7E3F0E0D0
:101C10008081482F8B81282F30E081E090E0022ED8
:101C200002C0880F991F0A94E2F7809584238C9351
:101C3000A0C0A4E3B0E0E4E3F0E08081482F8B8112
:101C4000282F30E081E090E0022E02C0880F991F1B
:101C50000A94E2F7809584238C938BC0A1E3B0E0D3
:101C6000E1E3F0E08081482F8B81282F30E081E094
:101C700090E0022E02C0880F991F0A94E2F7809527
:101C800084238C9376C0198274C08C81813009F0D2
:101C900070C08A81282F30E03E832D838D819E8104
:101CA0008130910549F12D813E81223031052CF49E
:101CB0008D819E81009761F05BC02D813E81223035
:101CC000310571F18D819E8183309105E9F150C01C
:101CD000AAE3B0E0EAE3F0E08081482F8B81282F6F
:101CE00030E081E090E0022E02C0880F991F0A9434
:101CF000E2F7842B8C933DC0A7E3B0E0E7E3F0E08C
:101D00008081482F8B81282F30E081E090E0022EE7
:101D100002C0880F991F0A94E2F7842B8C9329C084
:101D2000A4E3B0E0E4E3F0E08081482F8B81282F2A
:101D300030E081E090E0022E02C0880F991F0A94E3
:101D4000E2F7842B8C9315C0A1E3B0E0E1E3F0E06F
:101D50008081482F8B81282F30E081E090E0022E97
:101D600002C0880F991F0A94E2F7842B8C9301C05C
:101D70001982898128960FB6F894DEBF0FBECDBFB9
:101D8000CF91DF910895DF93CF9300D000D00F92D1
:101D9000CDB7DEB78A836B838A81282F30E03D83FD
:101DA0002C834C815D814130510541F18C819D81B5
:101DB0008230910534F42C813D812115310561F08B
:101DC00052C04C815D814230510551F18C819D8121
:101DD00083309105B9F147C0E9E3F0E08081282F15
:101DE00030E08B81882F90E0A90102C0559547957E
:101DF0008A95E2F7CA018170898335C0E6E3F0E095
:101E00008081282F30E08B81882F90E0A90102C0CB
:101E1000559547958A95E2F7CA018170898323C059
:101E2000E3E3F0E08081282F30E08B81882F90E081
:101E3000A90102C0559547958A95E2F7CA018170BC
:101E4000898311C0E0E3F0E08081282F30E08B81AE
:101E5000882F90E0A90102C0559547958A95E2F731
:101E6000CA018170898389810F900F900F900F9024
:101E70000F90CF91DF910895DF93CF9300D000D0E2
:101E80000F92CDB7DEB78A836B8381E089838A8125
:101E9000282F30E03D832C838C819D8181309105FA
:101EA00049F12C813D81223031052CF48C819D81BA
:101EB000009761F05BC02C813D812230310571F1CA
:101EC0008C819D8183309105E9F150C0ABE3B0E096
:101ED000EBE3F0E08081482F8B81282F30E081E018
:101EE00090E0022E02C0880F991F0A94E2F784271F
:101EF0008C933DC0A8E3B0E0E8E3F0E08081482F98
:101F00008B81282F30E081E090E0022E02C0880F04
:101F1000991F0A94E2F784278C9329C0A5E3B0E0C7
:101F2000E5E3F0E08081482F8B81282F30E081E0CD
:101F300090E0022E02C0880F991F0A94E2F78427CE
:101F40008C9315C0A2E3B0E0E2E3F0E08081482F7B
:101F50008B81282F30E081E090E0022E02C0880FB4
:101F6000991F0A94E2F784278C9301C01982898112
:101F70000F900F900F900F900F90CF91DF910895D9
:101F8000DF93CF9300D000D00F92CDB7DEB78A8316
:101F90006B8381E089838A81282F30E03D832C8305
:101FA0008C819D8181309105D1F02C813D81223041
:101FB00031052CF48C819D81009761F01FC02C812C
:101FC0003D812230310581F08C819D8183309105E6
:101FD00081F014C0EBE3F0E08B81808310C0E8E374
:101FE000F0E08B8180830BC0E5E3F0E08B818083A0
:101FF00006C0E2E3F0E08B81808301C01982898111
:102000000F900F900F900F900F90CF91DF91089548
:10201000DF93CF9300D000D00F92CDB7DEB78A8385
:102020006B8381E089838A81282F30E03D832C8374
:102030008C819D8181309105D1F02C813D812230B0
:1020400031052CF48C819D81009761F01FC02C819B
:102050003D812230310581F08C819D818330910555
:1020600081F014C0EAE3F0E08B81808310C0E7E3E5
:10207000F0E08B8180830BC0E4E3F0E08B81808310
:1020800006C0E1E3F0E08B81808301C01982898181
:102090000F900F900F900F900F90CF91DF910895B8
:1020A000DF93CF9300D000D00F92CDB7DEB78A83F5
:1020B0006B8381E089838A81282F30E03D832C83E4
:1020C0008C819D818130910509F43EC02C813D8138
:1020D000223031052CF48C819D81009771F0A9C0CC
:1020E0002C813D812230310509F455C08C819D81C0
:1020F0008330910509F476C09CC0AAE3B0E0EAE31E
:10210000F0E08081482F8B81282F30E081E090E043
:1021100002C0880F991F2A95E2F7809584238C933B
:10212000ABE3B0E0EBE3F0E08081482F8B81282F18
:1021300030E081E090E0022E02C0880F991F0A94DF
:10214000E2F7842B8C9376C0A7E3B0E0E7E3F0E0FE
:102150008081482F8B81282F30E081E090E002C001
:10216000880F991F2A95E2F7809584238C93A8E322
:10217000B0E0E8E3F0E08081482F8B81282F30E049
:1021800081E090E0022E02C0880F991F0A94E2F7C6
:10219000842B8C934FC0A4E3B0E0E4E3F0E08081B3
:1021A000482F8B81282F30E081E090E002C0880F1B
:1021B000991F2A95E2F7809584238C93A5E3B0E0DC
:1021C000E5E3F0E08081482F8B81282F30E081E02B
:1021D00090E0022E02C0880F991F0A94E2F7842B28
:1021E0008C9328C0A1E3B0E0E1E3F0E08081482FC8
:1021F0008B81282F30E081E090E002C0880F991F8A
:102200002A95E2F7809584238C93A2E3B0E0E2E381
:10221000F0E08081482F8B81282F30E081E090E032
:10222000022E02C0880F991F0A94E2F7842B8C9328
:1022300001C0198289810F900F900F900F900F901D
:10224000CF91DF910895DF93CF93CDB7DEB781E0D3
:1022500060E041E00E94BC0D81E062E041E00E944C
:10226000BC0D81E063E041E00E94BC0D81E064E0D0
:1022700041E00E94BC0D81E065E041E00E94BC0DA0
:1022800081E063E041E00E94BC0D83E065E041E055
:102290000E94BC0D83E066E041E00E94BC0D83E03B
:1022A00063E041E00E94BC0D83E065E041E00E94F4
:1022B000B50C83E066E040E00E94B50CCF91DF9161
:1022C0000895DF93CF9300D0CDB7DEB789836A83BB
:1022D0008981813081F481E060E041E00E94B50CA9
:1022E00081E062E040E00E94B50C81E063E041E003
:1022F0000E94B50C0DC08981882351F481E062E011
:1023000040E00E94B50C81E062E040E00E94B50C24
:102310008A81813081F481E064E041E00E94B50C63
:1023200081E065E040E00E94B50C81E063E041E0BF
:102330000E94B50C0DC08A81882351F481E065E0CC
:1023400040E00E94B50C81E065E040E00E94B50CE1
:102350000F900F90CF91DF910895DF93CF9300D02E
:10236000CDB7DEB789836A838981813081F481E0CA
:1023700060E040E00E94B50C81E062E041E00E9434
:10238000B50C81E063E041E00E94B50C0DC089818D
:10239000882351F481E060E040E00E94B50C81E0C8
:1023A00062E040E00E94B50C8A81813081F481E0D6
:1023B00064E040E00E94B50C81E065E041E00E94ED
:1023C000B50C81E063E041E00E94B50C0DC08A814C
:1023D000882351F481E064E040E00E94B50C81E084
:1023E00065E040E00E94B50C0F900F90CF91DF9117
:1023F0000895DF93CF93CDB7DEB781E060E040E092
:102400000E94B50C81E062E040E00E94B50C81E0E2
:1024100064E040E00E94B50C81E065E040E00E948D
:10242000B50C81E063E040E00E94B50CCF91DF91F4
:1024300008950F931F93DF93CF93CDB7DEB7C057A7
:10244000D0400FB6F894DEBF0FBECDBFFE01E359FA
:10245000FF4F80E090E0A0E2B2E480839183A2830A
:10246000B3838E0107591F4FFE01E359FF4F60816F
:1024700071818281938120E030E04AEF54E40E9430
:102480001F02DC01CB01F80180839183A283B38317
:10249000FE01E759FF4F608171818281938120E0C5
:1024A00030E040E85FE30E947903882344F4FE01B2
:1024B000E959FF4F81E090E09183808364C0FE0181
:1024C000E759FF4F608171818281938120E03FEF66
:1024D0004FE757E40E94190318160CF043C0FE01A1
:1024E000E359FF4F608171818281938120E030E068
:1024F00040E251E40E941F02DC01CB018E01095928
:102500001F4FBC01CD010E944900DC01CB01F80145
:10251000918380831FC0FE01EB59FF4F88EC90E050
:1025200091838083FE01EB59FF4F80819181019758
:10253000F1F7FE01EB59FF4F91838083DE01A9592A
:10254000BF4FFE01E959FF4F80819181019711969C
:102550009C938E93FE01E959FF4F808191810097F2
:10256000D1F627C08E0109591F4FFE01E759FF4FD1
:1025700060817181828193810E944900DC01CB01DD
:10258000F80191838083DE01AD59BF4FFE01E95907
:10259000FF4F808191818D939C93FE01ED59FF4FF8
:1025A000808191810197F1F7FE01ED59FF4F9183F1
:1025B000808382E060E041E00E94BC0D82E062E046
:1025C00041E00E94BC0D82E061E041E00E94BC0D50
:1025D000FE01E15AFF4F80E090E0A0EAB0E4808382
:1025E0009183A283B3838E01055A1F4FFE01E15AE6
:1025F000FF4F608171818281938120E030E04AEF5A
:1026000054E40E941F02DC01CB01F8018083918316
:10261000A283B383FE01E55AFF4F608171818281FD
:10262000938120E030E040E85FE30E947903882353
:1026300044F4FE01E75AFF4F81E090E091838083EC
:1026400064C0FE01E55AFF4F6081718182819381F0
:1026500020E03FEF4FE757E40E94190318160CF0F3
:1026600043C0FE01E15AFF4F6081718182819381F5
:1026700020E030E040E251E40E941F02DC01CB0187
:102680008E01075A1F4FBC01CD010E944900DC0199
:10269000CB01F801918380831FC0FE01E95AFF4FEF
:1026A00088EC90E091838083FE01E95AFF4F80819E
:1026B00091810197F1F7FE01E95AFF4F91838083E1
:1026C000DE01A75ABF4FFE01E75AFF4F808191817B
:1026D000019711969C938E93FE01E75AFF4F8081DC
:1026E00091810097D1F627C08E01075A1F4FFE0136
:1026F000E55AFF4F60817181828193810E94490078
:10270000DC01CB01F80191838083DE01AB5ABF4F1E
:10271000FE01E75AFF4F808191818D939C93FE01CA
:10272000EB5AFF4F808191810197F1F7FE01EB5A3F
:10273000FF4F9183808382E06FEF0E94081083E354
:102740000E94BD16FE01EF5AFF4F80E090E0A0E02E
:10275000B0E480839183A283B3838E01035B1F4F18
:10276000FE01EF5AFF4F608171818281938120E0E9
:1027700030E04AEF54E40E941F02DC01CB01F80173
:1027800080839183A283B383FE01E35BFF4F60816B
:1027900071818281938120E030E040E85FE30E9414
:1027A0007903882344F4FE01E55BFF4F81E090E06C
:1027B0009183808364C0FE01E35BFF4F6081718180
:1027C0008281938120E03FEF4FE757E40E94190395
:1027D00018160CF043C0FE01EF5AFF4F6081718163
:1027E0008281938120E030E040E251E40E941F02A8
:1027F000DC01CB018E01055B1F4FBC01CD010E94A6
:102800004900DC01CB01F801918380831FC0FE01E8
:10281000E75BFF4F88EC90E091838083FE01E75BEC
:10282000FF4F808191810197F1F7FE01E75BFF4F38
:1028300091838083DE01A55BBF4FFE01E55BFF4F07
:1028400080819181019711969C938E93FE01E55BA7
:10285000FF4F808191810097D1F627C08E01055BE3
:102860001F4FFE01E35BFF4F608171818281938185
:102870000E944900DC01CB01F80191838083DE01D5
:10288000A95BBF4FFE01E55BFF4F808191818D9376
:102890009C93FE01E95BFF4F808191810197F1F7E5
:1028A000FE01E95BFF4F9183808382E30E94BD16A6
:1028B000FE01ED5BFF4F80E090E0A0E0B0E480839C
:1028C0009183A283B3838E01015C1F4FFE01ED5BF8
:1028D000FF4F608171818281938120E030E04AEF77
:1028E00054E40E941F02DC01CB01F8018083918334
:1028F000A283B383FE01FF966081718182819381FF
:1029000020E030E040E85FE30E94790388232CF464
:1029100081E090E09EAF8DAF46C0FE01FF966081E2
:1029200071818281938120E03FEF4FE757E40E945D
:102930001903181664F5FE01ED5BFF4F608171818C
:102940008281938120E030E040E251E40E941F0246
:10295000DC01CB01BC01CD010E944900DC01CB01AF
:102960009EAF8DAF0FC088EC90E09CAF8BAF8BAD6E
:102970009CAD0197F1F79CAF8BAF8DAD9EAD0197EC
:102980009EAF8DAF8DAD9EAD009769F716C0FE016D
:10299000FF9660817181828193810E944900DC01F0
:1029A000CB019EAF8DAF8DAD9EAD9AAF89AF89AD96
:1029B0009AAD0197F1F79AAF89AF88E20E94BD16F0
:1029C00080E090E0A0E0B0E48DAB9EABAFABB8AFE1
:1029D0006DA97EA98FA998AD20E030E04AEF54E4BC
:1029E0000E941F02DC01CB0189AB9AABABABBCAB45
:1029F00069A97AA98BA99CA920E030E040E85FE3AF
:102A00000E94790388232CF481E090E098AB8FA793
:102A10003FC069A97AA98BA99CA920E03FEF4FE7A5
:102A200057E40E94190318164CF56DA97EA98FA9C9
:102A300098AD20E030E040E251E40E941F02DC014A
:102A4000CB01BC01CD010E944900DC01CB0198AB58
:102A50008FA70FC088EC90E09EA78DA78DA59EA59F
:102A60000197F1F79EA78DA78FA598A9019798AB1D
:102A70008FA78FA598A9009769F714C069A97AA9AB
:102A80008BA99CA90E944900DC01CB0198AB8FA7C0
:102A90008FA598A99CA78BA78BA59CA50197F1F75B
:102AA0009CA78BA78CE00E94BD1680E090E0A0E080
:102AB000B0E48FA398A7A9A7BAA76FA178A589A505
:102AC0009AA520E030E04AEF54E40E941F02DC01A6
:102AD000CB018BA39CA3ADA3BEA36BA17CA18DA1B5
:102AE0009EA120E030E040E85FE30E947903882364
:102AF0002CF481E090E09AA389A33FC06BA17CA154
:102B00008DA19EA120E03FEF4FE757E40E941903FB
:102B100018164CF56FA178A589A59AA520E030E09C
:102B200040E251E40E941F02DC01CB01BC01CD0157
:102B30000E944900DC01CB019AA389A30FC088EC55
:102B400090E098A38F8F8F8D98A10197F1F798A3AC
:102B50008F8F89A19AA101979AA389A389A19AA18C
:102B6000009769F714C06BA17CA18DA19EA10E9462
:102B70004900DC01CB019AA389A389A19AA19E8F68
:102B80008D8F8D8D9E8D0197F1F79E8F8D8F86E0B5
:102B90000E94BD1680E090E0A0E0B0E4898F9A8F9B
:102BA000AB8FBC8F698D7A8D8B8D9C8D20E030E052
:102BB0004AEF54E40E941F02DC01CB018D8B9E8BF7
:102BC000AF8BB88F6D897E898F89988D20E030E03A
:102BD00040E85FE30E94790388232CF481E090E0D1
:102BE0009C8B8B8B3FC06D897E898F89988D20E06F
:102BF0003FEF4FE757E40E94190318164CF5698D13
:102C00007A8D8B8D9C8D20E030E040E251E40E9473
:102C10001F02DC01CB01BC01CD010E944900DC0197
:102C2000CB019C8B8B8B0FC088EC90E09A8B898BAF
:102C300089899A890197F1F79A8B898B8B899C896D
:102C400001979C8B8B8B8B899C89009769F714C0AB
:102C50006D897E898F89988D0E944900DC01CB01A6
:102C60009C8B8B8B8B899C89988B8F878F85988980
:102C70000197F1F7988B8F8781E00E94BD1680E065
:102C800090E0A0E0B0E48B879C87AD87BE876B8522
:102C90007C858D859E8520E030E04AEF54E40E94DB
:102CA0001F02DC01CB018F839887A987BA876F81C8
:102CB000788589859A8520E030E040E85FE30E94CE
:102CC000790388232CF481E090E09E838D833FC0BC
:102CD0006F81788589859A8520E03FEF4FE757E43B
:102CE0000E94190318164CF56B857C858D859E8591
:102CF00020E030E040E251E40E941F02DC01CB0101
:102D0000BC01CD010E944900DC01CB019E838D8373
:102D10000FC088EC90E09C838B838B819C81019712
:102D2000F1F79C838B838D819E8101979E838D8398
:102D30008D819E81009769F714C06F8178858985A0
:102D40009A850E944900DC01CB019E838D838D8191
:102D50009E819A83898389819A810197F1F79A8369
:102D60008983C059DF4F0FB6F894DEBF0FBECDBFC9
:102D7000CF91DF911F910F9108950F931F93DF93D0
:102D8000CF93CDB7DEB7C754D0400FB6F894DEBFAF
:102D90000FBECDBFFE01E95BFF4F8083FE01E95B03
:102DA000FF4F8081982F907F82E0692F0E94C00F93
:102DB00082E060E040E00E94B50C82E061E040E02B
:102DC0000E94B50C82E062E041E00E94B50CFE0179
:102DD000ED5BFF4F80E090E0A0E0B0E48083918362
:102DE000A283B3838E01015C1F4FFE01ED5BFF4F99
:102DF000608171818281938120E030E04AEF54E468
:102E00000E941F02DC01CB01F80180839183A28321
:102E1000B383FE01FF96608171818281938120E0FE
:102E200030E040E85FE30E94790388232CF481E0DE
:102E300090E09EAF8DAF46C0FE01FF96608171812C
:102E40008281938120E03FEF4FE757E40E9419030E
:102E5000181664F5FE01ED5BFF4F60817181828180
:102E6000938120E030E040E251E40E941F02DC0147
:102E7000CB01BC01CD010E944900DC01CB019EAF1A
:102E80008DAF0FC088EC90E09CAF8BAF8BAD9CAD4D
:102E90000197F1F79CAF8BAF8DAD9EAD01979EAFC3
:102EA0008DAF8DAD9EAD009769F716C0FE01FF9600
:102EB00060817181828193810E944900DC01CB0194
:102EC0009EAF8DAF8DAD9EAD9AAF89AF89AD9AADF6
:102ED0000197F1F79AAF89AF82E062E040E00E948B
:102EE000B50C80E090E0A0E0B0E48DAB9EABAFAB62
:102EF000B8AF6DA97EA98FA998AD20E030E04AEF68
:102F000054E40E941F02DC01CB0189AB9AABABAB4E
:102F1000BCAB69A97AA98BA99CA920E030E040E864
:102F20005FE30E94790388232CF481E090E098AB62
:102F30008FA73FC069A97AA98BA99CA920E03FEF80
:102F40004FE757E40E94190318164CF56DA97EA9A6
:102F50008FA998AD20E030E040E251E40E941F02CA
:102F6000DC01CB01BC01CD010E944900DC01CB0199
:102F700098AB8FA70FC088EC90E09EA78DA78DA57A
:102F80009EA50197F1F79EA78DA78FA598A90197F8
:102F900098AB8FA78FA598A9009769F714C069A966
:102FA0007AA98BA99CA90E944900DC01CB0198ABAE
:102FB0008FA78FA598A99CA78BA78BA59CA50197E8
:102FC000F1F79CA78BA7FE01E95BFF4F8081982F4B
:102FD0009295907F82E0692F0E94C00F82E062E0AC
:102FE00041E00E94B50C80E090E0A0E0B0E48FA347
:102FF00098A7A9A7BAA76FA178A589A59AA520E047
:1030000030E04AEF54E40E941F02DC01CB018BA3A5
:103010009CA3ADA3BEA36BA17CA18DA19EA120E02A
:1030200030E040E85FE30E94790388232CF481E0DC
:1030300090E09AA389A33FC06BA17CA18DA19EA122
:1030400020E03FEF4FE757E40E94190318164CF5B4
:103050006FA178A589A59AA520E030E040E251E46F
:103060000E941F02DC01CB01BC01CD010E9449007E
:10307000DC01CB019AA389A30FC088EC90E098A350
:103080008F8F8F8D98A10197F1F798A38F8F89A1CA
:103090009AA101979AA389A389A19AA1009769F798
:1030A00014C06BA17CA18DA19EA10E944900DC01EE
:1030B000CB019AA389A389A19AA19E8F8D8F8D8D13
:1030C0009E8D0197F1F79E8F8D8F82E062E040E048
:1030D0000E94B50C80E090E0A0E0B0E4898F9A8F68
:1030E000AB8FBC8F698D7A8D8B8D9C8D20E030E00D
:1030F0004AEF54E40E941F02DC01CB018D8B9E8BB2
:10310000AF8BB88F6D897E898F89988D20E030E0F4
:1031100040E85FE30E94790388232CF481E090E08B
:103120009C8B8B8B3FC06D897E898F89988D20E029
:103130003FEF4FE757E40E94190318164CF5698DCD
:103140007A8D8B8D9C8D20E030E040E251E40E942E
:103150001F02DC01CB01BC01CD010E944900DC0152
:10316000CB019C8B8B8B0FC088EC90E09A8B898B6A
:1031700089899A890197F1F79A8B898B8B899C8928
:1031800001979C8B8B8B8B899C89009769F714C066
:103190006D897E898F89988D0E944900DC01CB0161
:1031A0009C8B8B8B8B899C89988B8F878F8598893B
:1031B0000197F1F7988B8F8780E090E0A0EAB0E468
:1031C0008B879C87AD87BE876B857C858D859E852B
:1031D00020E030E04AEF54E40E941F02DC01CB0102
:1031E0008F839887A987BA876F81788589859A8523
:1031F00020E030E040E85FE30E94790388232CF46C
:1032000081E090E09E838D833FC06F8178858985C2
:103210009A8520E03FEF4FE757E40E941903181604
:103220004CF56B857C858D859E8520E030E040E205
:1032300051E40E941F02DC01CB01BC01CD010E94C0
:103240004900DC01CB019E838D830FC088EC90E0A8
:103250009C838B838B819C810197F1F79C838B836B
:103260008D819E8101979E838D838D819E810097A4
:1032700069F714C06F81788589859A850E94490015
:10328000DC01CB019E838D838D819E819A8389830E
:1032900089819A810197F1F79A838983C95BDF4F0E
:1032A0000FB6F894DEBF0FBECDBFCF91DF911F9157
:1032B0000F910895DF93CF93CDB7DEB7E9970FB69F
:1032C000F894DEBF0FBECDBF89AF89AD982F907F38
:1032D00082E0692F0E94C00F82E060E041E00E941E
:1032E000B50C82E061E040E00E94B50C82E062E053
:1032F00041E00E94B50C80E090E0A0E0B0E48DAB2E
:103300009EABAFABB8AF6DA97EA98FA998AD20E0F9
:1033100030E04AEF54E40E941F02DC01CB0189AB8C
:103320009AABABABBCAB69A97AA98BA99CA920E0ED
:1033300030E040E85FE30E94790388232CF481E0C9
:1033400090E098AB8FA73FC069A97AA98BA99CA9E7
:1033500020E03FEF4FE757E40E94190318164CF5A1
:103360006DA97EA98FA998AD20E030E040E251E43C
:103370000E941F02DC01CB01BC01CD010E9449006B
:10338000DC01CB0198AB8FA70FC088EC90E09EA723
:103390008DA78DA59EA50197F1F79EA78DA78FA557
:1033A00098A9019798AB8FA78FA598A9009769F75F
:1033B00014C069A97AA98BA99CA90E944900DC01C3
:1033C000CB0198AB8FA78FA598A99CA78BA78BA59E
:1033D0009CA50197F1F79CA78BA782E062E040E0F3
:1033E0000E94B50C80E090E0A0E0B0E48FA398A725
:1033F000A9A7BAA76FA178A589A59AA520E030E072
:103400004AEF54E40E941F02DC01CB018BA39CA372
:10341000ADA3BEA36BA17CA18DA19EA120E030E055
:1034200040E85FE30E94790388232CF481E090E078
:103430009AA389A33FC06BA17CA18DA19EA120E08E
:103440003FEF4FE757E40E94190318164CF56FA1A0
:1034500078A589A59AA520E030E040E251E40E94D9
:103460001F02DC01CB01BC01CD010E944900DC013F
:10347000CB019AA389A30FC088EC90E098A38F8F0B
:103480008F8D98A10197F1F798A38F8F89A19AA1A9
:1034900001979AA389A389A19AA1009769F714C0FB
:1034A0006BA17CA18DA19EA10E944900DC01CB01F2
:1034B0009AA389A389A19AA19E8F8D8F8D8D9E8DB0
:1034C0000197F1F79E8F8D8F89AD982F9295907F00
:1034D00082E0692F0E94C00F82E060E041E00E941C
:1034E000B50C82E062E041E00E94B50C80E090E023
:1034F000A0E0B0E4898F9A8FAB8FBC8F698D7A8DF5
:103500008B8D9C8D20E030E04AEF54E40E941F0236
:10351000DC01CB018D8B9E8BAF8BB88F6D897E8943
:103520008F89988D20E030E040E85FE30E947903C6
:1035300088232CF481E090E09C8B8B8B3FC06D89BD
:103540007E898F89988D20E03FEF4FE757E40E94F6
:10355000190318164CF5698D7A8D8B8D9C8D20E0A2
:1035600030E040E251E40E941F02DC01CB01BC01CB
:10357000CD010E944900DC01CB019C8B8B8B0FC0DD
:1035800088EC90E09A8B898B89899A890197F1F769
:103590009A8B898B8B899C8901979C8B8B8B8B89D0
:1035A0009C89009769F714C06D897E898F89988DF1
:1035B0000E944900DC01CB019C8B8B8B8B899C8901
:1035C000988B8F878F8598890197F1F7988B8F87D4
:1035D00082E062E040E00E94B50C80E090E0A0E074
:1035E000B0E48B879C87AD87BE876B857C858D8596
:1035F0009E8520E030E04AEF54E40E941F02DC0187
:10360000CB018F839887A987BA876F817885898551
:103610009A8520E030E040E85FE30E947903882348
:103620002CF481E090E09E838D833FC06F8178858C
:1036300089859A8520E03FEF4FE757E40E94190300
:1036400018164CF56B857C858D859E8520E030E0D5
:1036500040E251E40E941F02DC01CB01BC01CD011C
:103660000E944900DC01CB019E838D830FC088EC52
:1036700090E09C838B838B819C810197F1F79C83E5
:103680008B838D819E8101979E838D838D819E8109
:10369000009769F714C06F81788589859A850E94A3
:1036A0004900DC01CB019E838D838D819E819A83AD
:1036B000898389819A810197F1F79A838983E996B1
:1036C0000FB6F894DEBF0FBECDBFCF91DF91089546
:1036D000DF93CF9300D00F92CDB7DEB79B838A8361
:1036E00019820EC08981282F30E08A819B81FC01DC
:1036F000E20FF31F80810E945A1989818F5F8983AD
:103700008981282F30E08A819B81FC01E20FF31F21
:103710008081882339F70F900F900F90CF91DF9120
:103720000895DF93CF93CDB7DEB72A970FB6F894FD
:10373000DEBF0FBECDBF98878F838F81988500979E
:1037400019F480E30E945A1919821FC08981E82F59
:10375000FF27E7FDF0958F8198852AE030E0B901D9
:103760000E94D31F282FCE010296E80FF91F208355
:103770008F8198852AE030E0B9010E94D31FCB01E8
:1037800098878F8389818F5F89838F819885009740
:10379000E9F68981815089837EC08981282F33276A
:1037A00027FD3095CE010296FC01E20FF31F8081C8
:1037B000282F30E03A87298789859A8584309105BA
:1037C00009F44FC029853A8525303105D4F489851F
:1037D0009A8581309105C9F129853A8522303105D4
:1037E0002CF489859A85009761F152C029853A8524
:1037F0002230310571F189859A858330910569F10F
:1038000047C029853A8527303105B9F189859A85E0
:10381000883091055CF429853A852530310529F1F8
:1038200089859A858630910521F132C029853A85AE
:103830002830310531F189859A858930910529F142
:1038400027C080E30E945A1923C081E30E945A19BD
:103850001FC082E30E945A191BC083E30E945A19B9
:1038600017C084E30E945A1913C085E30E945A19B5
:103870000FC086E30E945A190BC087E30E945A19B1
:1038800007C088E30E945A1903C089E30E945A19AD
:10389000898181508983898188230CF07ECF2A9683
:1038A0000FB6F894DEBF0FBECDBFCF91DF91089564
:1038B000DF93CF9300D0CDB7DEB789836A83898148
:1038C000882321F48A8180580E94BD168981813025
:1038D00021F48A8180540E94BD160F900F90CF91E1
:1038E000DF910895DF93CF93CDB7DEB72E970FB654
:1038F000F894DEBF0FBECDBF81E00E94BD1680E010
:1039000090E0A0E0B0E48B879C87AD87BE876B8595
:103910007C858D859E8520E030E04AEF54E40E944E
:103920001F02DC01CB018F839887A987BA876F813B
:10393000788589859A8520E030E040E85FE30E9441
:10394000790388232CF481E090E09E838D833FC02F
:103950006F81788589859A8520E03FEF4FE757E4AE
:103960000E94190318164CF56B857C858D859E8504
:1039700020E030E040E251E40E941F02DC01CB0174
:10398000BC01CD010E944900DC01CB019E838D83E7
:103990000FC088EC90E09C838B838B819C81019786
:1039A000F1F79C838B838D819E8101979E838D830C
:1039B0008D819E81009769F714C06F817885898514
:1039C0009A850E944900DC01CB019E838D838D8105
:1039D0009E819A83898389819A810197F1F79A83DD
:1039E00089832E960FB6F894DEBF0FBECDBFCF9160
:1039F000DF910895DF93CF93CDB7DEB780E064E029
:103A00000E94501080E065E00E94501080E066E067
:103A10000E94501080E060E041E00E94BC0D80E018
:103A200061E041E00E94BC0D80E062E041E00E9464
:103A3000BC0D80E063E041E00E94BC0D80E060E0EE
:103A400041E00E94B50C80E061E041E00E94B50CCD
:103A500080E062E041E00E94B50C80E063E041E07C
:103A60000E94B50CCF91DF910895DF93CF9300D0E2
:103A70000F92CDB7DEB78EE289831B8239C080E01A
:103A80006B8140E00E94B50C1A8227C08A81982F72
:103A90009C5F80E0692F0E94C30E8823D9F48B813C
:103AA000282F30E08A81482F50E0C901880F991FE4
:103AB000820F931F840F951FFC01EF53FF4F8081EE
:103AC00089838A81982F9C5F80E0692F0E94C30EB2
:103AD0008823B9F38A818F5F8A838A818330B0F229
:103AE00080E06B8141E00E94B50C8B818F5F8B83FE
:103AF0008B81843020F289810F900F900F90CF91AD
:103B0000DF910895DF93CF9300D000D0CDB7DEB71B
:103B10009C838B831A820E949F0980E50E94D809AA
:103B200081E00E942A0A0EC08A81282F30E08B8112
:103B30009C81FC01E20FF31F80810E942A0A8A8186
:103B40008F5F8A838A81282F30E08B819C81FC01E2
:103B5000E20FF31F8081882339F70E945E0A0F90DD
:103B60000F900F900F90CF91DF9108950F931F93B7
:103B7000DF93CF9300D000D0CDB7DEB79C838B838B
:103B80001A820E949F0980E50E94D80981E00E9464
:103B90002A0A16C00E949F0980E50E94010A8A81B4
:103BA000282F30E08B819C818C01020F131F0E9413
:103BB000440AF80180830E945E0A8A818F5F8A83AB
:103BC0008A81843039F78A81282F30E08B819C816B
:103BD000FC01E20FF31F10820F900F900F900F90D7
:103BE000CF91DF911F910F910895DF93CF93CDB7C0
:103BF000DEB72D970FB6F894DEBF0FBECDBF9D8701
:103C00008C87188619861A861B861C821D821E8246
:103C10001F821B8281E08A83198229C08885998549
:103C2000AA85BB852AE030E040E050E0BC01CD0130
:103C30000E94B41FAB01BC018981282F30E08C8524
:103C40009D85FC01E20FF31F8081882F90E0A0E0AA
:103C5000B0E0840F951FA61FB71FC097A109B10937
:103C600088879987AA87BB8789818F5F89838981A4
:103C70008830A0F246C088859985AA85BB852AE050
:103C800030E040E050E0BC01CD010E94E71FDC01C4
:103C9000CB018B8388859985AA85BB852AE030E096
:103CA00040E050E0BC01CD010E94E71FDA01C901EC
:103CB00088879987AA87BB878B81282F30E08A81E4
:103CC000882F90E0AC01249FC001259F900D349F68
:103CD000900D11249C01442737FD4095542F8C8171
:103CE0009D81AE81BF81820F931FA41FB51F8C835E
:103CF0009D83AE83BF838A81882F90E0880F991FB0
:103D00008A8388859985AA85BB850097A105B10519
:103D100009F0B1CF8C812D960FB6F894DEBF0FBE9F
:103D2000CDBFCF91DF910895DF93CF93CDB7DEB7AD
:103D30008091D900882321F480E690E00E94A305B9
:103D4000CF91DF910895DF93CF93CDB7DEB70E9477
:103D5000D3060E947B090E94B00883E062E040E045
:103D60000E94BC0D80E00E947A0A80E062E00E941E
:103D70001E0B24E93EE180E0B9010E94DD0BCF91EA
:103D8000DF910895DF93CF9300D0CDB7DEB79A834C
:103D9000898388E690E00E94A30589819A810E9428
:103DA000D00581E890E00E94A30589819A810E9454
:103DB000D00589819A810E94821D8FE890E00E943F
:103DC000A30589819A810E94D00589819A810E94E8
:103DD000821D0E94EA08EFE2F0E080E380830F900A
:103DE0000F90CF91DF910895DF93CF9300D00F9282
:103DF000CDB7DEB79B838A830E94EA08EFE2F0E04A
:103E000081E3808319828A819B810E94B61D0FC045
:103E1000AFE2B0E08981282F30E08A819B81FC01EC
:103E2000E20FF31F80818C9389818F5F89830E94C9
:103E3000EA08873669F30F900F900F90CF91DF91CA
:103E40000895DF93CF9300D000D000D0CDB7DEB778
:103E50009C838B837E836D831A8219821AC08A8128
:103E6000282F30E08B819C81FC01E20FF31F408101
:103E70008A81282F30E08D819E81FC01E20FF31FA3
:103E80008081481719F081E0898319C08A818F5F8A
:103E90008A838A81282F30E08B819C81FC01E20F8C
:103EA000F31F80818823D9F68A81282F30E08D8105
:103EB0009E81FC01E20FF31F8081882381F68981B6
:103EC00026960FB6F894DEBF0FBECDBFCF91DF911F
:103ED0000895DF93CF93CDB7DEB7EB970FB6F89485
:103EE000DEBF0FBECDBF80EA90E09C838B8386EA65
:103EF00090E09A8389830E94A31ECE0105960E94BA
:103F0000D005CE0105962B813C81B9010E94211F6D
:103F1000882339F41092D900CE0105960E94C21E62
:103F2000ECCFCE01059629813A81B9010E94211F6B
:103F30008823A9F481E08093D900CE0105960E94E0
:103F4000F41ECE0105962B813C81B9010E94211FF0
:103F5000882399F6CE0105960E94C21ECECF8BEA29
:103F600090E00E94A305C9CF629FD001739FF0012A
:103F7000829FE00DF11D649FE00DF11D929FF00DF9
:103F8000839FF00D749FF00D659FF00D9927729F30
:103F9000B00DE11DF91F639FB00DE11DF91FBD01BB
:103FA000CF0111240895AA1BBB1B51E107C0AA1F12
:103FB000BB1FA617B70710F0A61BB70B881F991FCA
:103FC0005A95A9F780959095BC01CD010895A1E27D
:103FD0001A2EAA1BBB1BFD010DC0AA1FBB1FEE1F83
:103FE000FF1FA217B307E407F50720F0A21BB30BCE
:103FF000E40BF50B661F771F881F991F1A9469F74A
:1040000060957095809590959B01AC01BD01CF01A5
:1040100008952F923F924F925F926F927F928F926C
:104020009F92AF92BF92CF92DF92EF92FF920F9347
:104030001F93CF93DF93CDB7DEB7CA1BDB0B0FB651
:10404000F894DEBF0FBECDBF09942A88398848880E
:104050005F846E847D848C849B84AA84B984C884A4
:10406000DF80EE80FD800C811B81AA81B981CE0F9B
:10407000D11D0FB6F894DEBF0FBECDBFED01089580
:04408000F894FFCFE2
:10408400496E76616C696400456E746572204361A3
:10409400726420486F6C646572204E616D653A20CD
:1040A4000043617264204E756D6265723A2000456A
:1040B4006E746572205061737377726F643A200076
:1040C40041444D494E00555345520057726F6E6737
:1040D40020456E74657200000000000000000001BD
:0E40E400013132333435363738392A30230073
:00000001FF
