:100000000C942A000C947A0D0C94AD0D0C94E00D18
:100010000C9447000C9447000C9447000C94470044
:100020000C9447000C9447000C9447000C94470034
:100030000C9447000C94B8090C9447000C94680980
:100040000C9447000C9447000C9447000C94470014
:100050000C94470011241FBECFE5D8E0DEBFCDBF12
:1000600013E0A0E6B0E0E0E4F2E502C005900D92F6
:10007000AE32B107D9F713E0AEE2B3E001C01D9292
:10008000AC33B107E1F70E94B3270C941E290C94FE
:100090000000EF92FF920F931F937B018C0120E0F1
:1000A00030E040E05FE40E94F50388238CF0C80153
:1000B000B70120E030E040E05FE40E94C1010E940F
:1000C00055049B01AC01205030404040504806C0D0
:1000D000C801B7010E9455049B01AC01B901CA01D6
:1000E0001F910F91FF90EF900895A0E0B0E0EBE733
:1000F000F0E00C94E728DC012B01FA019C9192308E
:1001000008F439C1EB018881823008F433C194309E
:1001100069F4843009F02FC111969C91119789815F
:10012000981709F428C1AFEDB1E025C1843009F476
:1001300021C18230A9F4923009F01DC19A01AD01AC
:1001400088E0EA010990AE01E90109929E0181501F
:10015000C1F7E201898111969C918923818308C1AD
:10016000923009F407C112962D903C901397EB0141
:100170008A819B811496AD90BD90CD90DC901797AD
:10018000EC80FD800E811F819101281B390BB90184
:1001900037FF04C066277727621B730B6032710537
:1001A0000CF061C0121613066CF537014801062EDB
:1001B00004C096948794779467940A94D2F721E0C8
:1001C00030E040E050E004C0220F331F441F551FB1
:1001D0006A95D2F721503040404050402E213F21B7
:1001E00040235123211531054105510521F021E01E
:1001F00030E040E050E079018A01E628F72808293C
:1002000019293CC0232BD1F1260E371E350146019A
:10021000062E04C096948794779467940A94D2F734
:1002200021E030E040E050E004C0220F331F441FC3
:10023000551F6A95D2F721503040404050402A2146
:100240003B214C215D21211531054105510521F04E
:1002500021E030E040E050E059016A01A628B728CB
:10026000C828D9280BC0821593052CF01C01AA249C
:10027000BB24650103C0EE24FF24870111969C91E5
:10028000D20111968C91981709F445C0992339F041
:10029000A80197012A193B094C095D0906C0A6016E
:1002A00095012E193F09400B510B57FD08C01182D3
:1002B0003382228224833583468357831DC081E0A5
:1002C00081833382228288279927DC01821B930B4A
:1002D000A40BB50B84839583A683B7830DC0220F2F
:1002E000331F441F551F24833583468357838281E0
:1002F000938101979383828324813581468157813D
:10030000DA01C9010197A109B1098F5F9F4FAF4F72
:10031000BF4328F30BC0918333822282EA0CFB1C7B
:100320000C1D1D1DE482F5820683178383E0808304
:10033000248135814681578157FF1AC0C901AA27F8
:1003400097FDA095BA2F81709070A070B0705695EF
:10035000479537952795822B932BA42BB52B848318
:100360009583A683B7838281938101969383828349
:10037000DF0101C0D201CD01CDB7DEB7E2E10C94BF
:100380000329A0E2B0E0E7ECF1E00C94F3286983E4
:100390007A838B839C832D833E834F835887E9E048
:1003A000EE2EF12CEC0EFD1ECE010196B7010E943F
:1003B00046068E010F5E1F4FCE010596B8010E94C2
:1003C00046068A8991E089278A8BC701B801AE0168
:1003D000475E5F4F0E9475000E947105A096E6E09F
:1003E0000C940F29A0E2B0E0E8EFF1E00C94F328C0
:1003F00069837A838B839C832D833E834F835887C5
:10040000F9E0EF2EF12CEC0EFD1ECE010196B701A6
:100410000E9446068E010F5E1F4FCE010596B80161
:100420000E944606C701B801AE01475E5F4F0E94B9
:1004300075000E947105A096E6E00C940F29A0E2D9
:10044000B0E0E5E2F2E00C94E72869837A838B83DD
:100450009C832D833E834F835887CE010196BE0136
:10046000675F7F4F0E944606CE010596BE016F5E14
:100470007F4F0E9446069985923088F089898230A4
:10048000C8F0943019F4823051F404C0843029F457
:10049000923081F48FED91E0C6C0923049F420E0B3
:1004A0009A858A89981321E02A87CE010996BBC0D4
:1004B000823049F420E09A858A89981321E02A8BBA
:1004C000CE014196B0C02D843E844F8458886D88FB
:1004D0007E888F88988CEE24FF248701AA24BB2471
:1004E000650140E050E060E070E0E0E0F0E0C10174
:1004F00081709070892BE9F0E60CF71C081D191D1E
:100500009A01AB012A0D3B1D4C1D5D1D80E090E062
:10051000A0E0B0E0E614F7040805190520F481E036
:1005200090E0A0E0B0E0BA01A901480F591F6A1F8E
:100530007B1FAA0CBB1CCC1CDD1C97FE08C081E0F5
:1005400090E0A0E0B0E0A82AB92ACA2ADB2A3196B6
:10055000E032F10549F0660C771C881C991C569412
:10056000479437942794C3CFFA85EA892B893C892D
:100570008B859C85280F391F2E5F3F4F17C0CA01FE
:1005800081709070892B61F016950795F794E79428
:1005900080E090E0A0E0B0E8E82AF92A0A2B1B2BC3
:1005A00076956795579547952F5F3F4F77FDE7CF36
:1005B0000CC0440F551F661F771F17FD4160EE0CDE
:1005C000FF1C001F111F21503040403090E05907A0
:1005D00090E0690790E4790760F32B8F3C8FDB0193
:1005E000CA018F779070A070B07080349105A1051A
:1005F000B10561F447FD0AC0E114F10401051105DC
:1006000029F0405C5F4F6F4F7F4F40781A8EFE1786
:1006100011F081E08A8F4D8F5E8F6F8F78A383E01A
:10062000898FCE0149960E947105A096E2E10C9453
:100630000329A8E1B0E0EFE1F3E00C94EF2869832F
:100640007A838B839C832D833E834F835887B9E0C5
:10065000EB2EF12CEC0EFD1ECE010196B7010E948F
:1006600046068E010F5E1F4FCE010596B8010E940F
:1006700046062985223008F47EC03989323010F4CC
:10068000B8017CC08A859A8989278A87243011F02D
:10069000223031F4231709F06EC06FED71E06EC0A7
:1006A000343039F41D861E861F86188A1C861B86E8
:1006B00004C0323021F484E08987B7015FC02B8504
:1006C0003C858B899C89281B390B3C872B87ED84C3
:1006D000FE840F851889AD88BE88CF88D88CEA142F
:1006E000FB040C051D0540F4EE0CFF1C001F111F40
:1006F000215030403C872B8720E030E040E050E044
:1007000080E090E0A0E0B0E460E070E0EA14FB0478
:100710000C051D0540F0282B392B4A2B5B2BEA18C2
:10072000FB080C091D09B695A79597958795EE0CC2
:10073000FF1C001F111F6F5F7F4F6F31710531F775
:10074000DA01C9018F779070A070B0708034910584
:10075000A105B10561F427FD0AC0E114F10401050A
:10076000110529F0205C3F4F4F4F5F4F20782D87B8
:100770003E874F87588BBE01675F7F4FCB010E943A
:1007800071056896EAE00C940B29A8E1B0E0EBEC67
:10079000F3E00C94F32869837A838B839C832D8305
:1007A0003E834F83588789E0E82EF12CEC0EFD1E26
:1007B000CE010196B7010E9446068E010F5E1F4FC3
:1007C000CE010596B8010E9446068985823040F028
:1007D0008989823028F0C701B8010E94BE0601C095
:1007E0008FEF6896E6E00C940F29A8E1B0E0EBEFFC
:1007F000F3E00C94F32869837A838B839C832D83A5
:100800003E834F83588789E0E82EF12CEC0EFD1EC5
:10081000CE010196B7010E9446068E010F5E1F4F62
:10082000CE010596B8010E9446068985823040F0C7
:100830008989823028F0C701B8010E94BE0601C034
:100840008FEF6896E6E00C940F29A8E1B0E0EBE2A8
:10085000F4E00C94F32869837A838B839C832D8343
:100860003E834F83588789E0E82EF12CEC0EFD1E65
:10087000CE010196B7010E9446068E010F5E1F4F02
:10088000CE010596B8010E9446068985823040F067
:100890008989823028F0C701B8010E94BE0601C0D4
:1008A00081E06896E6E00C940F29ACE0B0E0EBE55F
:1008B000F4E00C94F72869837A838B839C83CE01C0
:1008C0000196BE016B5F7F4F0E9446068D8182308C
:1008D00061F1823050F1843021F48E81882351F10E
:1008E0002EC02F81388537FD20C06E812F31310514
:1008F0001CF06623F9F023C08EE190E0821B930B7D
:1009000029853A854B855C8504C056954795379572
:1009100027958A95D2F76623B1F05095409530958A
:1009200021953F4F4F4F5F4F0EC020E030E040E039
:1009300050E009C02FEF3FEF4FEF5FE704C020E02A
:1009400030E040E050E8B901CA012C96E2E00C9496
:100950001329A8E0B0E0EFEAF4E00C94EF287B0163
:100960008C01611571058105910519F482E0898377
:1009700060C083E089838EE1C82ED12CDC82CB82DB
:10098000ED82FE820F831887C801B7010E942205FD
:10099000FC013197F7FF3BC0222733272E1B3F0B6B
:1009A00057016801022E04C0D694C794B794A79447
:1009B0000A94D2F740E050E060E070E081E090E01F
:1009C000A0E0B0E004C0880F991FAA1FBB1F2A95A2
:1009D000D2F70197A109B1098E219F21A023B1234C
:1009E0000097A105B10521F041E050E060E070E022
:1009F0004A295B296C297D294D835E836F83788723
:100A00008EE190E08E1B9F0B9C838B8312C03097EE
:100A100081F00E2E04C0EE0CFF1C001F111F0A9463
:100A2000D2F7ED82FE820F831887CE1ADF0ADC82AE
:100A3000CB821A82CE0101960E9471052896EAE0C7
:100A40000C940B29EF92FF920F931F937B018C0163
:100A500080E0E81680E0F80681E0080780E01807EB
:100A600088F48FEFE816F1040105110531F028F044
:100A700088E090E0A0E0B0E017C080E090E0A0E067
:100A8000B0E012C080E0E81680E0F80680E00807D9
:100A900081E0180728F088E190E0A0E0B0E004C011
:100AA00080E190E0A0E0B0E020E230E040E050E003
:100AB000281B390B4A0B5B0B04C016950795F7945E
:100AC000E7948A95D2F7F701E951FE4F8081281B00
:100AD000310941095109C9011F910F91FF90EF9010
:100AE0000895DF92EF92FF920F931F93FC01E48031
:100AF000F58006811781D1808081823048F480E0C2
:100B000090E0A0E1B0E0E82AF92A0A2B1B2BA5C04F
:100B1000843009F49FC0823021F4EE24FF24870141
:100B200005C0E114F1040105110519F4E0E0F0E05D
:100B300096C0628173819FEF623879070CF05BC0C9
:100B400022E83FEF261B370B2A3131052CF020E03D
:100B500030E040E050E02AC0B801A701022E04C0F6
:100B600076956795579547950A94D2F781E090E07E
:100B7000A0E0B0E004C0880F991FAA1FBB1F2A95F0
:100B8000D2F70197A109B1098E219F21A023B1239A
:100B90000097A105B10521F081E090E0A0E0B0E070
:100BA0009A01AB01282B392B4A2B5B2BDA01C901A7
:100BB0008F779070A070B07080349105A105B10559
:100BC00039F427FF09C0205C3F4F4F4F5F4F04C0EF
:100BD000215C3F4F4F4F5F4FE0E0F0E02030A0E05E
:100BE0003A07A0E04A07A0E45A0710F0E1E0F0E07D
:100BF00079018A0127C06038710564F5FB01E1586D
:100C0000FF4FD801C7018F779070A070B07080340B
:100C10009105A105B10539F4E7FE0DC080E490E02F
:100C2000A0E0B0E004C08FE390E0A0E0B0E0E80E08
:100C3000F91E0A1F1B1F17FF05C016950795F7948D
:100C4000E794319687E016950795F794E7948A958F
:100C5000D1F705C0EE24FF248701EFEFF0E06E2FFF
:100C6000679566276795902F9F77D794DD24D79453
:100C70008E2F8695492F462B582F5D29B701CA0123
:100C80001F910F91FF90EF90DF900895FC01DB0121
:100C9000408151812281622F6F7770E0221F2227CD
:100CA000221F9381892F880F822B282F30E0991FD4
:100CB0009927991F11969C93119721153105A9F534
:100CC000411551056105710511F482E037C082E8D4
:100CD0009FEF13969C938E9312979A01AB0167E056
:100CE000220F331F441F551F6A95D1F783E08C9361
:100CF0000DC0220F331F441F551F12968D919C91DA
:100D00001397019713969C938E931297203080E04F
:100D1000380780E0480780E4580758F314962D936D
:100D20003D934D935C93179708952F3F310579F4C8
:100D3000411551056105710519F484E08C930895FE
:100D400064FF03C081E08C9312C01C9210C02F5727
:100D5000304013963C932E93129783E08C9387E058
:100D6000440F551F661F771F8A95D1F7706414963C
:100D70004D935D936D937C93179708951F93DC01BA
:100D8000FB019C91923008F447C08081823008F4C6
:100D900043C0943051F411961C91843099F58181AF
:100DA000682F70E0611B71093FC0843021F09230E0
:100DB00031F48230B9F18181882389F12DC01196F7
:100DC0001C9111978230F1F081811817D9F4129695
:100DD0002D913C911397828193818217930794F010
:100DE00028173907BCF014968D919D910D90BC91F8
:100DF000A02D2481358146815781281739074A075C
:100E00005B0718F4112341F00AC082179307A40767
:100E1000B50740F4112319F061E070E005C06FEFF1
:100E20007FEF02C060E070E0CB011F910895DF9377
:100E3000CF9300D00F92CDB7DEB79B838A83198200
:100E400019820EC08981282F30E08A819B81FC01A4
:100E5000E20FF31F80810E94B50889818F5F89832B
:100E60008981282F30E08A819B81FC01E20FF31FEA
:100E70008081882339F78DE00E94B5080F900F908C
:100E80000F90CF91DF9108950F931F93DF93CF932E
:100E900000D00F92CDB7DEB79B838A8319828981F8
:100EA000282F30E08A819B818C01020F131F0E9442
:100EB000DF08F80180830FC089818F5F8983898172
:100EC000282F30E08A819B818C01020F131F0E9422
:100ED000DF08F80180838981282F30E08A819B8197
:100EE000FC01E20FF31F80818D3031F78981282FBB
:100EF00030E08A819B81FC01E20FF31F10820F908A
:100F00000F900F90CF91DF911F910F910895DF9374
:100F1000CF9300D000D0CDB7DEB79C838B831982EE
:100F20001A82CE0102960E94EE088823C1F08981C0
:100F3000282F30E08B819C81FC01E20FF31F8A8116
:100F4000808389818F5F89838981282F30E08B811D
:100F50009C81FC01E20FF31F80818E3011F78981A3
:100F6000882F90E09C01215030408B819C81FC01B6
:100F7000E20FF31F10820F900F900F900F90CF9100
:100F8000DF910895DF93CF9300D000D0CDB7DEB7C7
:100F900069837A838B839C8389810E94B5088981C8
:100FA0009A81AB81BC81892F9A2FAB2FBB270E94DE
:100FB000B50889819A81AB81BC81CD01AA27BB2765
:100FC0000E94B50889819A81AB81BC818B2F9927BA
:100FD000AA27BB270E94B5080F900F900F900F9083
:100FE000CF91DF910895DF93CF93CDB7DEB72897E8
:100FF0000FB6F894DEBF0FBECDBF0E94DF08888712
:101000000E94DF088F830E94DF088E830E94DF0822
:101010008D838885282F30E040E050E08F81882F35
:1010200090E0A0E0B0E0BA2FA92F982F8827282BB6
:10103000392B4A2B5B2B8E81882F90E0A0E0B0E00B
:10104000DC0199278827282B392B4A2B5B2B8D8194
:10105000882F90E0A0E0B0E0B82FAA279927882732
:10106000822B932BA42BB52B89839A83AB83BC83D0
:1010700089819A81AB81BC81BC01CD0128960FB6D4
:10108000F894DEBF0FBECDBFCF91DF910895DF93FF
:10109000CF930F92CDB7DEB781E08983A0E4B0E0B3
:1010A000E0E4F0E080818F778C93E0E4F0E0108260
:1010B000E9E2F0E083E38083ABE2B0E0EBE2F0E072
:1010C00080818D7F8C93A0E4B0E0E0E4F0E080814B
:1010D00080688C93A0E4B0E0E0E4F0E08081877F5A
:1010E0008C93A0E4B0E0E0E4F0E0808180688C9331
:1010F000A0E4B0E0E0E4F0E080818F7E8C93A0E497
:10110000B0E0E0E4F0E080818F7D8C93A0E4B0E07B
:10111000E0E4F0E0808180688C93A0E4B0E0E0E45B
:10112000F0E0808182608C93A0E4B0E0E0E4F0E045
:10113000808184608C93AAE2B0E0EAE2F0E08081F2
:101140008B7F8C93AAE2B0E0EAE2F0E080818061DC
:101150008C93AAE2B0E0EAE2F0E0808188608C93B0
:1011600089810F90CF91DF910895DF93CF930F92F4
:10117000CDB7DEB78983EBE2F0E08081829586957A
:101180008770882F90E0817090700097A1F3ECE257
:10119000F0E08981808381E00F90CF91DF91089505
:1011A000DF93CF930F92CDB7DEB78983ECE2F0E007
:1011B0008981808381E00F90CF91DF910895DF9343
:1011C000CF93CDB7DEB7EBE2F0E080818823DCF788
:1011D000ECE2F0E08081CF91DF910895DF93CF932F
:1011E00000D00F92CDB7DEB79B838A831982EBE2E2
:1011F000F0E08081882344F4ECE2F0E08081EA8131
:10120000FB81808381E0898389810F900F900F900B
:10121000CF91DF910895DF93CF93CDB7DEB7AAE2E8
:10122000B0E0EAE2F0E0808180648C93AFE5B0E06A
:10123000EFE5F0E0808180688C93CF91DF91089595
:10124000DF93CF93CDB7DEB7AAE2B0E0EAE2F0E0F9
:10125000808180688C93AFE5B0E0EFE5F0E08081BD
:1012600080688C93CF91DF910895DF93CF9300D066
:10127000CDB7DEB79A8389838091E702813079F414
:10128000E981FA8180810E94D0080E940B0989813E
:101290009A8190932F0380932E031092E7020F9070
:1012A0000F90CF91DF910895DF93CF9300D0CDB70A
:1012B000DEB79A8389830E94200989819A8190935D
:1012C0003103809330030F900F90CF91DF910895F9
:1012D0001F920F920FB60F9211242F933F934F93AB
:1012E0005F936F937F938F939F93AF93BF93EF938E
:1012F000FF93DF93CF93CDB7DEB720912E033091CC
:101300002F038091E802882F90E0F901E80FF91F80
:1013100080818823A1F020912E0330912F038091AA
:10132000E802882F90E0F901E80FF91F80810E9400
:10133000D0088091E8028F5F8093E80206C081E0C8
:101340008093E80281E08093E702CF91DF91FF91E3
:10135000EF91BF91AF919F918F917F916F915F912D
:101360004F913F912F910F900FBE0F901F901895A6
:101370001F920F920FB60F9211242F933F934F930A
:101380005F936F937F938F939F93AF93BF93EF93ED
:10139000FF93DF93CF93CDB7DEB720913003309129
:1013A000310380913203882F90E0F901E80FF91F93
:1013B0008081882F90E00E94EE08882329F0809198
:1013C00032038F5F8093320380913203833610F0B3
:1013D00010923203CF91DF91FF91EF91BF91AF91C6
:1013E0009F918F917F916F915F914F913F912F913D
:1013F0000F900FBE0F901F901895DF93CF93CDB72E
:10140000DEB7A7E3B0E0E7E3F0E0808180618C9392
:10141000A7E3B0E0E7E3F0E0808180628C93A7E38C
:10142000B0E0E7E3F0E080818F7B8C93A7E3B0E04E
:10143000E7E3F0E0808180688C93EDE2F0E080E506
:101440008083CF91DF910895DF93CF93CDB7DEB73F
:10145000A7E3B0E0E7E3F0E080818F7E8C93A7E321
:10146000B0E0E7E3F0E080818F7D8C93A7E3B0E00C
:10147000E7E3F0E0808180648C93A7E3B0E0E7E3EA
:10148000F0E080818F778C93EDE2F0E080E4808360
:10149000CF91DF910895DF93CF930F92CDB7DEB751
:1014A0008983EFE2F0E089818083EEE2F0E08081E1
:1014B0008823DCF70F90CF91DF910895DF93CF93CE
:1014C000CDB7DEB7EEE2F0E080818823DCF7EFE213
:1014D000F0E08081CF91DF910895DF93CF9300D02A
:1014E0000F92CDB7DEB79B838A8319820EC08981A4
:1014F000282F30E08A819B81FC01E20FF31F80815D
:101500000E944B0A89818F5F89838981282F30E06F
:101510008A819B81FC01E20FF31F8081882339F7C8
:101520000F900F900F90CF91DF9108950F931F931D
:10153000DF93CF9300D00F92CDB7DEB79B838A8322
:1015400019828981282F30E08A819B818C01020FCA
:10155000131F0E945E0AF80180830FC089818F5F8C
:1015600089838981282F30E08A819B818C01020F39
:10157000131F0E945E0AF80180838981282F30E0C2
:101580008A819B81FC01E20FF31F80818D3031F74E
:101590008981282F30E08A819B81FC01E20FF31FB3
:1015A00010820F900F900F90CF91DF911F910F91AC
:1015B0000895DF93CF93CDB7DEB7A1E2B0E0E1E2CB
:1015C000F0E080818E7F8C93A1E2B0E0E1E2F0E078
:1015D00080818D7F8C93E0E2F0E080E28083A6E55D
:1015E000B0E0E6E5F0E0808184608C93E2E2F0E038
:1015F00087E08083CF91DF910895DF93CF93CDB7BC
:10160000DEB7A6E5B0E0E6E5F0E0808180628C938D
:10161000A6E5B0E0E6E5F0E0808180688C93E6E541
:10162000F0E080818823DCF7CF91DF910895DF938C
:10163000CF93CDB7DEB7E0E2F0E080E28083E2E274
:10164000F0E082E08083A6E5B0E0E6E5F0E08081AE
:1016500080648C93A6E5B0E0E6E5F0E080818460EC
:101660008C930E94A20BCF91DF910895DF93CF93CB
:101670000F92CDB7DEB78983E3E2F0E08981880F6E
:101680008083A3E2B0E0E3E2F0E080818E7F8C9380
:10169000A6E5B0E0E6E5F0E080818F7D8C93A6E5DD
:1016A000B0E0E6E5F0E0808180688C93E6E5F0E06C
:1016B00080818823DCF70F90CF91DF910895DF932D
:1016C000CF930F92CDB7DEB78983E3E2F0E0898153
:1016D000880F8083A3E2B0E0E3E2F0E080818160E4
:1016E0008C93A6E5B0E0E6E5F0E080818F7D8C93F9
:1016F000A6E5B0E0E6E5F0E0808180688C93E6E561
:10170000F0E080818823DCF70F90CF91DF9108957E
:10171000DF93CF930F92CDB7DEB78983E3E2F0E09A
:1017200089818083A6E5B0E0E6E5F0E0808180680D
:101730008C93E6E5F0E080818823DCF70F90CF9171
:10174000DF910895DF93CF930F92CDB7DEB7A6E573
:10175000B0E0E6E5F0E0808180688C93E6E5F0E0BB
:1017600080818823DCF7E3E2F0E08081898389814E
:101770000F90CF91DF910895DF93CF93CDB7DEB770
:10178000A6E5B0E0E6E5F0E0808180618C93A6E517
:10179000B0E0E6E5F0E0808184608C93A6E5B0E0FF
:1017A000E6E5F0E0808180688C93CF91DF91089529
:1017B000DF93CF9300D000D0CDB7DEB78A831982F4
:1017C0008A81282F30E03C832B838B819C81813060
:1017D0009105C1F02B813C812230310511F18B81C3
:1017E0009C81009769F5ABE5B0E0EBE5F0E0808126
:1017F00080648C93AFE5B0E0EFE5F0E08081806835
:101800008C9320C0ABE5B0E0EBE5F0E08081806830
:101810008C93AFE5B0E0EFE5F0E0808180688C93D9
:1018200011C0ABE5B0E0EBE5F0E0808180628C9325
:10183000AFE5B0E0EFE5F0E0808180688C9302C016
:1018400081E0898389810F900F900F900F90CF9145
:10185000DF910895DF93CF9300D000D0CDB7DEB7EE
:101860008A8319828A81282F30E03C832B838B81E5
:101870009C8181309105C1F02B813C812230310562
:1018800011F18B819C81009769F5ABE5B0E0EBE548
:10189000F0E080818F7B8C93AFE5B0E0EFE5F0E086
:1018A00080818F778C9320C0ABE5B0E0EBE5F0E072
:1018B00080818F778C93AFE5B0E0EFE5F0E0808139
:1018C0008F778C9311C0ABE5B0E0EBE5F0E0808161
:1018D0008F7D8C93AFE5B0E0EFE5F0E080818F770E
:1018E0008C9302C081E0898389810F900F900F90C3
:1018F0000F90CF91DF910895DF93CF93CDB7DEB7EF
:1019000029970FB6F894DEBF0FBECDBF8A836B83D5
:1019100019828A81282F30E0398728878885998520
:1019200081309105D9F0288539852230310509F4B7
:1019300073C088859985009709F091C0A5E5B0E04E
:10194000E5E5F0E080818C7F8C93A5E5B0E0E5E5EE
:10195000F0E090818B81892B8C9383C08B81282F21
:1019600030E03F832E838E819F818130910521F16C
:101970002E813F81223031052CF48E819F8100978A
:1019800061F047C02E813F812230310521F18E81E7
:101990009F818330910571F13CC0A5E5B0E0E5E59C
:1019A000F0E080818B7F8C93A5E5B0E0E5E5F0E089
:1019B0008081877F8C9355C0A5E5B0E0E5E5F0E038
:1019C000808184608C93A5E5B0E0E5E5F0E080815E
:1019D000877F8C9346C0A5E5B0E0E5E5F0E0808127
:1019E0008B7F8C93A5E5B0E0E5E5F0E08081886031
:1019F0008C9337C0A5E5B0E0E5E5F0E08081846038
:101A00008C93A5E5B0E0E5E5F0E0808188608C93FB
:101A100028C081E0898325C08B81282F30E03D8359
:101A20002C838C819D818230910531F02C813D8108
:101A30002330310549F010C0A4E5B0E0E4E5F0E062
:101A400080818F7B8C930DC0A4E5B0E0E4E5F0E0ED
:101A5000808180648C9305C081E0898302C081E02D
:101A60008983898129960FB6F894DEBF0FBECDBF5A
:101A7000CF91DF910895DF93CF9300D000D000D0B5
:101A8000CDB7DEB78A837C836B8319828A81282F46
:101A900030E03E832D838D819E818130910581F0E0
:101AA0002D813E812230310591F08D819E810097FC
:101AB000A9F48B819C81909334038093330310C0ED
:101AC0008B819C81909336038093350309C08B8171
:101AD0009C81909338038093370302C081E089830F
:101AE000898126960FB6F894DEBF0FBECDBFCF9189
:101AF000DF9108951F920F920FB60F9211242F932A
:101B00003F934F935F936F937F938F939F93AF9385
:101B1000BF93EF93FF93DF93CF93CDB7DEB7809161
:101B2000330390913403009729F0E0913303F0914F
:101B300034030995CF91DF91FF91EF91BF91AF9160
:101B40009F918F917F916F915F914F913F912F91D5
:101B50000F900FBE0F901F9018951F920F920FB607
:101B60000F9211242F933F934F935F936F937F9323
:101B70008F939F93AF93BF93EF93FF93DF93CF9395
:101B8000CDB7DEB78091350390913603009729F0E9
:101B9000E0913503F09136030995CF91DF91FF91E4
:101BA000EF91BF91AF919F918F917F916F915F91D5
:101BB0004F913F912F910F900FBE0F901F9018954E
:101BC0001F920F920FB60F9211242F933F934F93B2
:101BD0005F936F937F938F939F93AF93BF93EF9395
:101BE000FF93DF93CF93CDB7DEB78091370390910A
:101BF0003803009729F0E0913703F09138030995F5
:101C0000CF91DF91FF91EF91BF91AF919F918F9114
:101C10007F916F915F914F913F912F910F900FBEE8
:101C20000F901F901895DF93CF93CDB7DEB728970D
:101C30000FB6F894DEBF0FBECDBF8A836B834C8393
:101C400081E089838C81882309F076C08A81282FDE
:101C500030E038872F838F8198858130910559F145
:101C60002F813885223031052CF48F81988500979B
:101C700069F060C02F8138852230310589F18F816C
:101C800098858330910509F440C054C0ABE3B0E0BF
:101C9000EBE3F0E08081482F8B81282F30E081E05A
:101CA00090E0022E02C0880F991F0A94E2F78095F7
:101CB00084238C93B5C0A8E3B0E0E8E3F0E0808132
:101CC000482F8B81282F30E081E090E0022E02C067
:101CD000880F991F0A94E2F7809584238C93A0C003
:101CE000A5E3B0E0E5E3F0E08081482F8B81282F69
:101CF00030E081E090E0022E02C0880F991F0A9424
:101D0000E2F7809584238C938BC0A2E3B0E0E2E3FA
:101D1000F0E08081482F8B81282F30E081E090E037
:101D2000022E02C0880F991F0A94E2F7809584233F
:101D30008C9376C0198274C08C81813009F070C098
:101D40008A81282F30E03E832D838D819E818130D2
:101D5000910549F12D813E81223031052CF48D8190
:101D60009E81009761F05BC02D813E81223031055C
:101D700071F18D819E8183309105E9F150C0ABE313
:101D8000B0E0EBE3F0E08081482F8B81282F30E03A
:101D900081E090E0022E02C0880F991F0A94E2F7BA
:101DA000842B8C933DC0A8E3B0E0E8E3F0E08081B1
:101DB000482F8B81282F30E081E090E0022E02C076
:101DC000880F991F0A94E2F7842B8C9329C0A5E30E
:101DD000B0E0E5E3F0E08081482F8B81282F30E0F0
:101DE00081E090E0022E02C0880F991F0A94E2F76A
:101DF000842B8C9315C0A2E3B0E0E2E3F0E0808195
:101E0000482F8B81282F30E081E090E0022E02C025
:101E1000880F991F0A94E2F7842B8C9301C01982D2
:101E2000898128960FB6F894DEBF0FBECDBFCF9143
:101E3000DF910895DF93CF93CDB7DEB728970FB624
:101E4000F894DEBF0FBECDBF8A836B834C8381E0E5
:101E500089838C81882309F076C08A81282F30E01D
:101E600038872F838F8198858130910559F12F8193
:101E70003885223031052CF48F819885009769F0E0
:101E800060C02F8138852230310589F18F81988596
:101E90008330910509F440C054C0AAE3B0E0EAE3FE
:101EA000F0E08081482F8B81282F30E081E090E0A6
:101EB000022E02C0880F991F0A94E2F780958423AE
:101EC0008C93B5C0A7E3B0E0E7E3F0E08081482F52
:101ED0008B81282F30E081E090E0022E02C0880F35
:101EE000991F0A94E2F7809584238C93A0C0A4E301
:101EF000B0E0E4E3F0E08081482F8B81282F30E0D0
:101F000081E090E0022E02C0880F991F0A94E2F748
:101F1000809584238C938BC0A1E3B0E0E1E3F0E0F3
:101F20008081482F8B81282F30E081E090E0022EC5
:101F300002C0880F991F0A94E2F7809584238C933E
:101F400076C0198274C08C81813009F070C08A819A
:101F5000282F30E03E832D838D819E818130910535
:101F600049F12D813E81223031052CF48D819E81F5
:101F7000009761F05BC02D813E812230310571F107
:101F80008D819E8183309105E9F150C0AAE3B0E0D4
:101F9000EAE3F0E08081482F8B81282F30E081E058
:101FA00090E0022E02C0880F991F0A94E2F7842B5A
:101FB0008C933DC0A7E3B0E0E7E3F0E08081482FD9
:101FC0008B81282F30E081E090E0022E02C0880F44
:101FD000991F0A94E2F7842B8C9329C0A4E3B0E004
:101FE000E4E3F0E08081482F8B81282F30E081E00E
:101FF00090E0022E02C0880F991F0A94E2F7842B0A
:102000008C9315C0A1E3B0E0E1E3F0E08081482FBC
:102010008B81282F30E081E090E0022E02C0880FF3
:10202000991F0A94E2F7842B8C9301C0198289814D
:1020300028960FB6F894DEBF0FBECDBFCF91DF91CB
:102040000895DF93CF9300D000D00F92CDB7DEB7C5
:102050008A836B838A81282F30E03D832C834C81D7
:102060005D814130510541F18C819D818230910526
:1020700034F42C813D812115310561F052C04C8131
:102080005D814230510551F18C819D8183309105F4
:10209000B9F147C0E9E3F0E08081282F30E08B817F
:1020A000882F90E0A90102C0559547958A95E2F7DF
:1020B000CA018170898335C0E6E3F0E08081282F72
:1020C00030E08B81882F90E0A90102C0559547959B
:1020D0008A95E2F7CA018170898323C0E3E3F0E0C7
:1020E0008081282F30E08B81882F90E0A90102C0E9
:1020F000559547958A95E2F7CA018170898311C089
:10210000E0E3F0E08081282F30E08B81882F90E0A1
:10211000A90102C0559547958A95E2F7CA018170D9
:10212000898389810F900F900F900F900F90CF911E
:10213000DF910895DF93CF9300D000D00F92CDB7F9
:10214000DEB78A836B8381E089838A81282F30E020
:102150003D832C838C819D818130910549F12C81B7
:102160003D81223031052CF48C819D81009761F0F6
:102170005BC02C813D812230310571F18C819D81C4
:1021800083309105E9F150C0ABE3B0E0EBE3F0E060
:102190008081482F8B81282F30E081E090E0022E53
:1021A00002C0880F991F0A94E2F784278C933DC0E0
:1021B000A8E3B0E0E8E3F0E08081482F8B81282F8E
:1021C00030E081E090E0022E02C0880F991F0A944F
:1021D000E2F784278C9329C0A5E3B0E0E5E3F0E0C3
:1021E0008081482F8B81282F30E081E090E0022E03
:1021F00002C0880F991F0A94E2F784278C9315C0B8
:10220000A2E3B0E0E2E3F0E08081482F8B81282F49
:1022100030E081E090E0022E02C0880F991F0A94FE
:10222000E2F784278C9301C0198289810F900F9067
:102230000F900F900F90CF91DF910895DF93CF9380
:1022400000D000D00F92CDB7DEB78A836B8381E0D8
:1022500089838A81282F30E03D832C838C819D8166
:1022600081309105D1F02C813D81223031052CF453
:102270008C819D81009761F01FC02C813D812230AF
:10228000310581F08C819D818330910581F014C0EE
:10229000EBE3F0E08B81808310C0E8E3F0E08B811A
:1022A00080830BC0E5E3F0E08B81808306C0E2E32E
:1022B000F0E08B81808301C0198289810F900F909B
:1022C0000F900F900F90CF91DF910895DF93CF93F0
:1022D00000D000D00F92CDB7DEB78A836B8381E048
:1022E00089838A81282F30E03D832C838C819D81D6
:1022F00081309105D1F02C813D81223031052CF4C3
:102300008C819D81009761F01FC02C813D8122301E
:10231000310581F08C819D818330910581F014C05D
:10232000EAE3F0E08B81808310C0E7E3F0E08B818B
:1023300080830BC0E4E3F0E08B81808306C0E1E39F
:10234000F0E08B81808301C0198289810F900F900A
:102350000F900F900F90CF91DF910895DF93CF935F
:1023600000D000D00F92CDB7DEB78A836B8381E0B7
:1023700089838A81282F30E03D832C838C819D8145
:102380008130910509F43EC02C813D812230310518
:102390002CF48C819D81009771F0A9C02C813D8126
:1023A0002230310509F455C08C819D81833091051F
:1023B00009F476C09CC0AAE3B0E0EAE3F0E08081D3
:1023C000482F8B81282F30E081E090E002C0880FF9
:1023D000991F2A95E2F7809584238C93ABE3B0E0B4
:1023E000EBE3F0E08081482F8B81282F30E081E003
:1023F00090E0022E02C0880F991F0A94E2F7842B06
:102400008C9376C0A7E3B0E0E7E3F0E08081482F4B
:102410008B81282F30E081E090E002C0880F991F67
:102420002A95E2F7809584238C93A8E3B0E0E8E353
:10243000F0E08081482F8B81282F30E081E090E010
:10244000022E02C0880F991F0A94E2F7842B8C9306
:102450004FC0A4E3B0E0E4E3F0E08081482F8B813B
:10246000282F30E081E090E002C0880F991F2A9564
:10247000E2F7809584238C93A5E3B0E0E5E3F0E0F8
:102480008081482F8B81282F30E081E090E0022E60
:1024900002C0880F991F0A94E2F7842B8C9328C0FE
:1024A000A1E3B0E0E1E3F0E08081482F8B81282FA9
:1024B00030E081E090E002C0880F991F2A95E2F792
:1024C000809584238C93A2E3B0E0E2E3F0E0808186
:1024D000482F8B81282F30E081E090E0022E02C04F
:1024E000880F991F0A94E2F7842B8C9301C01982FC
:1024F00089810F900F900F900F900F90CF91DF91E7
:102500000895DF93CF93CDB7DEB7A7E2B0E0E7E25F
:10251000F0E0808180648C93A7E2B0E0E7E2F0E035
:1025200080818F778C93A7E2B0E0E7E2F0E08081D2
:102530008F7D8C93A6E2B0E0E6E2F0E080818160DE
:102540008C93A6E2B0E0E6E2F0E080818D7F8C9390
:10255000A6E2B0E0E6E2F0E080818B7F8C93A6E219
:10256000B0E0E6E2F0E0808180688C93CF91DF916B
:102570000895DF93CF9300D000D00F92CDB7DEB790
:102580008D8319821A821B821C82A7E2B0E0E7E2E7
:10259000F0E08081807E8C93A7E2B0E0E7E2F0E09B
:1025A00090818D81892B8C93A6E2B0E0E6E2F0E089
:1025B000808180648C93E6E2F0E0808182958F7068
:1025C000882F90E0817090700097A9F3A6E2B0E0A8
:1025D000E6E2F0E0808180618C93E4E2F0E08081CB
:1025E0009181CC01A0E0B0E089839A83AB83BC8366
:1025F00089819A81AB81BC81BC01CD010F900F9084
:102600000F900F900F90CF91DF910895DF93CF93AC
:10261000CDB7DEB783E063E041E00E941A0FCF91AF
:10262000DF910895DF93CF9300D0CDB7DEB78983D4
:102630006A838981813031F483E063E041E00E9464
:10264000130E0DC08981882351F483E062E040E0DD
:102650000E94130E83E062E040E00E94130E8A8124
:10266000813081F481E064E041E00E94130E81E05A
:1026700065E040E00E94130E81E063E041E00E94CB
:10268000130E0DC08A81882351F481E065E040E09B
:102690000E94130E81E065E040E00E94130E0F904F
:1026A0000F90CF91DF910895DF93CF9300D0CDB7F6
:1026B000DEB789836A838981813081F483E063E0B6
:1026C00040E00E94130E83E062E041E00E94130E9E
:1026D00083E063E041E00E94130E0DC089818823EE
:1026E00051F483E063E040E00E94130E83E062E077
:1026F00040E00E94130E8A81813081F481E064E021
:1027000040E00E94130E81E065E041E00E94130E5C
:1027100081E063E041E00E94130E0DC08A818823AE
:1027200051F481E064E040E00E94130E81E065E036
:1027300040E00E94130E0F900F90CF91DF9108950B
:10274000DF93CF93CDB7DEB783E063E040E00E9434
:10275000130ECF91DF910895DF93CF93CDB7DEB7FE
:102760000E94811280E060E040E00E941A0FCF9149
:10277000DF910895DF93CF9300D000D00F92CDB7B3
:10278000DEB78D8319821A821B821C828D810E9482
:10279000B912DC01CB0189839A83AB83BC83898125
:1027A0009A81AB81BC812EEE32E040E050E0BC016A
:1027B000CD010E949228DC01CB01BC01CD010E9419
:1027C000A904DC01CB01BC01CD0120E030ED4FEBD1
:1027D00054E40E941903DC01CB01BC01CD010E942D
:1027E0004900DC01CB0189839A83AB83BC83898157
:1027F0009A810F900F900F900F900F90CF91DF91D3
:1028000008950F931F93DF93CF93CDB7DEB7C057D3
:10281000D0400FB6F894DEBF0FBECDBFFE01E35926
:10282000FF4F80E090E0A0E2B2E480839183A28336
:10283000B3838E0107591F4FFE01E359FF4F60819B
:1028400071818281938120E030E04AEF54E40E945C
:102850001F02DC01CB01F80180839183A283B38343
:10286000FE01E759FF4F608171818281938120E0F1
:1028700030E040E85FE30E942504882344F4FE0131
:10288000E959FF4F81E090E09183808364C0FE01AD
:10289000E759FF4F608171818281938120E03FEF92
:1028A0004FE757E40E94C50318160CF043C0FE0121
:1028B000E359FF4F608171818281938120E030E094
:1028C00040E251E40E941F02DC01CB018E01095954
:1028D0001F4FBC01CD010E944900DC01CB01F80172
:1028E000918380831FC0FE01EB59FF4F88EC90E07D
:1028F00091838083FE01EB59FF4F80819181019785
:10290000F1F7FE01EB59FF4F91838083DE01A95956
:10291000BF4FFE01E959FF4F8081918101971196C8
:102920009C938E93FE01E959FF4F8081918100971E
:10293000D1F627C08E0109591F4FFE01E759FF4FFD
:1029400060817181828193810E944900DC01CB0109
:10295000F80191838083DE01AD59BF4FFE01E95933
:10296000FF4F808191818D939C93FE01ED59FF4F24
:10297000808191810197F1F7FE01ED59FF4F91831D
:10298000808382E062E041E00E941A0F82E063E00F
:1029900041E00E941A0FFE01E15AFF4F80E090E0F3
:1029A000A0EAB0E480839183A283B3838E01055AA9
:1029B0001F4FFE01E15AFF4F608171818281938137
:1029C00020E030E04AEF54E40E941F02DC01CB011A
:1029D000F80180839183A283B383FE01E55AFF4F00
:1029E000608171818281938120E030E040E85FE383
:1029F0000E942504882344F4FE01E75AFF4F81E03A
:102A000090E09183808364C0FE01E55AFF4F6081AE
:102A100071818281938120E03FEF4FE757E40E946C
:102A2000C50318160CF043C0FE01E15AFF4F608148
:102A300071818281938120E030E040E251E40E9484
:102A40001F02DC01CB018E01075A1F4FBC01CD01D3
:102A50000E944900DC01CB01F801918380831FC0F3
:102A6000FE01E95AFF4F88EC90E091838083FE01DC
:102A7000E95AFF4F808191810197F1F7FE01E95AF0
:102A8000FF4F91838083DE01A75ABF4FFE01E75AB3
:102A9000FF4F80819181019711969C938E93FE0147
:102AA000E75AFF4F808191810097D1F627C08E01B0
:102AB000075A1F4FFE01E55AFF4F608171818281E5
:102AC00093810E944900DC01CB01F801918380834E
:102AD000DE01AB5ABF4FFE01E75AFF4F8081918163
:102AE0008D939C93FE01EB5AFF4F8081918101975A
:102AF000F1F7FE01EB5AFF4F9183808382E064E09F
:102B000041E00E941A0F82E065E041E00E941A0F46
:102B100082E066E041E00E941A0F82E067E041E057
:102B20000E941A0F83E30E94B018FE01EF5AFF4F74
:102B300080E090E0A0E0B0E480839183A283B3833F
:102B40008E01035B1F4FFE01EF5AFF4F60817181C1
:102B50008281938120E030E04AEF54E40E941F021A
:102B6000DC01CB01F80180839183A283B383FE0152
:102B7000E35BFF4F608171818281938120E030E0CF
:102B800040E85FE30E942504882344F4FE01E55BEE
:102B9000FF4F81E090E09183808364C0FE01E35B9E
:102BA000FF4F608171818281938120E03FEF4FE789
:102BB00057E40E94C50318160CF043C0FE01EF5AFB
:102BC000FF4F608171818281938120E030E040E29B
:102BD00051E40E941F02DC01CB018E01055B1F4FF7
:102BE000BC01CD010E944900DC01CB01F8019183B9
:102BF00080831FC0FE01E75BFF4F88EC90E091836C
:102C00008083FE01E75BFF4F808191810197F1F79F
:102C1000FE01E75BFF4F91838083DE01A55BBF4F21
:102C2000FE01E55BFF4F80819181019711969C9396
:102C30008E93FE01E55BFF4F808191810097D1F675
:102C400027C08E01055B1F4FFE01E35BFF4F6081D4
:102C50007181828193810E944900DC01CB01F801DE
:102C600091838083DE01A95BBF4FFE01E55BFF4FCF
:102C7000808191818D939C93FE01E95BFF4F808160
:102C800091810197F1F7FE01E95BFF4F918380830A
:102C900082E30E94B018FE01ED5BFF4F80E090E000
:102CA000A0E0B0E480839183A283B3838E01015CB2
:102CB0001F4FFE01ED5BFF4F608171818281938127
:102CC00020E030E04AEF54E40E941F02DC01CB0117
:102CD000F80180839183A283B383FE01FF96608114
:102CE00071818281938120E030E040E85FE30E94BF
:102CF000250488232CF481E090E09EAF8DAF46C080
:102D0000FE01FF96608171818281938120E03FEF17
:102D10004FE757E40E94C503181664F5FE01ED5B0A
:102D2000FF4F608171818281938120E030E040E239
:102D300051E40E941F02DC01CB01BC01CD010E94C5
:102D40004900DC01CB019EAF8DAF0FC088EC90E055
:102D50009CAF8BAF8BAD9CAD0197F1F79CAF8BAF68
:102D60008DAD9EAD01979EAF8DAF8DAD9EAD0097A1
:102D700069F716C0FE01FF9660817181828193819F
:102D80000E944900DC01CB019EAF8DAF8DAD9EADA1
:102D90009AAF89AF89AD9AAD0197F1F79AAF89AF34
:102DA00088E20E94B01880E090E0A0E0B0E48DAB33
:102DB0009EABAFABB8AF6DA97EA98FA998AD20E04F
:102DC00030E04AEF54E40E941F02DC01CB0189ABE2
:102DD0009AABABABBCAB69A97AA98BA99CA920E043
:102DE00030E040E85FE30E94250488232CF481E072
:102DF00090E098AB8FA73FC069A97AA98BA99CA93D
:102E000020E03FEF4FE757E40E94C50318164CF54A
:102E10006DA97EA98FA998AD20E030E040E251E491
:102E20000E941F02DC01CB01BC01CD010E944900C0
:102E3000DC01CB0198AB8FA70FC088EC90E09EA778
:102E40008DA78DA59EA50197F1F79EA78DA78FA5AC
:102E500098A9019798AB8FA78FA598A9009769F7B4
:102E600014C069A97AA98BA99CA90E944900DC0118
:102E7000CB0198AB8FA78FA598A99CA78BA78BA5F3
:102E80009CA50197F1F79CA78BA78CE00E94B01836
:102E900080E090E0A0E0B0E48FA398A7A9A7BAA72C
:102EA0006FA178A589A59AA520E030E04AEF54E407
:102EB0000E941F02DC01CB018BA39CA3ADA3BEA388
:102EC0006BA17CA18DA19EA120E030E040E85FE3F2
:102ED0000E94250488232CF481E090E09AA389A322
:102EE0003FC06BA17CA18DA19EA120E03FEF4FE7E9
:102EF00057E40E94C50318164CF56FA178A589A563
:102F00009AA520E030E040E251E40E941F02DC017B
:102F1000CB01BC01CD010E944900DC01CB019AA389
:102F200089A30FC088EC90E098A38F8F8F8D98A114
:102F30000197F1F798A38F8F89A19AA101979AA37E
:102F400089A389A19AA1009769F714C06BA17CA1FC
:102F50008DA19EA10E944900DC01CB019AA389A307
:102F600089A19AA19E8F8D8F8D8D9E8D0197F1F7EE
:102F70009E8F8D8F86E00E94B01880E090E0A0E0E8
:102F8000B0E4898F9A8FAB8FBC8F698D7A8D8B8DD2
:102F90009C8D20E030E04AEF54E40E941F02DC01E7
:102FA000CB018D8B9E8BAF8BB88F6D897E898F897E
:102FB000988D20E030E040E85FE30E9425048823FC
:102FC0002CF481E090E09C8B8B8B3FC06D897E89D7
:102FD0008F89988D20E03FEF4FE757E40E94C503AB
:102FE00018164CF5698D7A8D8B8D9C8D20E030E024
:102FF00040E251E40E941F02DC01CB01BC01CD0183
:103000000E944900DC01CB019C8B8B8B0FC088ECAC
:1030100090E09A8B898B89899A890197F1F79A8B2D
:10302000898B8B899C8901979C8B8B8B8B899C8945
:10303000009769F714C06D897E898F89988D0E94E9
:103040004900DC01CB019C8B8B8B8B899C89988BF5
:103050008F878F8598890197F1F7988B8F8781E00B
:103060000E94B01880E090E0A0E0B0E48B879C87DD
:10307000AD87BE876B857C858D859E8520E030E0A1
:103080004AEF54E40E941F02DC01CB018F83988732
:10309000A987BA876F81788589859A8520E030E095
:1030A00040E85FE30E94250488232CF481E090E04F
:1030B0009E838D833FC06F81788589859A8520E0C6
:1030C0003FEF4FE757E40E94C50318164CF56B8598
:1030D0007C858D859E8520E030E040E251E40E94B1
:1030E0001F02DC01CB01BC01CD010E944900DC01C3
:1030F000CB019E838D830FC088EC90E09C838B83F3
:103100008B819C810197F1F79C838B838D819E81BC
:1031100001979E838D838D819E81009769F714C0EE
:103120006F81788589859A850E944900DC01CB01F1
:103130009E838D838D819E819A83898389819A81E3
:103140000197F1F79A838983C059DF4F0FB6F8943E
:10315000DEBF0FBECDBFCF91DF911F910F910895BC
:103160000F931F93DF93CF93CDB7DEB7C754D040F3
:103170000FB6F894DEBF0FBECDBFFE01E95BFF4F77
:103180008083E5E3F0E08081982F9F70FE01E95B8A
:10319000FF4F8081807F892B982F82E0692F0E94CA
:1031A0001E1182E062E040E00E94130E82E063E0C4
:1031B00041E00E94130EFE01ED5BFF4F80E090E0C6
:1031C000A0E0B0E480839183A283B3838E01015C8D
:1031D0001F4FFE01ED5BFF4F608171818281938102
:1031E00020E030E04AEF54E40E941F02DC01CB01F2
:1031F000F80180839183A283B383FE01FF966081EF
:1032000071818281938120E030E040E85FE30E9499
:10321000250488232CF481E090E09EAF8DAF46C05A
:10322000FE01FF96608171818281938120E03FEFF2
:103230004FE757E40E94C503181664F5FE01ED5BE5
:10324000FF4F608171818281938120E030E040E214
:1032500051E40E941F02DC01CB01BC01CD010E94A0
:103260004900DC01CB019EAF8DAF0FC088EC90E030
:103270009CAF8BAF8BAD9CAD0197F1F79CAF8BAF43
:103280008DAD9EAD01979EAF8DAF8DAD9EAD00977C
:1032900069F716C0FE01FF9660817181828193817A
:1032A0000E944900DC01CB019EAF8DAF8DAD9EAD7C
:1032B0009AAF89AF89AD9AAD0197F1F79AAF89AF0F
:1032C00082E063E040E00E94130E80E090E0A0E026
:1032D000B0E48DAB9EABAFABB8AF6DA97EA98FA9A3
:1032E00098AD20E030E04AEF54E40E941F02DC0178
:1032F000CB0189AB9AABABABBCAB69A97AA98BA963
:103300009CA920E030E040E85FE30E942504882388
:103310002CF481E090E098AB8FA73FC069A97AA90F
:103320008BA99CA920E03FEF4FE757E40E94C5031B
:1033300018164CF56DA97EA98FA998AD20E030E054
:1033400040E251E40E941F02DC01CB01BC01CD012F
:103350000E944900DC01CB0198AB8FA70FC088EC1D
:1033600090E09EA78DA78DA59EA50197F1F79EA73A
:103370008DA78FA598A9019798AB8FA78FA598A91E
:10338000009769F714C069A97AA98BA99CA90E9422
:103390004900DC01CB0198AB8FA78FA598A99CA70A
:1033A0008BA78BA59CA50197F1F79CA78BA7E5E3BD
:1033B000F0E08081282F2F70FE01E95BFF4F8081B4
:1033C000882F90E082959295907F9827807F98270C
:1033D000822B982F82E0692F0E941E1182E063E009
:1033E00041E00E94130E80E090E0A0E0B0E48FA3E3
:1033F00098A7A9A7BAA76FA178A589A59AA520E043
:1034000030E04AEF54E40E941F02DC01CB018BA3A1
:103410009CA3ADA3BEA36BA17CA18DA19EA120E026
:1034200030E040E85FE30E94250488232CF481E02B
:1034300090E09AA389A33FC06BA17CA18DA19EA11E
:1034400020E03FEF4FE757E40E94C50318164CF504
:103450006FA178A589A59AA520E030E040E251E46B
:103460000E941F02DC01CB01BC01CD010E9449007A
:10347000DC01CB019AA389A30FC088EC90E098A34C
:103480008F8F8F8D98A10197F1F798A38F8F89A1C6
:103490009AA101979AA389A389A19AA1009769F794
:1034A00014C06BA17CA18DA19EA10E944900DC01EA
:1034B000CB019AA389A389A19AA19E8F8D8F8D8D0F
:1034C0009E8D0197F1F79E8F8D8F82E063E040E043
:1034D0000E94130E80E090E0A0E0B0E4898F9A8F04
:1034E000AB8FBC8F698D7A8D8B8D9C8D20E030E009
:1034F0004AEF54E40E941F02DC01CB018D8B9E8BAE
:10350000AF8BB88F6D897E898F89988D20E030E0F0
:1035100040E85FE30E94250488232CF481E090E0DA
:103520009C8B8B8B3FC06D897E898F89988D20E025
:103530003FEF4FE757E40E94C50318164CF5698D1D
:103540007A8D8B8D9C8D20E030E040E251E40E942A
:103550001F02DC01CB01BC01CD010E944900DC014E
:10356000CB019C8B8B8B0FC088EC90E09A8B898B66
:1035700089899A890197F1F79A8B898B8B899C8924
:1035800001979C8B8B8B8B899C89009769F714C062
:103590006D897E898F89988D0E944900DC01CB015D
:1035A0009C8B8B8B8B899C89988B8F878F85988937
:1035B0000197F1F7988B8F8780E090E0A0EAB0E464
:1035C0008B879C87AD87BE876B857C858D859E8527
:1035D00020E030E04AEF54E40E941F02DC01CB01FE
:1035E0008F839887A987BA876F81788589859A851F
:1035F00020E030E040E85FE30E94250488232CF4BB
:1036000081E090E09E838D833FC06F8178858985BE
:103610009A8520E03FEF4FE757E40E94C503181654
:103620004CF56B857C858D859E8520E030E040E201
:1036300051E40E941F02DC01CB01BC01CD010E94BC
:103640004900DC01CB019E838D830FC088EC90E0A4
:103650009C838B838B819C810197F1F79C838B8367
:103660008D819E8101979E838D838D819E810097A0
:1036700069F714C06F81788589859A850E94490011
:10368000DC01CB019E838D838D819E819A8389830A
:1036900089819A810197F1F79A838983C95BDF4F0A
:1036A0000FB6F894DEBF0FBECDBFCF91DF911F9153
:1036B0000F910895DF93CF93CDB7DEB7E9970FB69B
:1036C000F894DEBF0FBECDBF89AFE5E3F0E08081A7
:1036D000982F9F7089AD807F892B982F82E0692F6A
:1036E0000E941E1182E062E041E00E94130E82E01F
:1036F00063E041E00E94130E80E090E0A0E0B0E4BF
:103700008DAB9EABAFABB8AF6DA97EA98FA998ADBD
:1037100020E030E04AEF54E40E941F02DC01CB01BC
:1037200089AB9AABABABBCAB69A97AA98BA99CA9B5
:1037300020E030E040E85FE30E94250488232CF479
:1037400081E090E098AB8FA73FC069A97AA98BA9C7
:103750009CA920E03FEF4FE757E40E94C5031816ED
:103760004CF56DA97EA98FA998AD20E030E040E22C
:1037700051E40E941F02DC01CB01BC01CD010E947B
:103780004900DC01CB0198AB8FA70FC088EC90E01B
:103790009EA78DA78DA59EA50197F1F79EA78DA742
:1037A0008FA598A9019798AB8FA78FA598A9009787
:1037B00069F714C069A97AA98BA99CA90E9449003C
:1037C000DC01CB0198AB8FA78FA598A99CA78BA7ED
:1037D0008BA59CA50197F1F79CA78BA782E063E0DE
:1037E00040E00E94130E80E090E0A0E0B0E48FA3E0
:1037F00098A7A9A7BAA76FA178A589A59AA520E03F
:1038000030E04AEF54E40E941F02DC01CB018BA39D
:103810009CA3ADA3BEA36BA17CA18DA19EA120E022
:1038200030E040E85FE30E94250488232CF481E027
:1038300090E09AA389A33FC06BA17CA18DA19EA11A
:1038400020E03FEF4FE757E40E94C50318164CF500
:103850006FA178A589A59AA520E030E040E251E467
:103860000E941F02DC01CB01BC01CD010E94490076
:10387000DC01CB019AA389A30FC088EC90E098A348
:103880008F8F8F8D98A10197F1F798A38F8F89A1C2
:103890009AA101979AA389A389A19AA1009769F790
:1038A00014C06BA17CA18DA19EA10E944900DC01E6
:1038B000CB019AA389A389A19AA19E8F8D8F8D8D0B
:1038C0009E8D0197F1F79E8F8D8FE5E3F0E080816B
:1038D000282F2F7089AD882F90E082959295907F48
:1038E0009827807F9827822B982F82E0692F0E944B
:1038F0001E1182E062E041E00E94130E82E063E06C
:1039000041E00E94130E80E090E0A0E0B0E4898FD7
:103910009A8FAB8FBC8F698D7A8D8B8D9C8D20E0BB
:1039200030E04AEF54E40E941F02DC01CB018D8B92
:103930009E8BAF8BB88F6D897E898F89988D20E0A3
:1039400030E040E85FE30E94250488232CF481E006
:1039500090E09C8B8B8B3FC06D897E898F89988D81
:1039600020E03FEF4FE757E40E94C50318164CF5DF
:10397000698D7A8D8B8D9C8D20E030E040E251E4A2
:103980000E941F02DC01CB01BC01CD010E94490055
:10399000DC01CB019C8B8B8B0FC088EC90E09A8B69
:1039A000898B89899A890197F1F79A8B898B8B8901
:1039B0009C8901979C8B8B8B8B899C89009769F7DD
:1039C00014C06D897E898F89988D0E944900DC0121
:1039D000CB019C8B8B8B8B899C89988B8F878F8558
:1039E00098890197F1F7988B8F8782E063E040E038
:1039F0000E94130E80E090E0A0E0B0E48B879C87EB
:103A0000AD87BE876B857C858D859E8520E030E007
:103A10004AEF54E40E941F02DC01CB018F83988798
:103A2000A987BA876F81788589859A8520E030E0FB
:103A300040E85FE30E94250488232CF481E090E0B5
:103A40009E838D833FC06F81788589859A8520E02C
:103A50003FEF4FE757E40E94C50318164CF56B85FE
:103A60007C858D859E8520E030E040E251E40E9417
:103A70001F02DC01CB01BC01CD010E944900DC0129
:103A8000CB019E838D830FC088EC90E09C838B8359
:103A90008B819C810197F1F79C838B838D819E8123
:103AA00001979E838D838D819E81009769F714C055
:103AB0006F81788589859A850E944900DC01CB0158
:103AC0009E838D838D819E819A83898389819A814A
:103AD0000197F1F79A838983E9960FB6F894DEBFD0
:103AE0000FBECDBFCF91DF910895DF93CF9300D06C
:103AF0000F92CDB7DEB79B838A8319820EC089816E
:103B0000282F30E08A819B81FC01E20FF31F808126
:103B10000E945A1B89818F5F89838981282F30E019
:103B20008A819B81FC01E20FF31F8081882339F792
:103B30000F900F900F90CF91DF910895DF93CF9367
:103B4000CDB7DEB72A970FB6F894DEBF0FBECDBF54
:103B500098878F838F819885009719F480E30E945E
:103B60005A1B19821FC08981E82FFF27E7FDF095B6
:103B70008F8198852AE030E0B9010E94B128282F72
:103B8000CE010296E80FF91F20838F8198852AE0E5
:103B900030E0B9010E94B128CB0198878F838981D9
:103BA0008F5F89838F8198850097E9F6898181509D
:103BB00089837EC08981282F332727FD3095CE0148
:103BC0000296FC01E20FF31F8081282F30E03A8734
:103BD000298789859A858430910509F44FC0298504
:103BE0003A8525303105D4F489859A85813091054F
:103BF000C9F129853A85223031052CF489859A85C9
:103C0000009761F152C029853A852230310571F162
:103C100089859A858330910569F147C029853A8560
:103C200027303105B9F189859A85883091055CF492
:103C300029853A852530310529F189859A8586308F
:103C4000910521F132C029853A852830310531F1BD
:103C500089859A858930910529F127C080E30E94E2
:103C60005A1B23C081E30E945A1B1FC082E30E949B
:103C70005A1B1BC083E30E945A1B17C084E30E9497
:103C80005A1B13C085E30E945A1B0FC086E30E9493
:103C90005A1B0BC087E30E945A1B07C088E30E948F
:103CA0005A1B03C089E30E945A1B89818150898372
:103CB000898188230CF07ECF2A960FB6F894DEBF58
:103CC0000FBECDBFCF91DF910895DF93CF9300D08A
:103CD000CDB7DEB789836A838981882321F48A81FD
:103CE00080580E94B0188981813021F48A818054E3
:103CF0000E94B0180F900F90CF91DF910895DF933D
:103D0000CF93CDB7DEB72E970FB6F894DEBF0FBEB8
:103D1000CDBF81E00E94B01880E090E0A0E0B0E468
:103D20008B879C87AD87BE876B857C858D859E85BF
:103D300020E030E04AEF54E40E941F02DC01CB0196
:103D40008F839887A987BA876F81788589859A85B7
:103D500020E030E040E85FE30E94250488232CF453
:103D600081E090E09E838D833FC06F817885898557
:103D70009A8520E03FEF4FE757E40E94C5031816ED
:103D80004CF56B857C858D859E8520E030E040E29A
:103D900051E40E941F02DC01CB01BC01CD010E9455
:103DA0004900DC01CB019E838D830FC088EC90E03D
:103DB0009C838B838B819C810197F1F79C838B8300
:103DC0008D819E8101979E838D838D819E81009739
:103DD00069F714C06F81788589859A850E944900AA
:103DE000DC01CB019E838D838D819E819A838983A3
:103DF00089819A810197F1F79A8389832E960FB66C
:103E0000F894DEBF0FBECDBFCF91DF910895DF9351
:103E1000CF93CDB7DEB780E065E00E94AE1180E0C1
:103E200066E00E94AE1180E067E00E94AE1180E083
:103E300061E041E00E941A0F80E062E041E00E94F0
:103E40001A0F80E063E041E00E941A0F80E064E016
:103E500041E00E941A0F80E061E041E00E94130EF1
:103E600080E062E041E00E94130E80E063E041E008
:103E70000E94130E80E064E041E00E94130ECF9197
:103E8000DF910895DF93CF9300D00F92CDB7DEB7C7
:103E90008EE289831B823FC08B81982F9F5F80E0D9
:103EA000692F40E00E94130E1A8227C08A81982F42
:103EB0009B5F80E0692F0E9421108823D9F48B81B9
:103EC000282F30E08A81482F50E0C901880F991FC0
:103ED000820F931F840F951FFC01E751FD4F8081D6
:103EE00089838A81982F9B5F80E0692F0E9421102F
:103EF0008823B9F38A818F5F8A838A818330B0F205
:103F00008B81982F9F5F80E0692F41E00E94130E04
:103F10008B818F5F8B838B81843008F4BDCF898147
:103F20000F900F900F90CF91DF910895DF93CF9373
:103F300000D000D00F92CDB7DEB79C838B836D830A
:103F40001A820E94FD0A80E50E94360B8D810E9434
:103F5000880B0EC08A81282F30E08B819C81FC0168
:103F6000E20FF31F80810E94880B8A818F5F8A8312
:103F70008A81282F30E08B819C81FC01E20FF31FA6
:103F80008081882339F70E94BC0B0F900F900F900F
:103F90000F900F90CF91DF9108950F931F93DF93B0
:103FA000CF9300D000D00F92CDB7DEB79C838B8328
:103FB0006D831A820E94FD0A80E50E94360B8D8176
:103FC0000E94880B16C00E94FD0A80E50E945F0BCC
:103FD0008A81282F30E08B819C818C01020F131F76
:103FE0000E94A20BF80180830E94BC0B8A818F5F24
:103FF0008A838A81282F30E08B819C81FC01E20F2B
:10400000F31F80818823F9F68A81282F30E08B8185
:104010009C81FC01E20FF31F10820F900F900F9014
:104020000F900F90CF91DF911F910F910895DF9323
:10403000CF93CDB7DEB72D970FB6F894DEBF0FBE86
:10404000CDBF9D878C87188619861A861B861C8291
:104050001D821E821F821B8281E08A83198229C0F1
:1040600088859985AA85BB852AE030E040E050E04C
:10407000BC01CD010E949228AB01BC018981282F8F
:1040800030E08C859D85FC01E20FF31F8081882F35
:1040900090E0A0E0B0E0840F951FA61FB71FC09767
:1040A000A109B10988879987AA87BB8789818F5F12
:1040B000898389818830A0F246C088859985AA8540
:1040C000BB852AE030E040E050E0BC01CD010E9419
:1040D000C528DC01CB018B8388859985AA85BB85A2
:1040E0002AE030E040E050E0BC01CD010E94C5284C
:1040F000DA01C90188879987AA87BB878B81282F16
:1041000030E08A81882F90E0AC01249FC001259F78
:10411000900D349F900D11249C01442737FD40954C
:10412000542F8C819D81AE81BF81820F931FA41F6C
:10413000B51F8C839D83AE83BF838A81882F90E0D7
:10414000880F991F8A8388859985AA85BB850097E2
:10415000A105B10509F0B1CF8C812D960FB6F89469
:10416000DEBF0FBECDBFCF91DF910895DF93CF9318
:10417000CDB7DEB780913B03882321F080913A03CD
:10418000803329F480E690E00E94170707C088E694
:1041900090E00E94170781E080933903CF91DF916F
:1041A0000895DF93CF93CDB7DEB70E9447080E94F2
:1041B000D90A0E94071F0E9401140E94FD090E9453
:1041C00006130E9481120E94AC1383E062E040E07B
:1041D0000E941A0F83E062E00E94AE1180E00E940C
:1041E000D80B80E062E00E947C0C26EB30E280E09D
:1041F000B9010E943B0DCF91DF910895DF93CF93DA
:104200000F92CDB7DEB719820E947F1E8EE790E035
:104210000E94751D81E060E00E94651E85E890E0C7
:104220000E94751D0E94421F898303C00E94421F85
:10423000898389818E32D1F389810F90CF91DF916B
:104240000895DF93CF93CDB7DEB7E9970FB6F89413
:10425000DEBF0FBECDBF8BE890E09A83898387E3F2
:10426000FE013396DF01982F1D929A95E9F781E0C0
:104270008B8381E08C8381E08D8381E08E8381E07C
:104280008F8381E0888781E0898781E08A8781E068
:104290008B8710923B0381E990E00E941707CE01C3
:1042A00003960E944407CE01039629813A81B90101
:1042B0000E94D526882361F580EB90E00E941707C5
:1042C00081EC90E00E941707CE0103960E944407FC
:1042D000CE01039661E00E94961F80ED90E00E945F
:1042E0001707CE0103960E944407CE01039661EBA7
:1042F0000E94961F80EE90E00E94170785EF92E0E3
:104300000E94440785EF92E063EF0E94961F06C06B
:1043100083EF90E00E9417070E94FE20E9960FB6F7
:10432000F894DEBF0FBECDBFCF91DF910895DF932C
:10433000CF93CDB7DEB7CC53D1400FB6F894DEBFE4
:104340000FBECDBF18AE1FAA85E0FE01F996DF01B2
:10435000982F1D929A95E9F781E089AF81E08AAFA5
:1043600081E08BAF81E08CAF8FEFFE01FE96DF0125
:10437000982F1D929A95E9F781E08EAF81E08FAF7B
:1043800081E0FE01E05CFF4F8083FE01EF5BFF4FA9
:1043900081E08083FE01EE5BFF4F81E0808381E05E
:1043A00080933B0380912703882F90E08330910511
:1043B00039F488E293E00E941D2785E0809327036B
:1043C00088E293E00E941424882309F4F6C10E9435
:1043D0007F1E83E091E00E94751DCE01CE9661EBB9
:1043E0000E94CD1F1DC00E94421F8FAB8FA98E322D
:1043F000B9F088AD282F30E0CE01C996FC01E20F5C
:10440000F31F8FA9808388AD982F9F5F81E0692F6C
:104410000E94651E8FA90E945A1B88AD8F5F88AFCE
:1044200088AD843001F788AD282F30E0CE01C996E1
:10443000FC01E20FF31F108285EF92E063EF0E9410
:10444000CD1F85EF92E00E945E27DC01CB018BAB94
:104450009CABADABBEABCE01C9960E945E27DC0122
:10446000CB018FA798ABA9ABBAABCE01CE960E9479
:104470005E27DC01CB018BA79CA7ADA7BEA78BA9AC
:104480009CA9ADA9BEA92FA538A949A95AA9BC01C3
:10449000CD010E94E723882309F081C00E947F1E7E
:1044A00088E191E00E94751D81E060E00E94651E38
:1044B00082E291E00E94751D80E090E0AAE7B4E4FA
:1044C0008FA398A7A9A7BAA76FA178A589A59AA530
:1044D00020E030E04AEF54E40E941F02DC01CB01EF
:1044E0008BA39CA3ADA3BEA36BA17CA18DA19EA118
:1044F00020E030E040E85FE30E94250488232CF4AC
:1045000081E090E09AA389A33FC06BA17CA18DA11B
:104510009EA120E03FEF4FE757E40E94C503181625
:104520004CF56FA178A589A59AA520E030E040E27E
:1045300051E40E941F02DC01CB01BC01CD010E94AD
:104540004900DC01CB019AA389A30FC088EC90E05D
:1045500098A38F8F8F8D98A10197F1F798A38F8FD4
:1045600089A19AA101979AA389A389A19AA10097E9
:1045700069F723C16BA17CA18DA19EA10E94490076
:10458000DC01CB019AA389A389A19AA19E8F8D8F6B
:104590008D8D9E8D0197F1F79E8F8D8F0EC18BA50E
:1045A0009CA5ADA5BEA52FA538A949A95AA9BC01AE
:1045B000CD010E94E723882309F081C00E947F1E5D
:1045C00088E191E00E94751D81E060E00E94651E17
:1045D00083E391E00E94751D80E090E0AAE7B4E4D7
:1045E000898F9A8FAB8FBC8F698D7A8D8B8D9C8DC7
:1045F00020E030E04AEF54E40E941F02DC01CB01CE
:104600008D8B9E8BAF8BB88F6D897E898F89988DAE
:1046100020E030E040E85FE30E94250488232CF48A
:1046200081E090E09C8B8B8B3FC06D897E898F8968
:10463000988D20E03FEF4FE757E40E94C50318161E
:104640004CF5698D7A8D8B8D9C8D20E030E040E2B9
:1046500051E40E941F02DC01CB01BC01CD010E948C
:104660004900DC01CB019C8B8B8B0FC088EC90E068
:104670009A8B898B89899A890197F1F79A8B898B13
:104680008B899C8901979C8B8B8B8B899C8900974C
:1046900069F793C06D897E898F89988D0E94490042
:1046A000DC01CB019C8B8B8B8B899C89988B8F87B2
:1046B0008F8598890197F1F7988B8F877EC00E942C
:1046C0007F1E82E491E00E94751D81E060E00E94FF
:1046D000121380E090E0AAE7B4E48B879C87AD8753
:1046E000BE876B857C858D859E8520E030E04AEF16
:1046F00054E40E941F02DC01CB018F839887A987B5
:10470000BA876F81788589859A8520E030E040E816
:104710005FE30E94250488232CF481E090E09E83CF
:104720008D833FC06F81788589859A8520E03FEF32
:104730004FE757E40E94C50318164CF56B857C853E
:104740008D859E8520E030E040E251E40E941F020A
:10475000DC01CB01BC01CD010E944900DC01CB0191
:104760009E838D830FC088EC90E09C838B838B812C
:104770009C810197F1F79C838B838D819E810197AA
:104780009E838D838D819E81009769F714C06F8110
:10479000788589859A850E944900DC01CB019E833A
:1047A0008D838D819E819A83898389819A810197E6
:1047B000F1F79A8389830E94A013C45CDE4F0FB681
:1047C000F894DEBF0FBECDBFCF91DF910895DF9388
:1047D000CF93CDB7DEB729970FB6F894DEBF0FBEE3
:1047E000CDBF69837A838B839C832D833E834F83E4
:1047F000588729813A814B815C818D819E81AF816F
:10480000B885281739074A075B0710F4198602C0D4
:1048100081E08987898529960FB6F894DEBF0FBE9F
:10482000CDBFCF91DF910895DF93CF93CDB7DEB7A2
:10483000E4970FB6F894DEBF0FBECDBF9CAB8BAB39
:104840001DA61BA60E947F1E8BE491E00E94751D91
:104850001DC00E94421F8CA78CA58E32B9F08DA579
:10486000282F30E0CE018E96FC01E20FF31F8CA5BD
:1048700080838DA5982F9F5F81E0692F0E94651E20
:104880008AE20E945A1B8DA58F5F8DA78DA584306B
:1048900001F71AAA0E947F1E8CE591E00E94751D07
:1048A00080E090E0AAE7B4E48FA398A7A9A7BAA7ED
:1048B0006FA178A589A59AA520E030E04AEF54E4DD
:1048C0000E941F02DC01CB018BA39CA3ADA3BEA35E
:1048D0006BA17CA18DA19EA120E030E040E85FE3C8
:1048E0000E94250488232CF481E090E09AA389A3F8
:1048F0003FC06BA17CA18DA19EA120E03FEF4FE7BF
:1049000057E40E94C50318164CF56FA178A589A538
:104910009AA520E030E040E251E40E941F02DC0151
:10492000CB01BC01CD010E944900DC01CB019AA35F
:1049300089A30FC088EC90E098A38F8F8F8D98A1EA
:104940000197F1F798A38F8F89A19AA101979AA354
:1049500089A389A19AA1009769F714C06BA17CA1D2
:104960008DA19EA10E944900DC01CB019AA389A3DD
:1049700089A19AA19E8F8D8F8D8D9E8D0197F1F7C4
:104980009E8F8D8FCE018E962BA93CA9B9010E94D6
:10499000D526882309F07BC00E947F1E8AE691E01D
:1049A0000E94751D81E08BA780E090E0AAE7B4E447
:1049B000898F9A8FAB8FBC8F698D7A8D8B8D9C8DF3
:1049C00020E030E04AEF54E40E941F02DC01CB01FA
:1049D0008D8B9E8BAF8BB88F6D897E898F89988DDB
:1049E00020E030E040E85FE30E94250488232CF4B7
:1049F00081E090E09C8B8B8B3FC06D897E898F8995
:104A0000988D20E03FEF4FE757E40E94C50318164A
:104A10004CF5698D7A8D8B8D9C8D20E030E040E2E5
:104A200051E40E941F02DC01CB01BC01CD010E94B8
:104A30004900DC01CB019C8B8B8B0FC088EC90E094
:104A40009A8B898B89899A890197F1F79A8B898B3F
:104A50008B899C8901979C8B8B8B8B899C89009778
:104A600069F78EC06D897E898F89988D0E94490073
:104A7000DC01CB019C8B8B8B8B899C89988B8F87DE
:104A80008F8598890197F1F7988B8F8779C00E945D
:104A90007F1E87E791E00E94751D1BA680E090E0D5
:104AA000AAE7B4E48B879C87AD87BE876B857C853E
:104AB0008D859E8520E030E04AEF54E40E941F027D
:104AC000DC01CB018F839887A987BA876F817885AE
:104AD00089859A8520E030E040E85FE30E94250464
:104AE00088232CF481E090E09E838D833FC06F810A
:104AF000788589859A8520E03FEF4FE757E40E944B
:104B0000C50318164CF56B857C858D859E8520E048
:104B100030E040E251E40E941F02DC01CB01BC0105
:104B2000CD010E944900DC01CB019E838D830FC023
:104B300088EC90E09C838B838B819C810197F1F7BB
:104B40009C838B838D819E8101979E838D838D8134
:104B50009E81009769F714C06F81788589859A8551
:104B60000E944900DC01CB019E838D838D819E8153
:104B70009A83898389819A810197F1F79A8389833E
:104B80008BA5E4960FB6F894DEBF0FBECDBFCF91D4
:104B9000DF910895DF93CF93CDB7DEB76D970FB652
:104BA000F894DEBF0FBECDBF1D8E80E00E94BA1309
:104BB0008D8F0E947F1E86E891E00E94751D80E027
:104BC00090E0AAE7B4E4898F9A8FAB8FBC8F698D90
:104BD0007A8D8B8D9C8D20E030E04AEF54E40E946A
:104BE0001F02DC01CB018D8B9E8BAF8BB88F6D8943
:104BF0007E898F89988D20E030E040E85FE30E9455
:104C0000250488232CF481E090E09C8B8B8B3FC0A3
:104C10006D897E898F89988D20E03FEF4FE757E4BB
:104C20000E94C50318164CF5698D7A8D8B8D9C8D6D
:104C300020E030E040E251E40E941F02DC01CB01A1
:104C4000BC01CD010E944900DC01CB019C8B8B8B08
:104C50000FC088EC90E09A8B898B89899A8901979B
:104C6000F1F79A8B898B8B899C8901979C8B8B8B15
:104C70008B899C89009769F714C06D897E898F891B
:104C8000988D0E944900DC01CB019C8B8B8B8B891A
:104C90009C89988B8F878F8598890197F1F7988BDE
:104CA0008F8781E060E00E94651E8D8D882F90E0E7
:104CB0000E949E1D80E090E8ABE3B5E48B879C8763
:104CC000AD87BE876B857C858D859E8520E030E035
:104CD0004AEF54E40E941F02DC01CB018F839887C6
:104CE000A987BA876F81788589859A8520E030E029
:104CF00040E85FE30E94250488232CF481E090E0E3
:104D00009E838D833FC06F81788589859A8520E059
:104D10003FEF4FE757E40E94C50318164CF56B852B
:104D20007C858D859E8520E030E040E251E40E9444
:104D30001F02DC01CB01BC01CD010E944900DC0156
:104D4000CB019E838D830FC088EC90E09C838B8386
:104D50008B819C810197F1F79C838B838D819E8150
:104D600001979E838D838D819E81009769F714C082
:104D70006F81788589859A850E944900DC01CB0185
:104D80009E838D838D819E819A83898389819A8177
:104D90000197F1F79A8389836D960FB6F894DEBF79
:104DA0000FBECDBFCF91DF910895DF93CF9300D099
:104DB00000D000D0CDB7DEB79C838B837E836D831C
:104DC0001A8219821AC08A81282F30E08B819C8137
:104DD000FC01E20FF31F40818A81282F30E08D8192
:104DE0009E81FC01E20FF31F8081481719F081E0DA
:104DF000898319C08A818F5F8A838A81282F30E056
:104E00008B819C81FC01E20FF31F80818823D9F6FE
:104E10008A81282F30E08D819E81FC01E20FF31FF3
:104E20008081882381F6898126960FB6F894DEBFAB
:104E30000FBECDBFCF91DF9108950F931F93DF93E6
:104E4000CF9300D0CDB7DEB79A83898387E60E94DF
:104E50004B0A0E945E0AE981FA81808387E60E94FC
:104E60004B0A89819A818C010F5F1F4F0E945E0A55
:104E7000F801808387E60E944B0A89819A818C0120
:104E80000E5F1F4F0E945E0AF801808388E70E9430
:104E90004B0A89819A818C010D5F1F4F0E945E0A27
:104EA000F801808389819A81FC01349610820F90E9
:104EB0000F90CF91DF911F910F910895DF93CF93C2
:104EC000CDB7DEB727970FB6F894DEBF0FBECDBFC4
:104ED0009F838E8319821A821B821C821D8229C0A5
:104EE00089819A81AB81BC812AE030E040E050E0CA
:104EF000BC01CD010E949228AB01BC018D81282FFD
:104F000030E08E819F81FC01E20FF31F8081882FAA
:104F100090E0A0E0B0E0840F951FA61FB71FC097D8
:104F2000A109B10989839A83AB83BC838D818F5F8B
:104F30008D838D81282F30E08E819F81FC01E20FCF
:104F4000F31F8081882361F689819A81AB81BC81BE
:104F5000BC01CD0127960FB6F894DEBF0FBECDBFC2
:104F6000CF91DF910895DF93CF93CDB7DEB7CB54C8
:104F7000D0400FB6F894DEBF0FBECDBF1C8A8FE8BD
:104F800091E09B8B8A8B85E991E0998B888B0E94BD
:104F9000D1200E94FE208C8B8C89813319F40E94D1
:104FA000CA25F7CF8C89823309F043C08AE991E0A2
:104FB0000E941707CE0145960E944407CE014596F0
:104FC0002A893B89B9010E94D526882329F41092A9
:104FD0003B030E942121DDCFCE01459628893989E6
:104FE000B9010E94D5268823A1F681E080933B0376
:104FF00080912D03853081F487E60E944B0A0E9440
:105000005E0A8F8787E60E944B0A0E945E0A8093A1
:105010003A0381E080932D0388EB91E00E9417070B
:10502000809139038130E1F70E9497211092390372
:10503000B0CF0E947F1E83ED91E00E94751D80E03D
:1050400090E0AAE7B4E48B879C87AD87BE876B8529
:105050007C858D859E8520E030E04AEF54E40E94F7
:105060001F02DC01CB018F839887A987BA876F81E4
:10507000788589859A8520E030E040E85FE30E94EA
:10508000250488232CF481E090E09E838D833FC02B
:105090006F81788589859A8520E03FEF4FE757E457
:1050A0000E94C50318164CF56B857C858D859E8501
:1050B00020E030E040E251E40E941F02DC01CB011D
:1050C000BC01CD010E944900DC01CB019E838D8390
:1050D0000FC088EC90E09C838B838B819C8101972F
:1050E000F1F79C838B838D819E8101979E838D83B5
:1050F0008D819E81009769F74CCF6F817885898576
:105100009A850E944900DC01CB019E838D838D81AD
:105110009E819A83898389819A810197F1F79A8385
:10512000898337CF629FD001739FF001829FE00D8A
:10513000F11D649FE00DF11D929FF00D839FF00D16
:10514000749FF00D659FF00D9927729FB00DE11DC2
:10515000F91F639FB00DE11DF91FBD01CF0111249F
:105160000895AA1BBB1B51E107C0AA1FBB1FA617AE
:10517000B70710F0A61BB70B881F991F5A95A9F700
:1051800080959095BC01CD010895A1E21A2EAA1B2D
:10519000BB1BFD010DC0AA1FBB1FEE1FFF1FA217E7
:1051A000B307E407F50720F0A21BB30BE40BF50BE4
:1051B000661F771F881F991F1A9469F7609570956D
:1051C000809590959B01AC01BD01CF0108952F9270
:1051D0003F924F925F926F927F928F929F92AF9287
:1051E000BF92CF92DF92EF92FF920F931F93CF93D4
:1051F000DF93CDB7DEB7CA1BDB0B0FB6F894DEBF6B
:105200000FBECDBF09942A88398848885F846E8490
:105210007D848C849B84AA84B984C884DF80EE80DA
:10522000FD800C811B81AA81B981CE0FD11D0FB6E3
:10523000F894DEBF0FBECDBFED010895F894FFCF07
:10524000496E76616C6964006361726420616E64AA
:105250002061746D2069732076616C696400312D62
:1052600054656D7000322D41544D0041444D494EFE
:1052700000456E7465722050617373776F7264209D
:105280006F662041646D696E204D6F64653A200041
:10529000436F72726563742050617373776F7264C9
:1052A0000043617264204E756D626572203A200081
:1052B000456E7465722042616C616E63653A2000D0
:1052C000456E746572204D617820416D6F756E7406
:1052D0003A200057726F6E672050617373776F7258
:1052E000642000656E746572206465706F73697404
:1052F00020616D6F756E7400696E76616C69643AD9
:105300002000657863656564206D6178616D6F75F7
:105310006E74006578636565642062616C616E63BC
:105320006500417070726F76656400506C656173E2
:105330006520456E7465722050494E0050415353AC
:105340002066696E69736865640050415353204359
:105350006F7272656374005041535320696E636FBE
:1053600072726563740074656D702069732000410A
:10537000444D494E005553455200796F7520776171
:105380006E742041444D494E206F72205553455252
:10539000204D4F44453A200077616974696E67205B
:1053A000666F72206361726420746F20696E73652A
:1053B00072740057726F6E6720456E7465720000DC
:1053C00000000000000000000102020303030304C8
:1053D0000404040404040405050505050505050584
:1053E0000505050505050506060606060606060664
:1053F000060606060606060606060606060606064D
:105400000606060606060607070707070707070733
:10541000070707070707070707070707070707071C
:10542000070707070707070707070707070707070C
:1054300007070707070707070707070707070707FC
:1054400007070707070707080808080808080808E3
:1054500008080808080808080808080808080808CC
:1054600008080808080808080808080808080808BC
:1054700008080808080808080808080808080808AC
:10548000080808080808080808080808080808089C
:10549000080808080808080808080808080808088C
:1054A000080808080808080808080808080808087C
:1054B000080808080808080808080808080808086C
:1054C0000808080808080801013132333435363736
:1054D00038392A30230101010100000000000000DA
:1054E00000000000000000000000000000000000BC
:1054F00000000000000000000000000000000000AC
:0E550000000000000000000301010101000591
:00000001FF
